
firmware.o:     file format elf32-littleriscv


Disassembly of section .text:

00000000 <_start>:
       0:	18d0406f          	j	498c <simple>

00000004 <simple_ret>:
       4:	4900306f          	j	3494 <lui>

00000008 <lui_ret>:
       8:	0700106f          	j	1078 <auipc>

0000000c <auipc_ret>:
       c:	0490206f          	j	2854 <j>

00000010 <j_ret>:
      10:	76c0206f          	j	277c <jal>

00000014 <jal_ret>:
      14:	5e40206f          	j	25f8 <jalr>

00000018 <jalr_ret>:
      18:	12c0106f          	j	1144 <beq>

0000001c <beq_ret>:
      1c:	2980206f          	j	22b4 <bne>

00000020 <bne_ret>:
      20:	3dd0106f          	j	1bfc <blt>

00000024 <blt_ret>:
      24:	4600106f          	j	1484 <bge>

00000028 <bge_ret>:
      28:	7150106f          	j	1f3c <bltu>

0000002c <bltu_ret>:
      2c:	7f80106f          	j	1824 <bgeu>

00000030 <bgeu_ret>:
      30:	0e10206f          	j	2910 <lb>

00000034 <lb_ret>:
      34:	6750206f          	j	2ea8 <lh>

00000038 <lh_ret>:
      38:	53c0306f          	j	3574 <lw>

0000003c <lw_ret>:
      3c:	3a10206f          	j	2bdc <lbu>

00000040 <lbu_ret>:
      40:	1540306f          	j	3194 <lhu>

00000044 <lhu_ret>:
      44:	7dd0306f          	j	4020 <sb>

00000048 <sb_ret>:
      48:	44c0406f          	j	4494 <sh>

0000004c <sh_ret>:
      4c:	2d40706f          	j	7320 <sw>

00000050 <sw_ret>:
      50:	0480006f          	j	98 <addi>

00000054 <addi_ret>:
      54:	2800506f          	j	52d4 <slti>

00000058 <slti_ret>:
      58:	7cc0706f          	j	7824 <xori>

0000005c <xori_ret>:
      5c:	0250306f          	j	3880 <ori>

00000060 <ori_ret>:
      60:	09d0006f          	j	8fc <andi>

00000064 <andi_ret>:
      64:	17d0406f          	j	49e0 <slli>

00000068 <slli_ret>:
      68:	4040606f          	j	646c <srli>

0000006c <srli_ret>:
      6c:	2a90506f          	j	5b14 <srai>

00000070 <srai_ret>:
      70:	3300006f          	j	3a0 <add>

00000074 <add_ret>:
      74:	56d0606f          	j	6de0 <sub>

00000078 <sub_ret>:
      78:	4710406f          	j	4ce8 <sll>

0000007c <sll_ret>:
      7c:	5500506f          	j	55cc <slt>

00000080 <slt_ret>:
      80:	20d0706f          	j	7a8c <xor>

00000084 <xor_ret>:
      84:	7200606f          	j	67a4 <srl>

00000088 <srl_ret>:
      88:	5c90506f          	j	5e50 <sra>

0000008c <sra_ret>:
      8c:	2510306f          	j	3adc <or>

00000090 <or_ret>:
      90:	2b10006f          	j	b40 <and>

00000094 <and_ret>:
      94:	0000006f          	j	94 <and_ret>

00000098 <addi>:
      98:	0b400513          	li	a0,180
      9c:	10000637          	lui	a2,0x10000

000000a0 <.prname_next>:
      a0:	00050583          	lb	a1,0(a0)
      a4:	00058c63          	beqz	a1,bc <.prname_done>
      a8:	00b62023          	sw	a1,0(a2) # 10000000 <tdat10+0xfff7fc8>
      ac:	00150513          	add	a0,a0,1
      b0:	ff1ff06f          	j	a0 <.prname_next>

000000b4 <.test_name>:
      b4:	6461                	.2byte	0x6461
      b6:	6964                	.2byte	0x6964
      b8:	0000                	.2byte	0x0
	...

000000bc <.prname_done>:
      bc:	02e00593          	li	a1,46
      c0:	00b62023          	sw	a1,0(a2)
      c4:	00b62023          	sw	a1,0(a2)

000000c8 <test_2>:
      c8:	00000093          	li	ra,0
      cc:	00008193          	mv	gp,ra
      d0:	00000e93          	li	t4,0
      d4:	00200e13          	li	t3,2
      d8:	27d19c63          	bne	gp,t4,350 <fail>

000000dc <test_3>:
      dc:	00100093          	li	ra,1
      e0:	00108193          	add	gp,ra,1
      e4:	00200e93          	li	t4,2
      e8:	00300e13          	li	t3,3
      ec:	27d19263          	bne	gp,t4,350 <fail>

000000f0 <test_4>:
      f0:	00300093          	li	ra,3
      f4:	00708193          	add	gp,ra,7
      f8:	00a00e93          	li	t4,10
      fc:	00400e13          	li	t3,4
     100:	25d19863          	bne	gp,t4,350 <fail>

00000104 <test_5>:
     104:	00000093          	li	ra,0
     108:	80008193          	add	gp,ra,-2048
     10c:	80000e93          	li	t4,-2048
     110:	00500e13          	li	t3,5
     114:	23d19e63          	bne	gp,t4,350 <fail>

00000118 <test_6>:
     118:	800000b7          	lui	ra,0x80000
     11c:	00008193          	mv	gp,ra
     120:	80000eb7          	lui	t4,0x80000
     124:	00600e13          	li	t3,6
     128:	23d19463          	bne	gp,t4,350 <fail>

0000012c <test_7>:
     12c:	800000b7          	lui	ra,0x80000
     130:	80008193          	add	gp,ra,-2048 # 7ffff800 <tdat10+0x7fff77c8>
     134:	80000eb7          	lui	t4,0x80000
     138:	800e8e93          	add	t4,t4,-2048 # 7ffff800 <tdat10+0x7fff77c8>
     13c:	00700e13          	li	t3,7
     140:	21d19863          	bne	gp,t4,350 <fail>

00000144 <test_8>:
     144:	00000093          	li	ra,0
     148:	7ff08193          	add	gp,ra,2047
     14c:	7ff00e93          	li	t4,2047
     150:	00800e13          	li	t3,8
     154:	1fd19e63          	bne	gp,t4,350 <fail>

00000158 <test_9>:
     158:	800000b7          	lui	ra,0x80000
     15c:	fff08093          	add	ra,ra,-1 # 7fffffff <tdat10+0x7fff7fc7>
     160:	00008193          	mv	gp,ra
     164:	80000eb7          	lui	t4,0x80000
     168:	fffe8e93          	add	t4,t4,-1 # 7fffffff <tdat10+0x7fff7fc7>
     16c:	00900e13          	li	t3,9
     170:	1fd19063          	bne	gp,t4,350 <fail>

00000174 <test_10>:
     174:	800000b7          	lui	ra,0x80000
     178:	fff08093          	add	ra,ra,-1 # 7fffffff <tdat10+0x7fff7fc7>
     17c:	7ff08193          	add	gp,ra,2047
     180:	80000eb7          	lui	t4,0x80000
     184:	7fee8e93          	add	t4,t4,2046 # 800007fe <tdat10+0x7fff87c6>
     188:	00a00e13          	li	t3,10
     18c:	1dd19263          	bne	gp,t4,350 <fail>

00000190 <test_11>:
     190:	800000b7          	lui	ra,0x80000
     194:	7ff08193          	add	gp,ra,2047 # 800007ff <tdat10+0x7fff87c7>
     198:	80000eb7          	lui	t4,0x80000
     19c:	7ffe8e93          	add	t4,t4,2047 # 800007ff <tdat10+0x7fff87c7>
     1a0:	00b00e13          	li	t3,11
     1a4:	1bd19663          	bne	gp,t4,350 <fail>

000001a8 <test_12>:
     1a8:	800000b7          	lui	ra,0x80000
     1ac:	fff08093          	add	ra,ra,-1 # 7fffffff <tdat10+0x7fff7fc7>
     1b0:	80008193          	add	gp,ra,-2048
     1b4:	7ffffeb7          	lui	t4,0x7ffff
     1b8:	7ffe8e93          	add	t4,t4,2047 # 7ffff7ff <tdat10+0x7fff77c7>
     1bc:	00c00e13          	li	t3,12
     1c0:	19d19863          	bne	gp,t4,350 <fail>

000001c4 <test_13>:
     1c4:	00000093          	li	ra,0
     1c8:	fff08193          	add	gp,ra,-1
     1cc:	fff00e93          	li	t4,-1
     1d0:	00d00e13          	li	t3,13
     1d4:	17d19e63          	bne	gp,t4,350 <fail>

000001d8 <test_14>:
     1d8:	fff00093          	li	ra,-1
     1dc:	00108193          	add	gp,ra,1
     1e0:	00000e93          	li	t4,0
     1e4:	00e00e13          	li	t3,14
     1e8:	17d19463          	bne	gp,t4,350 <fail>

000001ec <test_15>:
     1ec:	fff00093          	li	ra,-1
     1f0:	fff08193          	add	gp,ra,-1
     1f4:	ffe00e93          	li	t4,-2
     1f8:	00f00e13          	li	t3,15
     1fc:	15d19a63          	bne	gp,t4,350 <fail>

00000200 <test_16>:
     200:	800000b7          	lui	ra,0x80000
     204:	fff08093          	add	ra,ra,-1 # 7fffffff <tdat10+0x7fff7fc7>
     208:	00108193          	add	gp,ra,1
     20c:	80000eb7          	lui	t4,0x80000
     210:	01000e13          	li	t3,16
     214:	13d19e63          	bne	gp,t4,350 <fail>

00000218 <test_17>:
     218:	00d00093          	li	ra,13
     21c:	00b08093          	add	ra,ra,11
     220:	01800e93          	li	t4,24
     224:	01100e13          	li	t3,17
     228:	13d09463          	bne	ra,t4,350 <fail>

0000022c <test_18>:
     22c:	00000213          	li	tp,0
     230:	00d00093          	li	ra,13
     234:	00b08193          	add	gp,ra,11
     238:	00018313          	mv	t1,gp
     23c:	00120213          	add	tp,tp,1 # 1 <_start+0x1>
     240:	00200293          	li	t0,2
     244:	fe5216e3          	bne	tp,t0,230 <test_18+0x4>
     248:	01800e93          	li	t4,24
     24c:	01200e13          	li	t3,18
     250:	11d31063          	bne	t1,t4,350 <fail>

00000254 <test_19>:
     254:	00000213          	li	tp,0
     258:	00d00093          	li	ra,13
     25c:	00a08193          	add	gp,ra,10
     260:	00000013          	nop
     264:	00018313          	mv	t1,gp
     268:	00120213          	add	tp,tp,1 # 1 <_start+0x1>
     26c:	00200293          	li	t0,2
     270:	fe5214e3          	bne	tp,t0,258 <test_19+0x4>
     274:	01700e93          	li	t4,23
     278:	01300e13          	li	t3,19
     27c:	0dd31a63          	bne	t1,t4,350 <fail>

00000280 <test_20>:
     280:	00000213          	li	tp,0
     284:	00d00093          	li	ra,13
     288:	00908193          	add	gp,ra,9
     28c:	00000013          	nop
     290:	00000013          	nop
     294:	00018313          	mv	t1,gp
     298:	00120213          	add	tp,tp,1 # 1 <_start+0x1>
     29c:	00200293          	li	t0,2
     2a0:	fe5212e3          	bne	tp,t0,284 <test_20+0x4>
     2a4:	01600e93          	li	t4,22
     2a8:	01400e13          	li	t3,20
     2ac:	0bd31263          	bne	t1,t4,350 <fail>

000002b0 <test_21>:
     2b0:	00000213          	li	tp,0
     2b4:	00d00093          	li	ra,13
     2b8:	00b08193          	add	gp,ra,11
     2bc:	00120213          	add	tp,tp,1 # 1 <_start+0x1>
     2c0:	00200293          	li	t0,2
     2c4:	fe5218e3          	bne	tp,t0,2b4 <test_21+0x4>
     2c8:	01800e93          	li	t4,24
     2cc:	01500e13          	li	t3,21
     2d0:	09d19063          	bne	gp,t4,350 <fail>

000002d4 <test_22>:
     2d4:	00000213          	li	tp,0
     2d8:	00d00093          	li	ra,13
     2dc:	00000013          	nop
     2e0:	00a08193          	add	gp,ra,10
     2e4:	00120213          	add	tp,tp,1 # 1 <_start+0x1>
     2e8:	00200293          	li	t0,2
     2ec:	fe5216e3          	bne	tp,t0,2d8 <test_22+0x4>
     2f0:	01700e93          	li	t4,23
     2f4:	01600e13          	li	t3,22
     2f8:	05d19c63          	bne	gp,t4,350 <fail>

000002fc <test_23>:
     2fc:	00000213          	li	tp,0
     300:	00d00093          	li	ra,13
     304:	00000013          	nop
     308:	00000013          	nop
     30c:	00908193          	add	gp,ra,9
     310:	00120213          	add	tp,tp,1 # 1 <_start+0x1>
     314:	00200293          	li	t0,2
     318:	fe5214e3          	bne	tp,t0,300 <test_23+0x4>
     31c:	01600e93          	li	t4,22
     320:	01700e13          	li	t3,23
     324:	03d19663          	bne	gp,t4,350 <fail>

00000328 <test_24>:
     328:	02000093          	li	ra,32
     32c:	02000e93          	li	t4,32
     330:	01800e13          	li	t3,24
     334:	01d09e63          	bne	ra,t4,350 <fail>

00000338 <test_25>:
     338:	02100093          	li	ra,33
     33c:	03208013          	add	zero,ra,50
     340:	00000e93          	li	t4,0
     344:	01900e13          	li	t3,25
     348:	01d01463          	bne	zero,t4,350 <fail>
     34c:	03c01a63          	bne	zero,t3,380 <pass>

00000350 <fail>:
     350:	10000537          	lui	a0,0x10000
     354:	04500593          	li	a1,69
     358:	05200613          	li	a2,82
     35c:	04f00693          	li	a3,79
     360:	00a00713          	li	a4,10
     364:	00b52023          	sw	a1,0(a0) # 10000000 <tdat10+0xfff7fc8>
     368:	00c52023          	sw	a2,0(a0)
     36c:	00c52023          	sw	a2,0(a0)
     370:	00d52023          	sw	a3,0(a0)
     374:	00c52023          	sw	a2,0(a0)
     378:	00e52023          	sw	a4,0(a0)
     37c:	00100073          	ebreak

00000380 <pass>:
     380:	10000537          	lui	a0,0x10000
     384:	04f00593          	li	a1,79
     388:	04b00613          	li	a2,75
     38c:	00a00693          	li	a3,10
     390:	00b52023          	sw	a1,0(a0) # 10000000 <tdat10+0xfff7fc8>
     394:	00c52023          	sw	a2,0(a0)
     398:	00d52023          	sw	a3,0(a0)
     39c:	cb9ff06f          	j	54 <addi_ret>

000003a0 <add>:
     3a0:	3bc00513          	li	a0,956
     3a4:	10000637          	lui	a2,0x10000

000003a8 <.prname_next>:
     3a8:	00050583          	lb	a1,0(a0)
     3ac:	00058a63          	beqz	a1,3c0 <.prname_done>
     3b0:	00b62023          	sw	a1,0(a2) # 10000000 <tdat10+0xfff7fc8>
     3b4:	00150513          	add	a0,a0,1
     3b8:	ff1ff06f          	j	3a8 <.prname_next>

000003bc <.test_name>:
     3bc:	6461                	.2byte	0x6461
     3be:	0064                	.2byte	0x64

000003c0 <.prname_done>:
     3c0:	02e00593          	li	a1,46
     3c4:	00b62023          	sw	a1,0(a2)
     3c8:	00b62023          	sw	a1,0(a2)

000003cc <test_2>:
     3cc:	00000093          	li	ra,0
     3d0:	00000113          	li	sp,0
     3d4:	002081b3          	add	gp,ra,sp
     3d8:	00000e93          	li	t4,0
     3dc:	00200e13          	li	t3,2
     3e0:	4dd19663          	bne	gp,t4,8ac <fail>

000003e4 <test_3>:
     3e4:	00100093          	li	ra,1
     3e8:	00100113          	li	sp,1
     3ec:	002081b3          	add	gp,ra,sp
     3f0:	00200e93          	li	t4,2
     3f4:	00300e13          	li	t3,3
     3f8:	4bd19a63          	bne	gp,t4,8ac <fail>

000003fc <test_4>:
     3fc:	00300093          	li	ra,3
     400:	00700113          	li	sp,7
     404:	002081b3          	add	gp,ra,sp
     408:	00a00e93          	li	t4,10
     40c:	00400e13          	li	t3,4
     410:	49d19e63          	bne	gp,t4,8ac <fail>

00000414 <test_5>:
     414:	00000093          	li	ra,0
     418:	ffff8137          	lui	sp,0xffff8
     41c:	002081b3          	add	gp,ra,sp
     420:	ffff8eb7          	lui	t4,0xffff8
     424:	00500e13          	li	t3,5
     428:	49d19263          	bne	gp,t4,8ac <fail>

0000042c <test_6>:
     42c:	800000b7          	lui	ra,0x80000
     430:	00000113          	li	sp,0
     434:	002081b3          	add	gp,ra,sp
     438:	80000eb7          	lui	t4,0x80000
     43c:	00600e13          	li	t3,6
     440:	47d19663          	bne	gp,t4,8ac <fail>

00000444 <test_7>:
     444:	800000b7          	lui	ra,0x80000
     448:	ffff8137          	lui	sp,0xffff8
     44c:	002081b3          	add	gp,ra,sp
     450:	7fff8eb7          	lui	t4,0x7fff8
     454:	00700e13          	li	t3,7
     458:	45d19a63          	bne	gp,t4,8ac <fail>

0000045c <test_8>:
     45c:	00000093          	li	ra,0
     460:	00008137          	lui	sp,0x8
     464:	fff10113          	add	sp,sp,-1 # 7fff <tdat10+0x2>
     468:	002081b3          	add	gp,ra,sp
     46c:	00008eb7          	lui	t4,0x8
     470:	fffe8e93          	add	t4,t4,-1 # 7fff <tdat10+0x2>
     474:	00800e13          	li	t3,8
     478:	43d19a63          	bne	gp,t4,8ac <fail>

0000047c <test_9>:
     47c:	800000b7          	lui	ra,0x80000
     480:	fff08093          	add	ra,ra,-1 # 7fffffff <tdat10+0x7fff7fc7>
     484:	00000113          	li	sp,0
     488:	002081b3          	add	gp,ra,sp
     48c:	80000eb7          	lui	t4,0x80000
     490:	fffe8e93          	add	t4,t4,-1 # 7fffffff <tdat10+0x7fff7fc7>
     494:	00900e13          	li	t3,9
     498:	41d19a63          	bne	gp,t4,8ac <fail>

0000049c <test_10>:
     49c:	800000b7          	lui	ra,0x80000
     4a0:	fff08093          	add	ra,ra,-1 # 7fffffff <tdat10+0x7fff7fc7>
     4a4:	00008137          	lui	sp,0x8
     4a8:	fff10113          	add	sp,sp,-1 # 7fff <tdat10+0x2>
     4ac:	002081b3          	add	gp,ra,sp
     4b0:	80008eb7          	lui	t4,0x80008
     4b4:	ffee8e93          	add	t4,t4,-2 # 80007ffe <tdat10+0x7fffffc6>
     4b8:	00a00e13          	li	t3,10
     4bc:	3fd19863          	bne	gp,t4,8ac <fail>

000004c0 <test_11>:
     4c0:	800000b7          	lui	ra,0x80000
     4c4:	00008137          	lui	sp,0x8
     4c8:	fff10113          	add	sp,sp,-1 # 7fff <tdat10+0x2>
     4cc:	002081b3          	add	gp,ra,sp
     4d0:	80008eb7          	lui	t4,0x80008
     4d4:	fffe8e93          	add	t4,t4,-1 # 80007fff <tdat10+0x7fffffc7>
     4d8:	00b00e13          	li	t3,11
     4dc:	3dd19863          	bne	gp,t4,8ac <fail>

000004e0 <test_12>:
     4e0:	800000b7          	lui	ra,0x80000
     4e4:	fff08093          	add	ra,ra,-1 # 7fffffff <tdat10+0x7fff7fc7>
     4e8:	ffff8137          	lui	sp,0xffff8
     4ec:	002081b3          	add	gp,ra,sp
     4f0:	7fff8eb7          	lui	t4,0x7fff8
     4f4:	fffe8e93          	add	t4,t4,-1 # 7fff7fff <tdat10+0x7ffeffc7>
     4f8:	00c00e13          	li	t3,12
     4fc:	3bd19863          	bne	gp,t4,8ac <fail>

00000500 <test_13>:
     500:	00000093          	li	ra,0
     504:	fff00113          	li	sp,-1
     508:	002081b3          	add	gp,ra,sp
     50c:	fff00e93          	li	t4,-1
     510:	00d00e13          	li	t3,13
     514:	39d19c63          	bne	gp,t4,8ac <fail>

00000518 <test_14>:
     518:	fff00093          	li	ra,-1
     51c:	00100113          	li	sp,1
     520:	002081b3          	add	gp,ra,sp
     524:	00000e93          	li	t4,0
     528:	00e00e13          	li	t3,14
     52c:	39d19063          	bne	gp,t4,8ac <fail>

00000530 <test_15>:
     530:	fff00093          	li	ra,-1
     534:	fff00113          	li	sp,-1
     538:	002081b3          	add	gp,ra,sp
     53c:	ffe00e93          	li	t4,-2
     540:	00f00e13          	li	t3,15
     544:	37d19463          	bne	gp,t4,8ac <fail>

00000548 <test_16>:
     548:	00100093          	li	ra,1
     54c:	80000137          	lui	sp,0x80000
     550:	fff10113          	add	sp,sp,-1 # 7fffffff <tdat10+0x7fff7fc7>
     554:	002081b3          	add	gp,ra,sp
     558:	80000eb7          	lui	t4,0x80000
     55c:	01000e13          	li	t3,16
     560:	35d19663          	bne	gp,t4,8ac <fail>

00000564 <test_17>:
     564:	00d00093          	li	ra,13
     568:	00b00113          	li	sp,11
     56c:	002080b3          	add	ra,ra,sp
     570:	01800e93          	li	t4,24
     574:	01100e13          	li	t3,17
     578:	33d09a63          	bne	ra,t4,8ac <fail>

0000057c <test_18>:
     57c:	00e00093          	li	ra,14
     580:	00b00113          	li	sp,11
     584:	00208133          	add	sp,ra,sp
     588:	01900e93          	li	t4,25
     58c:	01200e13          	li	t3,18
     590:	31d11e63          	bne	sp,t4,8ac <fail>

00000594 <test_19>:
     594:	00d00093          	li	ra,13
     598:	001080b3          	add	ra,ra,ra
     59c:	01a00e93          	li	t4,26
     5a0:	01300e13          	li	t3,19
     5a4:	31d09463          	bne	ra,t4,8ac <fail>

000005a8 <test_20>:
     5a8:	00000213          	li	tp,0
     5ac:	00d00093          	li	ra,13
     5b0:	00b00113          	li	sp,11
     5b4:	002081b3          	add	gp,ra,sp
     5b8:	00018313          	mv	t1,gp
     5bc:	00120213          	add	tp,tp,1 # 1 <_start+0x1>
     5c0:	00200293          	li	t0,2
     5c4:	fe5214e3          	bne	tp,t0,5ac <test_20+0x4>
     5c8:	01800e93          	li	t4,24
     5cc:	01400e13          	li	t3,20
     5d0:	2dd31e63          	bne	t1,t4,8ac <fail>

000005d4 <test_21>:
     5d4:	00000213          	li	tp,0
     5d8:	00e00093          	li	ra,14
     5dc:	00b00113          	li	sp,11
     5e0:	002081b3          	add	gp,ra,sp
     5e4:	00000013          	nop
     5e8:	00018313          	mv	t1,gp
     5ec:	00120213          	add	tp,tp,1 # 1 <_start+0x1>
     5f0:	00200293          	li	t0,2
     5f4:	fe5212e3          	bne	tp,t0,5d8 <test_21+0x4>
     5f8:	01900e93          	li	t4,25
     5fc:	01500e13          	li	t3,21
     600:	2bd31663          	bne	t1,t4,8ac <fail>

00000604 <test_22>:
     604:	00000213          	li	tp,0
     608:	00f00093          	li	ra,15
     60c:	00b00113          	li	sp,11
     610:	002081b3          	add	gp,ra,sp
     614:	00000013          	nop
     618:	00000013          	nop
     61c:	00018313          	mv	t1,gp
     620:	00120213          	add	tp,tp,1 # 1 <_start+0x1>
     624:	00200293          	li	t0,2
     628:	fe5210e3          	bne	tp,t0,608 <test_22+0x4>
     62c:	01a00e93          	li	t4,26
     630:	01600e13          	li	t3,22
     634:	27d31c63          	bne	t1,t4,8ac <fail>

00000638 <test_23>:
     638:	00000213          	li	tp,0
     63c:	00d00093          	li	ra,13
     640:	00b00113          	li	sp,11
     644:	002081b3          	add	gp,ra,sp
     648:	00120213          	add	tp,tp,1 # 1 <_start+0x1>
     64c:	00200293          	li	t0,2
     650:	fe5216e3          	bne	tp,t0,63c <test_23+0x4>
     654:	01800e93          	li	t4,24
     658:	01700e13          	li	t3,23
     65c:	25d19863          	bne	gp,t4,8ac <fail>

00000660 <test_24>:
     660:	00000213          	li	tp,0
     664:	00e00093          	li	ra,14
     668:	00b00113          	li	sp,11
     66c:	00000013          	nop
     670:	002081b3          	add	gp,ra,sp
     674:	00120213          	add	tp,tp,1 # 1 <_start+0x1>
     678:	00200293          	li	t0,2
     67c:	fe5214e3          	bne	tp,t0,664 <test_24+0x4>
     680:	01900e93          	li	t4,25
     684:	01800e13          	li	t3,24
     688:	23d19263          	bne	gp,t4,8ac <fail>

0000068c <test_25>:
     68c:	00000213          	li	tp,0
     690:	00f00093          	li	ra,15
     694:	00b00113          	li	sp,11
     698:	00000013          	nop
     69c:	00000013          	nop
     6a0:	002081b3          	add	gp,ra,sp
     6a4:	00120213          	add	tp,tp,1 # 1 <_start+0x1>
     6a8:	00200293          	li	t0,2
     6ac:	fe5212e3          	bne	tp,t0,690 <test_25+0x4>
     6b0:	01a00e93          	li	t4,26
     6b4:	01900e13          	li	t3,25
     6b8:	1fd19a63          	bne	gp,t4,8ac <fail>

000006bc <test_26>:
     6bc:	00000213          	li	tp,0
     6c0:	00d00093          	li	ra,13
     6c4:	00000013          	nop
     6c8:	00b00113          	li	sp,11
     6cc:	002081b3          	add	gp,ra,sp
     6d0:	00120213          	add	tp,tp,1 # 1 <_start+0x1>
     6d4:	00200293          	li	t0,2
     6d8:	fe5214e3          	bne	tp,t0,6c0 <test_26+0x4>
     6dc:	01800e93          	li	t4,24
     6e0:	01a00e13          	li	t3,26
     6e4:	1dd19463          	bne	gp,t4,8ac <fail>

000006e8 <test_27>:
     6e8:	00000213          	li	tp,0
     6ec:	00e00093          	li	ra,14
     6f0:	00000013          	nop
     6f4:	00b00113          	li	sp,11
     6f8:	00000013          	nop
     6fc:	002081b3          	add	gp,ra,sp
     700:	00120213          	add	tp,tp,1 # 1 <_start+0x1>
     704:	00200293          	li	t0,2
     708:	fe5212e3          	bne	tp,t0,6ec <test_27+0x4>
     70c:	01900e93          	li	t4,25
     710:	01b00e13          	li	t3,27
     714:	19d19c63          	bne	gp,t4,8ac <fail>

00000718 <test_28>:
     718:	00000213          	li	tp,0
     71c:	00f00093          	li	ra,15
     720:	00000013          	nop
     724:	00000013          	nop
     728:	00b00113          	li	sp,11
     72c:	002081b3          	add	gp,ra,sp
     730:	00120213          	add	tp,tp,1 # 1 <_start+0x1>
     734:	00200293          	li	t0,2
     738:	fe5212e3          	bne	tp,t0,71c <test_28+0x4>
     73c:	01a00e93          	li	t4,26
     740:	01c00e13          	li	t3,28
     744:	17d19463          	bne	gp,t4,8ac <fail>

00000748 <test_29>:
     748:	00000213          	li	tp,0
     74c:	00b00113          	li	sp,11
     750:	00d00093          	li	ra,13
     754:	002081b3          	add	gp,ra,sp
     758:	00120213          	add	tp,tp,1 # 1 <_start+0x1>
     75c:	00200293          	li	t0,2
     760:	fe5216e3          	bne	tp,t0,74c <test_29+0x4>
     764:	01800e93          	li	t4,24
     768:	01d00e13          	li	t3,29
     76c:	15d19063          	bne	gp,t4,8ac <fail>

00000770 <test_30>:
     770:	00000213          	li	tp,0
     774:	00b00113          	li	sp,11
     778:	00e00093          	li	ra,14
     77c:	00000013          	nop
     780:	002081b3          	add	gp,ra,sp
     784:	00120213          	add	tp,tp,1 # 1 <_start+0x1>
     788:	00200293          	li	t0,2
     78c:	fe5214e3          	bne	tp,t0,774 <test_30+0x4>
     790:	01900e93          	li	t4,25
     794:	01e00e13          	li	t3,30
     798:	11d19a63          	bne	gp,t4,8ac <fail>

0000079c <test_31>:
     79c:	00000213          	li	tp,0
     7a0:	00b00113          	li	sp,11
     7a4:	00f00093          	li	ra,15
     7a8:	00000013          	nop
     7ac:	00000013          	nop
     7b0:	002081b3          	add	gp,ra,sp
     7b4:	00120213          	add	tp,tp,1 # 1 <_start+0x1>
     7b8:	00200293          	li	t0,2
     7bc:	fe5212e3          	bne	tp,t0,7a0 <test_31+0x4>
     7c0:	01a00e93          	li	t4,26
     7c4:	01f00e13          	li	t3,31
     7c8:	0fd19263          	bne	gp,t4,8ac <fail>

000007cc <test_32>:
     7cc:	00000213          	li	tp,0
     7d0:	00b00113          	li	sp,11
     7d4:	00000013          	nop
     7d8:	00d00093          	li	ra,13
     7dc:	002081b3          	add	gp,ra,sp
     7e0:	00120213          	add	tp,tp,1 # 1 <_start+0x1>
     7e4:	00200293          	li	t0,2
     7e8:	fe5214e3          	bne	tp,t0,7d0 <test_32+0x4>
     7ec:	01800e93          	li	t4,24
     7f0:	02000e13          	li	t3,32
     7f4:	0bd19c63          	bne	gp,t4,8ac <fail>

000007f8 <test_33>:
     7f8:	00000213          	li	tp,0
     7fc:	00b00113          	li	sp,11
     800:	00000013          	nop
     804:	00e00093          	li	ra,14
     808:	00000013          	nop
     80c:	002081b3          	add	gp,ra,sp
     810:	00120213          	add	tp,tp,1 # 1 <_start+0x1>
     814:	00200293          	li	t0,2
     818:	fe5212e3          	bne	tp,t0,7fc <test_33+0x4>
     81c:	01900e93          	li	t4,25
     820:	02100e13          	li	t3,33
     824:	09d19463          	bne	gp,t4,8ac <fail>

00000828 <test_34>:
     828:	00000213          	li	tp,0
     82c:	00b00113          	li	sp,11
     830:	00000013          	nop
     834:	00000013          	nop
     838:	00f00093          	li	ra,15
     83c:	002081b3          	add	gp,ra,sp
     840:	00120213          	add	tp,tp,1 # 1 <_start+0x1>
     844:	00200293          	li	t0,2
     848:	fe5212e3          	bne	tp,t0,82c <test_34+0x4>
     84c:	01a00e93          	li	t4,26
     850:	02200e13          	li	t3,34
     854:	05d19c63          	bne	gp,t4,8ac <fail>

00000858 <test_35>:
     858:	00f00093          	li	ra,15
     85c:	00100133          	add	sp,zero,ra
     860:	00f00e93          	li	t4,15
     864:	02300e13          	li	t3,35
     868:	05d11263          	bne	sp,t4,8ac <fail>

0000086c <test_36>:
     86c:	02000093          	li	ra,32
     870:	00008133          	add	sp,ra,zero
     874:	02000e93          	li	t4,32
     878:	02400e13          	li	t3,36
     87c:	03d11863          	bne	sp,t4,8ac <fail>

00000880 <test_37>:
     880:	000000b3          	add	ra,zero,zero
     884:	00000e93          	li	t4,0
     888:	02500e13          	li	t3,37
     88c:	03d09063          	bne	ra,t4,8ac <fail>

00000890 <test_38>:
     890:	01000093          	li	ra,16
     894:	01e00113          	li	sp,30
     898:	00208033          	add	zero,ra,sp
     89c:	00000e93          	li	t4,0
     8a0:	02600e13          	li	t3,38
     8a4:	01d01463          	bne	zero,t4,8ac <fail>
     8a8:	03c01a63          	bne	zero,t3,8dc <pass>

000008ac <fail>:
     8ac:	10000537          	lui	a0,0x10000
     8b0:	04500593          	li	a1,69
     8b4:	05200613          	li	a2,82
     8b8:	04f00693          	li	a3,79
     8bc:	00a00713          	li	a4,10
     8c0:	00b52023          	sw	a1,0(a0) # 10000000 <tdat10+0xfff7fc8>
     8c4:	00c52023          	sw	a2,0(a0)
     8c8:	00c52023          	sw	a2,0(a0)
     8cc:	00d52023          	sw	a3,0(a0)
     8d0:	00c52023          	sw	a2,0(a0)
     8d4:	00e52023          	sw	a4,0(a0)
     8d8:	00100073          	ebreak

000008dc <pass>:
     8dc:	10000537          	lui	a0,0x10000
     8e0:	04f00593          	li	a1,79
     8e4:	04b00613          	li	a2,75
     8e8:	00a00693          	li	a3,10
     8ec:	00b52023          	sw	a1,0(a0) # 10000000 <tdat10+0xfff7fc8>
     8f0:	00c52023          	sw	a2,0(a0)
     8f4:	00d52023          	sw	a3,0(a0)
     8f8:	f7cff06f          	j	74 <add_ret>

000008fc <andi>:
     8fc:	00001537          	lui	a0,0x1
     900:	91c50513          	add	a0,a0,-1764 # 91c <.test_name>
     904:	10000637          	lui	a2,0x10000

00000908 <.prname_next>:
     908:	00050583          	lb	a1,0(a0)
     90c:	00058c63          	beqz	a1,924 <.prname_done>
     910:	00b62023          	sw	a1,0(a2) # 10000000 <tdat10+0xfff7fc8>
     914:	00150513          	add	a0,a0,1
     918:	ff1ff06f          	j	908 <.prname_next>

0000091c <.test_name>:
     91c:	6e61                	.2byte	0x6e61
     91e:	6964                	.2byte	0x6964
     920:	0000                	.2byte	0x0
	...

00000924 <.prname_done>:
     924:	02e00593          	li	a1,46
     928:	00b62023          	sw	a1,0(a2)
     92c:	00b62023          	sw	a1,0(a2)

00000930 <test_2>:
     930:	ff0100b7          	lui	ra,0xff010
     934:	f0008093          	add	ra,ra,-256 # ff00ff00 <tdat10+0xff007ec8>
     938:	f0f0f193          	and	gp,ra,-241
     93c:	ff010eb7          	lui	t4,0xff010
     940:	f00e8e93          	add	t4,t4,-256 # ff00ff00 <tdat10+0xff007ec8>
     944:	00200e13          	li	t3,2
     948:	1bd19463          	bne	gp,t4,af0 <fail>

0000094c <test_3>:
     94c:	0ff010b7          	lui	ra,0xff01
     950:	ff008093          	add	ra,ra,-16 # ff00ff0 <tdat10+0xfef8fb8>
     954:	0f00f193          	and	gp,ra,240
     958:	0f000e93          	li	t4,240
     95c:	00300e13          	li	t3,3
     960:	19d19863          	bne	gp,t4,af0 <fail>

00000964 <test_4>:
     964:	00ff00b7          	lui	ra,0xff0
     968:	0ff08093          	add	ra,ra,255 # ff00ff <tdat10+0xfe80c7>
     96c:	70f0f193          	and	gp,ra,1807
     970:	00f00e93          	li	t4,15
     974:	00400e13          	li	t3,4
     978:	17d19c63          	bne	gp,t4,af0 <fail>

0000097c <test_5>:
     97c:	f00ff0b7          	lui	ra,0xf00ff
     980:	00f08093          	add	ra,ra,15 # f00ff00f <tdat10+0xf00f6fd7>
     984:	0f00f193          	and	gp,ra,240
     988:	00000e93          	li	t4,0
     98c:	00500e13          	li	t3,5
     990:	17d19063          	bne	gp,t4,af0 <fail>

00000994 <test_6>:
     994:	ff0100b7          	lui	ra,0xff010
     998:	f0008093          	add	ra,ra,-256 # ff00ff00 <tdat10+0xff007ec8>
     99c:	0f00f093          	and	ra,ra,240
     9a0:	00000e93          	li	t4,0
     9a4:	00600e13          	li	t3,6
     9a8:	15d09463          	bne	ra,t4,af0 <fail>

000009ac <test_7>:
     9ac:	00000213          	li	tp,0
     9b0:	0ff010b7          	lui	ra,0xff01
     9b4:	ff008093          	add	ra,ra,-16 # ff00ff0 <tdat10+0xfef8fb8>
     9b8:	70f0f193          	and	gp,ra,1807
     9bc:	00018313          	mv	t1,gp
     9c0:	00120213          	add	tp,tp,1 # 1 <_start+0x1>
     9c4:	00200293          	li	t0,2
     9c8:	fe5214e3          	bne	tp,t0,9b0 <test_7+0x4>
     9cc:	70000e93          	li	t4,1792
     9d0:	00700e13          	li	t3,7
     9d4:	11d31e63          	bne	t1,t4,af0 <fail>

000009d8 <test_8>:
     9d8:	00000213          	li	tp,0
     9dc:	00ff00b7          	lui	ra,0xff0
     9e0:	0ff08093          	add	ra,ra,255 # ff00ff <tdat10+0xfe80c7>
     9e4:	0f00f193          	and	gp,ra,240
     9e8:	00000013          	nop
     9ec:	00018313          	mv	t1,gp
     9f0:	00120213          	add	tp,tp,1 # 1 <_start+0x1>
     9f4:	00200293          	li	t0,2
     9f8:	fe5212e3          	bne	tp,t0,9dc <test_8+0x4>
     9fc:	0f000e93          	li	t4,240
     a00:	00800e13          	li	t3,8
     a04:	0fd31663          	bne	t1,t4,af0 <fail>

00000a08 <test_9>:
     a08:	00000213          	li	tp,0
     a0c:	f00ff0b7          	lui	ra,0xf00ff
     a10:	00f08093          	add	ra,ra,15 # f00ff00f <tdat10+0xf00f6fd7>
     a14:	f0f0f193          	and	gp,ra,-241
     a18:	00000013          	nop
     a1c:	00000013          	nop
     a20:	00018313          	mv	t1,gp
     a24:	00120213          	add	tp,tp,1 # 1 <_start+0x1>
     a28:	00200293          	li	t0,2
     a2c:	fe5210e3          	bne	tp,t0,a0c <test_9+0x4>
     a30:	f00ffeb7          	lui	t4,0xf00ff
     a34:	00fe8e93          	add	t4,t4,15 # f00ff00f <tdat10+0xf00f6fd7>
     a38:	00900e13          	li	t3,9
     a3c:	0bd31a63          	bne	t1,t4,af0 <fail>

00000a40 <test_10>:
     a40:	00000213          	li	tp,0
     a44:	0ff010b7          	lui	ra,0xff01
     a48:	ff008093          	add	ra,ra,-16 # ff00ff0 <tdat10+0xfef8fb8>
     a4c:	70f0f193          	and	gp,ra,1807
     a50:	00120213          	add	tp,tp,1 # 1 <_start+0x1>
     a54:	00200293          	li	t0,2
     a58:	fe5216e3          	bne	tp,t0,a44 <test_10+0x4>
     a5c:	70000e93          	li	t4,1792
     a60:	00a00e13          	li	t3,10
     a64:	09d19663          	bne	gp,t4,af0 <fail>

00000a68 <test_11>:
     a68:	00000213          	li	tp,0
     a6c:	00ff00b7          	lui	ra,0xff0
     a70:	0ff08093          	add	ra,ra,255 # ff00ff <tdat10+0xfe80c7>
     a74:	00000013          	nop
     a78:	0f00f193          	and	gp,ra,240
     a7c:	00120213          	add	tp,tp,1 # 1 <_start+0x1>
     a80:	00200293          	li	t0,2
     a84:	fe5214e3          	bne	tp,t0,a6c <test_11+0x4>
     a88:	0f000e93          	li	t4,240
     a8c:	00b00e13          	li	t3,11
     a90:	07d19063          	bne	gp,t4,af0 <fail>

00000a94 <test_12>:
     a94:	00000213          	li	tp,0
     a98:	f00ff0b7          	lui	ra,0xf00ff
     a9c:	00f08093          	add	ra,ra,15 # f00ff00f <tdat10+0xf00f6fd7>
     aa0:	00000013          	nop
     aa4:	00000013          	nop
     aa8:	70f0f193          	and	gp,ra,1807
     aac:	00120213          	add	tp,tp,1 # 1 <_start+0x1>
     ab0:	00200293          	li	t0,2
     ab4:	fe5212e3          	bne	tp,t0,a98 <test_12+0x4>
     ab8:	00f00e93          	li	t4,15
     abc:	00c00e13          	li	t3,12
     ac0:	03d19863          	bne	gp,t4,af0 <fail>

00000ac4 <test_13>:
     ac4:	0f007093          	and	ra,zero,240
     ac8:	00000e93          	li	t4,0
     acc:	00d00e13          	li	t3,13
     ad0:	03d09063          	bne	ra,t4,af0 <fail>

00000ad4 <test_14>:
     ad4:	00ff00b7          	lui	ra,0xff0
     ad8:	0ff08093          	add	ra,ra,255 # ff00ff <tdat10+0xfe80c7>
     adc:	70f0f013          	and	zero,ra,1807
     ae0:	00000e93          	li	t4,0
     ae4:	00e00e13          	li	t3,14
     ae8:	01d01463          	bne	zero,t4,af0 <fail>
     aec:	03c01a63          	bne	zero,t3,b20 <pass>

00000af0 <fail>:
     af0:	10000537          	lui	a0,0x10000
     af4:	04500593          	li	a1,69
     af8:	05200613          	li	a2,82
     afc:	04f00693          	li	a3,79
     b00:	00a00713          	li	a4,10
     b04:	00b52023          	sw	a1,0(a0) # 10000000 <tdat10+0xfff7fc8>
     b08:	00c52023          	sw	a2,0(a0)
     b0c:	00c52023          	sw	a2,0(a0)
     b10:	00d52023          	sw	a3,0(a0)
     b14:	00c52023          	sw	a2,0(a0)
     b18:	00e52023          	sw	a4,0(a0)
     b1c:	00100073          	ebreak

00000b20 <pass>:
     b20:	10000537          	lui	a0,0x10000
     b24:	04f00593          	li	a1,79
     b28:	04b00613          	li	a2,75
     b2c:	00a00693          	li	a3,10
     b30:	00b52023          	sw	a1,0(a0) # 10000000 <tdat10+0xfff7fc8>
     b34:	00c52023          	sw	a2,0(a0)
     b38:	00d52023          	sw	a3,0(a0)
     b3c:	d28ff06f          	j	64 <andi_ret>

00000b40 <and>:
     b40:	00001537          	lui	a0,0x1
     b44:	b6050513          	add	a0,a0,-1184 # b60 <.test_name>
     b48:	10000637          	lui	a2,0x10000

00000b4c <.prname_next>:
     b4c:	00050583          	lb	a1,0(a0)
     b50:	00058a63          	beqz	a1,b64 <.prname_done>
     b54:	00b62023          	sw	a1,0(a2) # 10000000 <tdat10+0xfff7fc8>
     b58:	00150513          	add	a0,a0,1
     b5c:	ff1ff06f          	j	b4c <.prname_next>

00000b60 <.test_name>:
     b60:	6e61                	.2byte	0x6e61
     b62:	0064                	.2byte	0x64

00000b64 <.prname_done>:
     b64:	02e00593          	li	a1,46
     b68:	00b62023          	sw	a1,0(a2)
     b6c:	00b62023          	sw	a1,0(a2)

00000b70 <test_2>:
     b70:	ff0100b7          	lui	ra,0xff010
     b74:	f0008093          	add	ra,ra,-256 # ff00ff00 <tdat10+0xff007ec8>
     b78:	0f0f1137          	lui	sp,0xf0f1
     b7c:	f0f10113          	add	sp,sp,-241 # f0f0f0f <tdat10+0xf0e8ed7>
     b80:	0020f1b3          	and	gp,ra,sp
     b84:	0f001eb7          	lui	t4,0xf001
     b88:	f00e8e93          	add	t4,t4,-256 # f000f00 <tdat10+0xeff8ec8>
     b8c:	00200e13          	li	t3,2
     b90:	49d19c63          	bne	gp,t4,1028 <fail>

00000b94 <test_3>:
     b94:	0ff010b7          	lui	ra,0xff01
     b98:	ff008093          	add	ra,ra,-16 # ff00ff0 <tdat10+0xfef8fb8>
     b9c:	f0f0f137          	lui	sp,0xf0f0f
     ba0:	0f010113          	add	sp,sp,240 # f0f0f0f0 <tdat10+0xf0f070b8>
     ba4:	0020f1b3          	and	gp,ra,sp
     ba8:	00f00eb7          	lui	t4,0xf00
     bac:	0f0e8e93          	add	t4,t4,240 # f000f0 <tdat10+0xef80b8>
     bb0:	00300e13          	li	t3,3
     bb4:	47d19a63          	bne	gp,t4,1028 <fail>

00000bb8 <test_4>:
     bb8:	00ff00b7          	lui	ra,0xff0
     bbc:	0ff08093          	add	ra,ra,255 # ff00ff <tdat10+0xfe80c7>
     bc0:	0f0f1137          	lui	sp,0xf0f1
     bc4:	f0f10113          	add	sp,sp,-241 # f0f0f0f <tdat10+0xf0e8ed7>
     bc8:	0020f1b3          	and	gp,ra,sp
     bcc:	000f0eb7          	lui	t4,0xf0
     bd0:	00fe8e93          	add	t4,t4,15 # f000f <tdat10+0xe7fd7>
     bd4:	00400e13          	li	t3,4
     bd8:	45d19863          	bne	gp,t4,1028 <fail>

00000bdc <test_5>:
     bdc:	f00ff0b7          	lui	ra,0xf00ff
     be0:	00f08093          	add	ra,ra,15 # f00ff00f <tdat10+0xf00f6fd7>
     be4:	f0f0f137          	lui	sp,0xf0f0f
     be8:	0f010113          	add	sp,sp,240 # f0f0f0f0 <tdat10+0xf0f070b8>
     bec:	0020f1b3          	and	gp,ra,sp
     bf0:	f000feb7          	lui	t4,0xf000f
     bf4:	00500e13          	li	t3,5
     bf8:	43d19863          	bne	gp,t4,1028 <fail>

00000bfc <test_6>:
     bfc:	ff0100b7          	lui	ra,0xff010
     c00:	f0008093          	add	ra,ra,-256 # ff00ff00 <tdat10+0xff007ec8>
     c04:	0f0f1137          	lui	sp,0xf0f1
     c08:	f0f10113          	add	sp,sp,-241 # f0f0f0f <tdat10+0xf0e8ed7>
     c0c:	0020f0b3          	and	ra,ra,sp
     c10:	0f001eb7          	lui	t4,0xf001
     c14:	f00e8e93          	add	t4,t4,-256 # f000f00 <tdat10+0xeff8ec8>
     c18:	00600e13          	li	t3,6
     c1c:	41d09663          	bne	ra,t4,1028 <fail>

00000c20 <test_7>:
     c20:	0ff010b7          	lui	ra,0xff01
     c24:	ff008093          	add	ra,ra,-16 # ff00ff0 <tdat10+0xfef8fb8>
     c28:	f0f0f137          	lui	sp,0xf0f0f
     c2c:	0f010113          	add	sp,sp,240 # f0f0f0f0 <tdat10+0xf0f070b8>
     c30:	0020f133          	and	sp,ra,sp
     c34:	00f00eb7          	lui	t4,0xf00
     c38:	0f0e8e93          	add	t4,t4,240 # f000f0 <tdat10+0xef80b8>
     c3c:	00700e13          	li	t3,7
     c40:	3fd11463          	bne	sp,t4,1028 <fail>

00000c44 <test_8>:
     c44:	ff0100b7          	lui	ra,0xff010
     c48:	f0008093          	add	ra,ra,-256 # ff00ff00 <tdat10+0xff007ec8>
     c4c:	0010f0b3          	and	ra,ra,ra
     c50:	ff010eb7          	lui	t4,0xff010
     c54:	f00e8e93          	add	t4,t4,-256 # ff00ff00 <tdat10+0xff007ec8>
     c58:	00800e13          	li	t3,8
     c5c:	3dd09663          	bne	ra,t4,1028 <fail>

00000c60 <test_9>:
     c60:	00000213          	li	tp,0
     c64:	ff0100b7          	lui	ra,0xff010
     c68:	f0008093          	add	ra,ra,-256 # ff00ff00 <tdat10+0xff007ec8>
     c6c:	0f0f1137          	lui	sp,0xf0f1
     c70:	f0f10113          	add	sp,sp,-241 # f0f0f0f <tdat10+0xf0e8ed7>
     c74:	0020f1b3          	and	gp,ra,sp
     c78:	00018313          	mv	t1,gp
     c7c:	00120213          	add	tp,tp,1 # 1 <_start+0x1>
     c80:	00200293          	li	t0,2
     c84:	fe5210e3          	bne	tp,t0,c64 <test_9+0x4>
     c88:	0f001eb7          	lui	t4,0xf001
     c8c:	f00e8e93          	add	t4,t4,-256 # f000f00 <tdat10+0xeff8ec8>
     c90:	00900e13          	li	t3,9
     c94:	39d31a63          	bne	t1,t4,1028 <fail>

00000c98 <test_10>:
     c98:	00000213          	li	tp,0
     c9c:	0ff010b7          	lui	ra,0xff01
     ca0:	ff008093          	add	ra,ra,-16 # ff00ff0 <tdat10+0xfef8fb8>
     ca4:	f0f0f137          	lui	sp,0xf0f0f
     ca8:	0f010113          	add	sp,sp,240 # f0f0f0f0 <tdat10+0xf0f070b8>
     cac:	0020f1b3          	and	gp,ra,sp
     cb0:	00000013          	nop
     cb4:	00018313          	mv	t1,gp
     cb8:	00120213          	add	tp,tp,1 # 1 <_start+0x1>
     cbc:	00200293          	li	t0,2
     cc0:	fc521ee3          	bne	tp,t0,c9c <test_10+0x4>
     cc4:	00f00eb7          	lui	t4,0xf00
     cc8:	0f0e8e93          	add	t4,t4,240 # f000f0 <tdat10+0xef80b8>
     ccc:	00a00e13          	li	t3,10
     cd0:	35d31c63          	bne	t1,t4,1028 <fail>

00000cd4 <test_11>:
     cd4:	00000213          	li	tp,0
     cd8:	00ff00b7          	lui	ra,0xff0
     cdc:	0ff08093          	add	ra,ra,255 # ff00ff <tdat10+0xfe80c7>
     ce0:	0f0f1137          	lui	sp,0xf0f1
     ce4:	f0f10113          	add	sp,sp,-241 # f0f0f0f <tdat10+0xf0e8ed7>
     ce8:	0020f1b3          	and	gp,ra,sp
     cec:	00000013          	nop
     cf0:	00000013          	nop
     cf4:	00018313          	mv	t1,gp
     cf8:	00120213          	add	tp,tp,1 # 1 <_start+0x1>
     cfc:	00200293          	li	t0,2
     d00:	fc521ce3          	bne	tp,t0,cd8 <test_11+0x4>
     d04:	000f0eb7          	lui	t4,0xf0
     d08:	00fe8e93          	add	t4,t4,15 # f000f <tdat10+0xe7fd7>
     d0c:	00b00e13          	li	t3,11
     d10:	31d31c63          	bne	t1,t4,1028 <fail>

00000d14 <test_12>:
     d14:	00000213          	li	tp,0
     d18:	ff0100b7          	lui	ra,0xff010
     d1c:	f0008093          	add	ra,ra,-256 # ff00ff00 <tdat10+0xff007ec8>
     d20:	0f0f1137          	lui	sp,0xf0f1
     d24:	f0f10113          	add	sp,sp,-241 # f0f0f0f <tdat10+0xf0e8ed7>
     d28:	0020f1b3          	and	gp,ra,sp
     d2c:	00120213          	add	tp,tp,1 # 1 <_start+0x1>
     d30:	00200293          	li	t0,2
     d34:	fe5212e3          	bne	tp,t0,d18 <test_12+0x4>
     d38:	0f001eb7          	lui	t4,0xf001
     d3c:	f00e8e93          	add	t4,t4,-256 # f000f00 <tdat10+0xeff8ec8>
     d40:	00c00e13          	li	t3,12
     d44:	2fd19263          	bne	gp,t4,1028 <fail>

00000d48 <test_13>:
     d48:	00000213          	li	tp,0
     d4c:	0ff010b7          	lui	ra,0xff01
     d50:	ff008093          	add	ra,ra,-16 # ff00ff0 <tdat10+0xfef8fb8>
     d54:	f0f0f137          	lui	sp,0xf0f0f
     d58:	0f010113          	add	sp,sp,240 # f0f0f0f0 <tdat10+0xf0f070b8>
     d5c:	00000013          	nop
     d60:	0020f1b3          	and	gp,ra,sp
     d64:	00120213          	add	tp,tp,1 # 1 <_start+0x1>
     d68:	00200293          	li	t0,2
     d6c:	fe5210e3          	bne	tp,t0,d4c <test_13+0x4>
     d70:	00f00eb7          	lui	t4,0xf00
     d74:	0f0e8e93          	add	t4,t4,240 # f000f0 <tdat10+0xef80b8>
     d78:	00d00e13          	li	t3,13
     d7c:	2bd19663          	bne	gp,t4,1028 <fail>

00000d80 <test_14>:
     d80:	00000213          	li	tp,0
     d84:	00ff00b7          	lui	ra,0xff0
     d88:	0ff08093          	add	ra,ra,255 # ff00ff <tdat10+0xfe80c7>
     d8c:	0f0f1137          	lui	sp,0xf0f1
     d90:	f0f10113          	add	sp,sp,-241 # f0f0f0f <tdat10+0xf0e8ed7>
     d94:	00000013          	nop
     d98:	00000013          	nop
     d9c:	0020f1b3          	and	gp,ra,sp
     da0:	00120213          	add	tp,tp,1 # 1 <_start+0x1>
     da4:	00200293          	li	t0,2
     da8:	fc521ee3          	bne	tp,t0,d84 <test_14+0x4>
     dac:	000f0eb7          	lui	t4,0xf0
     db0:	00fe8e93          	add	t4,t4,15 # f000f <tdat10+0xe7fd7>
     db4:	00e00e13          	li	t3,14
     db8:	27d19863          	bne	gp,t4,1028 <fail>

00000dbc <test_15>:
     dbc:	00000213          	li	tp,0
     dc0:	ff0100b7          	lui	ra,0xff010
     dc4:	f0008093          	add	ra,ra,-256 # ff00ff00 <tdat10+0xff007ec8>
     dc8:	00000013          	nop
     dcc:	0f0f1137          	lui	sp,0xf0f1
     dd0:	f0f10113          	add	sp,sp,-241 # f0f0f0f <tdat10+0xf0e8ed7>
     dd4:	0020f1b3          	and	gp,ra,sp
     dd8:	00120213          	add	tp,tp,1 # 1 <_start+0x1>
     ddc:	00200293          	li	t0,2
     de0:	fe5210e3          	bne	tp,t0,dc0 <test_15+0x4>
     de4:	0f001eb7          	lui	t4,0xf001
     de8:	f00e8e93          	add	t4,t4,-256 # f000f00 <tdat10+0xeff8ec8>
     dec:	00f00e13          	li	t3,15
     df0:	23d19c63          	bne	gp,t4,1028 <fail>

00000df4 <test_16>:
     df4:	00000213          	li	tp,0
     df8:	0ff010b7          	lui	ra,0xff01
     dfc:	ff008093          	add	ra,ra,-16 # ff00ff0 <tdat10+0xfef8fb8>
     e00:	00000013          	nop
     e04:	f0f0f137          	lui	sp,0xf0f0f
     e08:	0f010113          	add	sp,sp,240 # f0f0f0f0 <tdat10+0xf0f070b8>
     e0c:	00000013          	nop
     e10:	0020f1b3          	and	gp,ra,sp
     e14:	00120213          	add	tp,tp,1 # 1 <_start+0x1>
     e18:	00200293          	li	t0,2
     e1c:	fc521ee3          	bne	tp,t0,df8 <test_16+0x4>
     e20:	00f00eb7          	lui	t4,0xf00
     e24:	0f0e8e93          	add	t4,t4,240 # f000f0 <tdat10+0xef80b8>
     e28:	01000e13          	li	t3,16
     e2c:	1fd19e63          	bne	gp,t4,1028 <fail>

00000e30 <test_17>:
     e30:	00000213          	li	tp,0
     e34:	00ff00b7          	lui	ra,0xff0
     e38:	0ff08093          	add	ra,ra,255 # ff00ff <tdat10+0xfe80c7>
     e3c:	00000013          	nop
     e40:	00000013          	nop
     e44:	0f0f1137          	lui	sp,0xf0f1
     e48:	f0f10113          	add	sp,sp,-241 # f0f0f0f <tdat10+0xf0e8ed7>
     e4c:	0020f1b3          	and	gp,ra,sp
     e50:	00120213          	add	tp,tp,1 # 1 <_start+0x1>
     e54:	00200293          	li	t0,2
     e58:	fc521ee3          	bne	tp,t0,e34 <test_17+0x4>
     e5c:	000f0eb7          	lui	t4,0xf0
     e60:	00fe8e93          	add	t4,t4,15 # f000f <tdat10+0xe7fd7>
     e64:	01100e13          	li	t3,17
     e68:	1dd19063          	bne	gp,t4,1028 <fail>

00000e6c <test_18>:
     e6c:	00000213          	li	tp,0
     e70:	0f0f1137          	lui	sp,0xf0f1
     e74:	f0f10113          	add	sp,sp,-241 # f0f0f0f <tdat10+0xf0e8ed7>
     e78:	ff0100b7          	lui	ra,0xff010
     e7c:	f0008093          	add	ra,ra,-256 # ff00ff00 <tdat10+0xff007ec8>
     e80:	0020f1b3          	and	gp,ra,sp
     e84:	00120213          	add	tp,tp,1 # 1 <_start+0x1>
     e88:	00200293          	li	t0,2
     e8c:	fe5212e3          	bne	tp,t0,e70 <test_18+0x4>
     e90:	0f001eb7          	lui	t4,0xf001
     e94:	f00e8e93          	add	t4,t4,-256 # f000f00 <tdat10+0xeff8ec8>
     e98:	01200e13          	li	t3,18
     e9c:	19d19663          	bne	gp,t4,1028 <fail>

00000ea0 <test_19>:
     ea0:	00000213          	li	tp,0
     ea4:	f0f0f137          	lui	sp,0xf0f0f
     ea8:	0f010113          	add	sp,sp,240 # f0f0f0f0 <tdat10+0xf0f070b8>
     eac:	0ff010b7          	lui	ra,0xff01
     eb0:	ff008093          	add	ra,ra,-16 # ff00ff0 <tdat10+0xfef8fb8>
     eb4:	00000013          	nop
     eb8:	0020f1b3          	and	gp,ra,sp
     ebc:	00120213          	add	tp,tp,1 # 1 <_start+0x1>
     ec0:	00200293          	li	t0,2
     ec4:	fe5210e3          	bne	tp,t0,ea4 <test_19+0x4>
     ec8:	00f00eb7          	lui	t4,0xf00
     ecc:	0f0e8e93          	add	t4,t4,240 # f000f0 <tdat10+0xef80b8>
     ed0:	01300e13          	li	t3,19
     ed4:	15d19a63          	bne	gp,t4,1028 <fail>

00000ed8 <test_20>:
     ed8:	00000213          	li	tp,0
     edc:	0f0f1137          	lui	sp,0xf0f1
     ee0:	f0f10113          	add	sp,sp,-241 # f0f0f0f <tdat10+0xf0e8ed7>
     ee4:	00ff00b7          	lui	ra,0xff0
     ee8:	0ff08093          	add	ra,ra,255 # ff00ff <tdat10+0xfe80c7>
     eec:	00000013          	nop
     ef0:	00000013          	nop
     ef4:	0020f1b3          	and	gp,ra,sp
     ef8:	00120213          	add	tp,tp,1 # 1 <_start+0x1>
     efc:	00200293          	li	t0,2
     f00:	fc521ee3          	bne	tp,t0,edc <test_20+0x4>
     f04:	000f0eb7          	lui	t4,0xf0
     f08:	00fe8e93          	add	t4,t4,15 # f000f <tdat10+0xe7fd7>
     f0c:	01400e13          	li	t3,20
     f10:	11d19c63          	bne	gp,t4,1028 <fail>

00000f14 <test_21>:
     f14:	00000213          	li	tp,0
     f18:	0f0f1137          	lui	sp,0xf0f1
     f1c:	f0f10113          	add	sp,sp,-241 # f0f0f0f <tdat10+0xf0e8ed7>
     f20:	00000013          	nop
     f24:	ff0100b7          	lui	ra,0xff010
     f28:	f0008093          	add	ra,ra,-256 # ff00ff00 <tdat10+0xff007ec8>
     f2c:	0020f1b3          	and	gp,ra,sp
     f30:	00120213          	add	tp,tp,1 # 1 <_start+0x1>
     f34:	00200293          	li	t0,2
     f38:	fe5210e3          	bne	tp,t0,f18 <test_21+0x4>
     f3c:	0f001eb7          	lui	t4,0xf001
     f40:	f00e8e93          	add	t4,t4,-256 # f000f00 <tdat10+0xeff8ec8>
     f44:	01500e13          	li	t3,21
     f48:	0fd19063          	bne	gp,t4,1028 <fail>

00000f4c <test_22>:
     f4c:	00000213          	li	tp,0
     f50:	f0f0f137          	lui	sp,0xf0f0f
     f54:	0f010113          	add	sp,sp,240 # f0f0f0f0 <tdat10+0xf0f070b8>
     f58:	00000013          	nop
     f5c:	0ff010b7          	lui	ra,0xff01
     f60:	ff008093          	add	ra,ra,-16 # ff00ff0 <tdat10+0xfef8fb8>
     f64:	00000013          	nop
     f68:	0020f1b3          	and	gp,ra,sp
     f6c:	00120213          	add	tp,tp,1 # 1 <_start+0x1>
     f70:	00200293          	li	t0,2
     f74:	fc521ee3          	bne	tp,t0,f50 <test_22+0x4>
     f78:	00f00eb7          	lui	t4,0xf00
     f7c:	0f0e8e93          	add	t4,t4,240 # f000f0 <tdat10+0xef80b8>
     f80:	01600e13          	li	t3,22
     f84:	0bd19263          	bne	gp,t4,1028 <fail>

00000f88 <test_23>:
     f88:	00000213          	li	tp,0
     f8c:	0f0f1137          	lui	sp,0xf0f1
     f90:	f0f10113          	add	sp,sp,-241 # f0f0f0f <tdat10+0xf0e8ed7>
     f94:	00000013          	nop
     f98:	00000013          	nop
     f9c:	00ff00b7          	lui	ra,0xff0
     fa0:	0ff08093          	add	ra,ra,255 # ff00ff <tdat10+0xfe80c7>
     fa4:	0020f1b3          	and	gp,ra,sp
     fa8:	00120213          	add	tp,tp,1 # 1 <_start+0x1>
     fac:	00200293          	li	t0,2
     fb0:	fc521ee3          	bne	tp,t0,f8c <test_23+0x4>
     fb4:	000f0eb7          	lui	t4,0xf0
     fb8:	00fe8e93          	add	t4,t4,15 # f000f <tdat10+0xe7fd7>
     fbc:	01700e13          	li	t3,23
     fc0:	07d19463          	bne	gp,t4,1028 <fail>

00000fc4 <test_24>:
     fc4:	ff0100b7          	lui	ra,0xff010
     fc8:	f0008093          	add	ra,ra,-256 # ff00ff00 <tdat10+0xff007ec8>
     fcc:	00107133          	and	sp,zero,ra
     fd0:	00000e93          	li	t4,0
     fd4:	01800e13          	li	t3,24
     fd8:	05d11863          	bne	sp,t4,1028 <fail>

00000fdc <test_25>:
     fdc:	00ff00b7          	lui	ra,0xff0
     fe0:	0ff08093          	add	ra,ra,255 # ff00ff <tdat10+0xfe80c7>
     fe4:	0000f133          	and	sp,ra,zero
     fe8:	00000e93          	li	t4,0
     fec:	01900e13          	li	t3,25
     ff0:	03d11c63          	bne	sp,t4,1028 <fail>

00000ff4 <test_26>:
     ff4:	000070b3          	and	ra,zero,zero
     ff8:	00000e93          	li	t4,0
     ffc:	01a00e13          	li	t3,26
    1000:	03d09463          	bne	ra,t4,1028 <fail>

00001004 <test_27>:
    1004:	111110b7          	lui	ra,0x11111
    1008:	11108093          	add	ra,ra,273 # 11111111 <tdat10+0x111090d9>
    100c:	22222137          	lui	sp,0x22222
    1010:	22210113          	add	sp,sp,546 # 22222222 <tdat10+0x2221a1ea>
    1014:	0020f033          	and	zero,ra,sp
    1018:	00000e93          	li	t4,0
    101c:	01b00e13          	li	t3,27
    1020:	01d01463          	bne	zero,t4,1028 <fail>
    1024:	03c01a63          	bne	zero,t3,1058 <pass>

00001028 <fail>:
    1028:	10000537          	lui	a0,0x10000
    102c:	04500593          	li	a1,69
    1030:	05200613          	li	a2,82
    1034:	04f00693          	li	a3,79
    1038:	00a00713          	li	a4,10
    103c:	00b52023          	sw	a1,0(a0) # 10000000 <tdat10+0xfff7fc8>
    1040:	00c52023          	sw	a2,0(a0)
    1044:	00c52023          	sw	a2,0(a0)
    1048:	00d52023          	sw	a3,0(a0)
    104c:	00c52023          	sw	a2,0(a0)
    1050:	00e52023          	sw	a4,0(a0)
    1054:	00100073          	ebreak

00001058 <pass>:
    1058:	10000537          	lui	a0,0x10000
    105c:	04f00593          	li	a1,79
    1060:	04b00613          	li	a2,75
    1064:	00a00693          	li	a3,10
    1068:	00b52023          	sw	a1,0(a0) # 10000000 <tdat10+0xfff7fc8>
    106c:	00c52023          	sw	a2,0(a0)
    1070:	00d52023          	sw	a3,0(a0)
    1074:	820ff06f          	j	94 <and_ret>

00001078 <auipc>:
    1078:	00001537          	lui	a0,0x1
    107c:	09850513          	add	a0,a0,152 # 1098 <.test_name>
    1080:	10000637          	lui	a2,0x10000

00001084 <.prname_next>:
    1084:	00050583          	lb	a1,0(a0)
    1088:	00058c63          	beqz	a1,10a0 <.prname_done>
    108c:	00b62023          	sw	a1,0(a2) # 10000000 <tdat10+0xfff7fc8>
    1090:	00150513          	add	a0,a0,1
    1094:	ff1ff06f          	j	1084 <.prname_next>

00001098 <.test_name>:
    1098:	7561                	.2byte	0x7561
    109a:	7069                	.2byte	0x7069
    109c:	00000063          	beqz	zero,109c <.test_name+0x4>

000010a0 <.prname_done>:
    10a0:	02e00593          	li	a1,46
    10a4:	00b62023          	sw	a1,0(a2)
    10a8:	00b62023          	sw	a1,0(a2)

000010ac <test_2>:
    10ac:	00000013          	nop
    10b0:	00002517          	auipc	a0,0x2
    10b4:	71c50513          	add	a0,a0,1820 # 37cc <test_17+0x10>
    10b8:	004005ef          	jal	a1,10bc <test_2+0x10>
    10bc:	40b50533          	sub	a0,a0,a1
    10c0:	00002eb7          	lui	t4,0x2
    10c4:	710e8e93          	add	t4,t4,1808 # 2710 <test_7+0x1c>
    10c8:	00200e13          	li	t3,2
    10cc:	03d51463          	bne	a0,t4,10f4 <fail>

000010d0 <test_3>:
    10d0:	ffffe517          	auipc	a0,0xffffe
    10d4:	8fc50513          	add	a0,a0,-1796 # ffffe9cc <tdat10+0xffff6994>
    10d8:	004005ef          	jal	a1,10dc <test_3+0xc>
    10dc:	40b50533          	sub	a0,a0,a1
    10e0:	ffffeeb7          	lui	t4,0xffffe
    10e4:	8f0e8e93          	add	t4,t4,-1808 # ffffd8f0 <tdat10+0xffff58b8>
    10e8:	00300e13          	li	t3,3
    10ec:	01d51463          	bne	a0,t4,10f4 <fail>
    10f0:	03c01a63          	bne	zero,t3,1124 <pass>

000010f4 <fail>:
    10f4:	10000537          	lui	a0,0x10000
    10f8:	04500593          	li	a1,69
    10fc:	05200613          	li	a2,82
    1100:	04f00693          	li	a3,79
    1104:	00a00713          	li	a4,10
    1108:	00b52023          	sw	a1,0(a0) # 10000000 <tdat10+0xfff7fc8>
    110c:	00c52023          	sw	a2,0(a0)
    1110:	00c52023          	sw	a2,0(a0)
    1114:	00d52023          	sw	a3,0(a0)
    1118:	00c52023          	sw	a2,0(a0)
    111c:	00e52023          	sw	a4,0(a0)
    1120:	00100073          	ebreak

00001124 <pass>:
    1124:	10000537          	lui	a0,0x10000
    1128:	04f00593          	li	a1,79
    112c:	04b00613          	li	a2,75
    1130:	00a00693          	li	a3,10
    1134:	00b52023          	sw	a1,0(a0) # 10000000 <tdat10+0xfff7fc8>
    1138:	00c52023          	sw	a2,0(a0)
    113c:	00d52023          	sw	a3,0(a0)
    1140:	ecdfe06f          	j	c <auipc_ret>

00001144 <beq>:
    1144:	00001537          	lui	a0,0x1
    1148:	16450513          	add	a0,a0,356 # 1164 <.test_name>
    114c:	10000637          	lui	a2,0x10000

00001150 <.prname_next>:
    1150:	00050583          	lb	a1,0(a0)
    1154:	00058a63          	beqz	a1,1168 <.prname_done>
    1158:	00b62023          	sw	a1,0(a2) # 10000000 <tdat10+0xfff7fc8>
    115c:	00150513          	add	a0,a0,1
    1160:	ff1ff06f          	j	1150 <.prname_next>

00001164 <.test_name>:
    1164:	6562                	.2byte	0x6562
    1166:	0071                	.2byte	0x71

00001168 <.prname_done>:
    1168:	02e00593          	li	a1,46
    116c:	00b62023          	sw	a1,0(a2)
    1170:	00b62023          	sw	a1,0(a2)

00001174 <test_2>:
    1174:	00200e13          	li	t3,2
    1178:	00000093          	li	ra,0
    117c:	00000113          	li	sp,0
    1180:	00208663          	beq	ra,sp,118c <test_2+0x18>
    1184:	2bc01863          	bne	zero,t3,1434 <fail>
    1188:	01c01663          	bne	zero,t3,1194 <test_3>
    118c:	fe208ee3          	beq	ra,sp,1188 <test_2+0x14>
    1190:	2bc01263          	bne	zero,t3,1434 <fail>

00001194 <test_3>:
    1194:	00300e13          	li	t3,3
    1198:	00100093          	li	ra,1
    119c:	00100113          	li	sp,1
    11a0:	00208663          	beq	ra,sp,11ac <test_3+0x18>
    11a4:	29c01863          	bne	zero,t3,1434 <fail>
    11a8:	01c01663          	bne	zero,t3,11b4 <test_4>
    11ac:	fe208ee3          	beq	ra,sp,11a8 <test_3+0x14>
    11b0:	29c01263          	bne	zero,t3,1434 <fail>

000011b4 <test_4>:
    11b4:	00400e13          	li	t3,4
    11b8:	fff00093          	li	ra,-1
    11bc:	fff00113          	li	sp,-1
    11c0:	00208663          	beq	ra,sp,11cc <test_4+0x18>
    11c4:	27c01863          	bne	zero,t3,1434 <fail>
    11c8:	01c01663          	bne	zero,t3,11d4 <test_5>
    11cc:	fe208ee3          	beq	ra,sp,11c8 <test_4+0x14>
    11d0:	27c01263          	bne	zero,t3,1434 <fail>

000011d4 <test_5>:
    11d4:	00500e13          	li	t3,5
    11d8:	00000093          	li	ra,0
    11dc:	00100113          	li	sp,1
    11e0:	00208463          	beq	ra,sp,11e8 <test_5+0x14>
    11e4:	01c01463          	bne	zero,t3,11ec <test_5+0x18>
    11e8:	25c01663          	bne	zero,t3,1434 <fail>
    11ec:	fe208ee3          	beq	ra,sp,11e8 <test_5+0x14>

000011f0 <test_6>:
    11f0:	00600e13          	li	t3,6
    11f4:	00100093          	li	ra,1
    11f8:	00000113          	li	sp,0
    11fc:	00208463          	beq	ra,sp,1204 <test_6+0x14>
    1200:	01c01463          	bne	zero,t3,1208 <test_6+0x18>
    1204:	23c01863          	bne	zero,t3,1434 <fail>
    1208:	fe208ee3          	beq	ra,sp,1204 <test_6+0x14>

0000120c <test_7>:
    120c:	00700e13          	li	t3,7
    1210:	fff00093          	li	ra,-1
    1214:	00100113          	li	sp,1
    1218:	00208463          	beq	ra,sp,1220 <test_7+0x14>
    121c:	01c01463          	bne	zero,t3,1224 <test_7+0x18>
    1220:	21c01a63          	bne	zero,t3,1434 <fail>
    1224:	fe208ee3          	beq	ra,sp,1220 <test_7+0x14>

00001228 <test_8>:
    1228:	00800e13          	li	t3,8
    122c:	00100093          	li	ra,1
    1230:	fff00113          	li	sp,-1
    1234:	00208463          	beq	ra,sp,123c <test_8+0x14>
    1238:	01c01463          	bne	zero,t3,1240 <test_8+0x18>
    123c:	1fc01c63          	bne	zero,t3,1434 <fail>
    1240:	fe208ee3          	beq	ra,sp,123c <test_8+0x14>

00001244 <test_9>:
    1244:	00900e13          	li	t3,9
    1248:	00000213          	li	tp,0
    124c:	00000093          	li	ra,0
    1250:	fff00113          	li	sp,-1
    1254:	1e208063          	beq	ra,sp,1434 <fail>
    1258:	00120213          	add	tp,tp,1 # 1 <_start+0x1>
    125c:	00200293          	li	t0,2
    1260:	fe5216e3          	bne	tp,t0,124c <test_9+0x8>

00001264 <test_10>:
    1264:	00a00e13          	li	t3,10
    1268:	00000213          	li	tp,0
    126c:	00000093          	li	ra,0
    1270:	fff00113          	li	sp,-1
    1274:	00000013          	nop
    1278:	1a208e63          	beq	ra,sp,1434 <fail>
    127c:	00120213          	add	tp,tp,1 # 1 <_start+0x1>
    1280:	00200293          	li	t0,2
    1284:	fe5214e3          	bne	tp,t0,126c <test_10+0x8>

00001288 <test_11>:
    1288:	00b00e13          	li	t3,11
    128c:	00000213          	li	tp,0
    1290:	00000093          	li	ra,0
    1294:	fff00113          	li	sp,-1
    1298:	00000013          	nop
    129c:	00000013          	nop
    12a0:	18208a63          	beq	ra,sp,1434 <fail>
    12a4:	00120213          	add	tp,tp,1 # 1 <_start+0x1>
    12a8:	00200293          	li	t0,2
    12ac:	fe5212e3          	bne	tp,t0,1290 <test_11+0x8>

000012b0 <test_12>:
    12b0:	00c00e13          	li	t3,12
    12b4:	00000213          	li	tp,0
    12b8:	00000093          	li	ra,0
    12bc:	00000013          	nop
    12c0:	fff00113          	li	sp,-1
    12c4:	16208863          	beq	ra,sp,1434 <fail>
    12c8:	00120213          	add	tp,tp,1 # 1 <_start+0x1>
    12cc:	00200293          	li	t0,2
    12d0:	fe5214e3          	bne	tp,t0,12b8 <test_12+0x8>

000012d4 <test_13>:
    12d4:	00d00e13          	li	t3,13
    12d8:	00000213          	li	tp,0
    12dc:	00000093          	li	ra,0
    12e0:	00000013          	nop
    12e4:	fff00113          	li	sp,-1
    12e8:	00000013          	nop
    12ec:	14208463          	beq	ra,sp,1434 <fail>
    12f0:	00120213          	add	tp,tp,1 # 1 <_start+0x1>
    12f4:	00200293          	li	t0,2
    12f8:	fe5212e3          	bne	tp,t0,12dc <test_13+0x8>

000012fc <test_14>:
    12fc:	00e00e13          	li	t3,14
    1300:	00000213          	li	tp,0
    1304:	00000093          	li	ra,0
    1308:	00000013          	nop
    130c:	00000013          	nop
    1310:	fff00113          	li	sp,-1
    1314:	12208063          	beq	ra,sp,1434 <fail>
    1318:	00120213          	add	tp,tp,1 # 1 <_start+0x1>
    131c:	00200293          	li	t0,2
    1320:	fe5212e3          	bne	tp,t0,1304 <test_14+0x8>

00001324 <test_15>:
    1324:	00f00e13          	li	t3,15
    1328:	00000213          	li	tp,0
    132c:	00000093          	li	ra,0
    1330:	fff00113          	li	sp,-1
    1334:	10208063          	beq	ra,sp,1434 <fail>
    1338:	00120213          	add	tp,tp,1 # 1 <_start+0x1>
    133c:	00200293          	li	t0,2
    1340:	fe5216e3          	bne	tp,t0,132c <test_15+0x8>

00001344 <test_16>:
    1344:	01000e13          	li	t3,16
    1348:	00000213          	li	tp,0
    134c:	00000093          	li	ra,0
    1350:	fff00113          	li	sp,-1
    1354:	00000013          	nop
    1358:	0c208e63          	beq	ra,sp,1434 <fail>
    135c:	00120213          	add	tp,tp,1 # 1 <_start+0x1>
    1360:	00200293          	li	t0,2
    1364:	fe5214e3          	bne	tp,t0,134c <test_16+0x8>

00001368 <test_17>:
    1368:	01100e13          	li	t3,17
    136c:	00000213          	li	tp,0
    1370:	00000093          	li	ra,0
    1374:	fff00113          	li	sp,-1
    1378:	00000013          	nop
    137c:	00000013          	nop
    1380:	0a208a63          	beq	ra,sp,1434 <fail>
    1384:	00120213          	add	tp,tp,1 # 1 <_start+0x1>
    1388:	00200293          	li	t0,2
    138c:	fe5212e3          	bne	tp,t0,1370 <test_17+0x8>

00001390 <test_18>:
    1390:	01200e13          	li	t3,18
    1394:	00000213          	li	tp,0
    1398:	00000093          	li	ra,0
    139c:	00000013          	nop
    13a0:	fff00113          	li	sp,-1
    13a4:	08208863          	beq	ra,sp,1434 <fail>
    13a8:	00120213          	add	tp,tp,1 # 1 <_start+0x1>
    13ac:	00200293          	li	t0,2
    13b0:	fe5214e3          	bne	tp,t0,1398 <test_18+0x8>

000013b4 <test_19>:
    13b4:	01300e13          	li	t3,19
    13b8:	00000213          	li	tp,0
    13bc:	00000093          	li	ra,0
    13c0:	00000013          	nop
    13c4:	fff00113          	li	sp,-1
    13c8:	00000013          	nop
    13cc:	06208463          	beq	ra,sp,1434 <fail>
    13d0:	00120213          	add	tp,tp,1 # 1 <_start+0x1>
    13d4:	00200293          	li	t0,2
    13d8:	fe5212e3          	bne	tp,t0,13bc <test_19+0x8>

000013dc <test_20>:
    13dc:	01400e13          	li	t3,20
    13e0:	00000213          	li	tp,0
    13e4:	00000093          	li	ra,0
    13e8:	00000013          	nop
    13ec:	00000013          	nop
    13f0:	fff00113          	li	sp,-1
    13f4:	04208063          	beq	ra,sp,1434 <fail>
    13f8:	00120213          	add	tp,tp,1 # 1 <_start+0x1>
    13fc:	00200293          	li	t0,2
    1400:	fe5212e3          	bne	tp,t0,13e4 <test_20+0x8>

00001404 <test_21>:
    1404:	00100093          	li	ra,1
    1408:	00000a63          	beqz	zero,141c <test_21+0x18>
    140c:	00108093          	add	ra,ra,1
    1410:	00108093          	add	ra,ra,1
    1414:	00108093          	add	ra,ra,1
    1418:	00108093          	add	ra,ra,1
    141c:	00108093          	add	ra,ra,1
    1420:	00108093          	add	ra,ra,1
    1424:	00300e93          	li	t4,3
    1428:	01500e13          	li	t3,21
    142c:	01d09463          	bne	ra,t4,1434 <fail>
    1430:	03c01a63          	bne	zero,t3,1464 <pass>

00001434 <fail>:
    1434:	10000537          	lui	a0,0x10000
    1438:	04500593          	li	a1,69
    143c:	05200613          	li	a2,82
    1440:	04f00693          	li	a3,79
    1444:	00a00713          	li	a4,10
    1448:	00b52023          	sw	a1,0(a0) # 10000000 <tdat10+0xfff7fc8>
    144c:	00c52023          	sw	a2,0(a0)
    1450:	00c52023          	sw	a2,0(a0)
    1454:	00d52023          	sw	a3,0(a0)
    1458:	00c52023          	sw	a2,0(a0)
    145c:	00e52023          	sw	a4,0(a0)
    1460:	00100073          	ebreak

00001464 <pass>:
    1464:	10000537          	lui	a0,0x10000
    1468:	04f00593          	li	a1,79
    146c:	04b00613          	li	a2,75
    1470:	00a00693          	li	a3,10
    1474:	00b52023          	sw	a1,0(a0) # 10000000 <tdat10+0xfff7fc8>
    1478:	00c52023          	sw	a2,0(a0)
    147c:	00d52023          	sw	a3,0(a0)
    1480:	b9dfe06f          	j	1c <beq_ret>

00001484 <bge>:
    1484:	00001537          	lui	a0,0x1
    1488:	4a450513          	add	a0,a0,1188 # 14a4 <.test_name>
    148c:	10000637          	lui	a2,0x10000

00001490 <.prname_next>:
    1490:	00050583          	lb	a1,0(a0)
    1494:	00058a63          	beqz	a1,14a8 <.prname_done>
    1498:	00b62023          	sw	a1,0(a2) # 10000000 <tdat10+0xfff7fc8>
    149c:	00150513          	add	a0,a0,1
    14a0:	ff1ff06f          	j	1490 <.prname_next>

000014a4 <.test_name>:
    14a4:	6762                	.2byte	0x6762
    14a6:	0065                	.2byte	0x65

000014a8 <.prname_done>:
    14a8:	02e00593          	li	a1,46
    14ac:	00b62023          	sw	a1,0(a2)
    14b0:	00b62023          	sw	a1,0(a2)

000014b4 <test_2>:
    14b4:	00200e13          	li	t3,2
    14b8:	00000093          	li	ra,0
    14bc:	00000113          	li	sp,0
    14c0:	0020d663          	bge	ra,sp,14cc <test_2+0x18>
    14c4:	31c01863          	bne	zero,t3,17d4 <fail>
    14c8:	01c01663          	bne	zero,t3,14d4 <test_3>
    14cc:	fe20dee3          	bge	ra,sp,14c8 <test_2+0x14>
    14d0:	31c01263          	bne	zero,t3,17d4 <fail>

000014d4 <test_3>:
    14d4:	00300e13          	li	t3,3
    14d8:	00100093          	li	ra,1
    14dc:	00100113          	li	sp,1
    14e0:	0020d663          	bge	ra,sp,14ec <test_3+0x18>
    14e4:	2fc01863          	bne	zero,t3,17d4 <fail>
    14e8:	01c01663          	bne	zero,t3,14f4 <test_4>
    14ec:	fe20dee3          	bge	ra,sp,14e8 <test_3+0x14>
    14f0:	2fc01263          	bne	zero,t3,17d4 <fail>

000014f4 <test_4>:
    14f4:	00400e13          	li	t3,4
    14f8:	fff00093          	li	ra,-1
    14fc:	fff00113          	li	sp,-1
    1500:	0020d663          	bge	ra,sp,150c <test_4+0x18>
    1504:	2dc01863          	bne	zero,t3,17d4 <fail>
    1508:	01c01663          	bne	zero,t3,1514 <test_5>
    150c:	fe20dee3          	bge	ra,sp,1508 <test_4+0x14>
    1510:	2dc01263          	bne	zero,t3,17d4 <fail>

00001514 <test_5>:
    1514:	00500e13          	li	t3,5
    1518:	00100093          	li	ra,1
    151c:	00000113          	li	sp,0
    1520:	0020d663          	bge	ra,sp,152c <test_5+0x18>
    1524:	2bc01863          	bne	zero,t3,17d4 <fail>
    1528:	01c01663          	bne	zero,t3,1534 <test_6>
    152c:	fe20dee3          	bge	ra,sp,1528 <test_5+0x14>
    1530:	2bc01263          	bne	zero,t3,17d4 <fail>

00001534 <test_6>:
    1534:	00600e13          	li	t3,6
    1538:	00100093          	li	ra,1
    153c:	fff00113          	li	sp,-1
    1540:	0020d663          	bge	ra,sp,154c <test_6+0x18>
    1544:	29c01863          	bne	zero,t3,17d4 <fail>
    1548:	01c01663          	bne	zero,t3,1554 <test_7>
    154c:	fe20dee3          	bge	ra,sp,1548 <test_6+0x14>
    1550:	29c01263          	bne	zero,t3,17d4 <fail>

00001554 <test_7>:
    1554:	00700e13          	li	t3,7
    1558:	fff00093          	li	ra,-1
    155c:	ffe00113          	li	sp,-2
    1560:	0020d663          	bge	ra,sp,156c <test_7+0x18>
    1564:	27c01863          	bne	zero,t3,17d4 <fail>
    1568:	01c01663          	bne	zero,t3,1574 <test_8>
    156c:	fe20dee3          	bge	ra,sp,1568 <test_7+0x14>
    1570:	27c01263          	bne	zero,t3,17d4 <fail>

00001574 <test_8>:
    1574:	00800e13          	li	t3,8
    1578:	00000093          	li	ra,0
    157c:	00100113          	li	sp,1
    1580:	0020d463          	bge	ra,sp,1588 <test_8+0x14>
    1584:	01c01463          	bne	zero,t3,158c <test_8+0x18>
    1588:	25c01663          	bne	zero,t3,17d4 <fail>
    158c:	fe20dee3          	bge	ra,sp,1588 <test_8+0x14>

00001590 <test_9>:
    1590:	00900e13          	li	t3,9
    1594:	fff00093          	li	ra,-1
    1598:	00100113          	li	sp,1
    159c:	0020d463          	bge	ra,sp,15a4 <test_9+0x14>
    15a0:	01c01463          	bne	zero,t3,15a8 <test_9+0x18>
    15a4:	23c01863          	bne	zero,t3,17d4 <fail>
    15a8:	fe20dee3          	bge	ra,sp,15a4 <test_9+0x14>

000015ac <test_10>:
    15ac:	00a00e13          	li	t3,10
    15b0:	ffe00093          	li	ra,-2
    15b4:	fff00113          	li	sp,-1
    15b8:	0020d463          	bge	ra,sp,15c0 <test_10+0x14>
    15bc:	01c01463          	bne	zero,t3,15c4 <test_10+0x18>
    15c0:	21c01a63          	bne	zero,t3,17d4 <fail>
    15c4:	fe20dee3          	bge	ra,sp,15c0 <test_10+0x14>

000015c8 <test_11>:
    15c8:	00b00e13          	li	t3,11
    15cc:	ffe00093          	li	ra,-2
    15d0:	00100113          	li	sp,1
    15d4:	0020d463          	bge	ra,sp,15dc <test_11+0x14>
    15d8:	01c01463          	bne	zero,t3,15e0 <test_11+0x18>
    15dc:	1fc01c63          	bne	zero,t3,17d4 <fail>
    15e0:	fe20dee3          	bge	ra,sp,15dc <test_11+0x14>

000015e4 <test_12>:
    15e4:	00c00e13          	li	t3,12
    15e8:	00000213          	li	tp,0
    15ec:	fff00093          	li	ra,-1
    15f0:	00000113          	li	sp,0
    15f4:	1e20d063          	bge	ra,sp,17d4 <fail>
    15f8:	00120213          	add	tp,tp,1 # 1 <_start+0x1>
    15fc:	00200293          	li	t0,2
    1600:	fe5216e3          	bne	tp,t0,15ec <test_12+0x8>

00001604 <test_13>:
    1604:	00d00e13          	li	t3,13
    1608:	00000213          	li	tp,0
    160c:	fff00093          	li	ra,-1
    1610:	00000113          	li	sp,0
    1614:	00000013          	nop
    1618:	1a20de63          	bge	ra,sp,17d4 <fail>
    161c:	00120213          	add	tp,tp,1 # 1 <_start+0x1>
    1620:	00200293          	li	t0,2
    1624:	fe5214e3          	bne	tp,t0,160c <test_13+0x8>

00001628 <test_14>:
    1628:	00e00e13          	li	t3,14
    162c:	00000213          	li	tp,0
    1630:	fff00093          	li	ra,-1
    1634:	00000113          	li	sp,0
    1638:	00000013          	nop
    163c:	00000013          	nop
    1640:	1820da63          	bge	ra,sp,17d4 <fail>
    1644:	00120213          	add	tp,tp,1 # 1 <_start+0x1>
    1648:	00200293          	li	t0,2
    164c:	fe5212e3          	bne	tp,t0,1630 <test_14+0x8>

00001650 <test_15>:
    1650:	00f00e13          	li	t3,15
    1654:	00000213          	li	tp,0
    1658:	fff00093          	li	ra,-1
    165c:	00000013          	nop
    1660:	00000113          	li	sp,0
    1664:	1620d863          	bge	ra,sp,17d4 <fail>
    1668:	00120213          	add	tp,tp,1 # 1 <_start+0x1>
    166c:	00200293          	li	t0,2
    1670:	fe5214e3          	bne	tp,t0,1658 <test_15+0x8>

00001674 <test_16>:
    1674:	01000e13          	li	t3,16
    1678:	00000213          	li	tp,0
    167c:	fff00093          	li	ra,-1
    1680:	00000013          	nop
    1684:	00000113          	li	sp,0
    1688:	00000013          	nop
    168c:	1420d463          	bge	ra,sp,17d4 <fail>
    1690:	00120213          	add	tp,tp,1 # 1 <_start+0x1>
    1694:	00200293          	li	t0,2
    1698:	fe5212e3          	bne	tp,t0,167c <test_16+0x8>

0000169c <test_17>:
    169c:	01100e13          	li	t3,17
    16a0:	00000213          	li	tp,0
    16a4:	fff00093          	li	ra,-1
    16a8:	00000013          	nop
    16ac:	00000013          	nop
    16b0:	00000113          	li	sp,0
    16b4:	1220d063          	bge	ra,sp,17d4 <fail>
    16b8:	00120213          	add	tp,tp,1 # 1 <_start+0x1>
    16bc:	00200293          	li	t0,2
    16c0:	fe5212e3          	bne	tp,t0,16a4 <test_17+0x8>

000016c4 <test_18>:
    16c4:	01200e13          	li	t3,18
    16c8:	00000213          	li	tp,0
    16cc:	fff00093          	li	ra,-1
    16d0:	00000113          	li	sp,0
    16d4:	1020d063          	bge	ra,sp,17d4 <fail>
    16d8:	00120213          	add	tp,tp,1 # 1 <_start+0x1>
    16dc:	00200293          	li	t0,2
    16e0:	fe5216e3          	bne	tp,t0,16cc <test_18+0x8>

000016e4 <test_19>:
    16e4:	01300e13          	li	t3,19
    16e8:	00000213          	li	tp,0
    16ec:	fff00093          	li	ra,-1
    16f0:	00000113          	li	sp,0
    16f4:	00000013          	nop
    16f8:	0c20de63          	bge	ra,sp,17d4 <fail>
    16fc:	00120213          	add	tp,tp,1 # 1 <_start+0x1>
    1700:	00200293          	li	t0,2
    1704:	fe5214e3          	bne	tp,t0,16ec <test_19+0x8>

00001708 <test_20>:
    1708:	01400e13          	li	t3,20
    170c:	00000213          	li	tp,0
    1710:	fff00093          	li	ra,-1
    1714:	00000113          	li	sp,0
    1718:	00000013          	nop
    171c:	00000013          	nop
    1720:	0a20da63          	bge	ra,sp,17d4 <fail>
    1724:	00120213          	add	tp,tp,1 # 1 <_start+0x1>
    1728:	00200293          	li	t0,2
    172c:	fe5212e3          	bne	tp,t0,1710 <test_20+0x8>

00001730 <test_21>:
    1730:	01500e13          	li	t3,21
    1734:	00000213          	li	tp,0
    1738:	fff00093          	li	ra,-1
    173c:	00000013          	nop
    1740:	00000113          	li	sp,0
    1744:	0820d863          	bge	ra,sp,17d4 <fail>
    1748:	00120213          	add	tp,tp,1 # 1 <_start+0x1>
    174c:	00200293          	li	t0,2
    1750:	fe5214e3          	bne	tp,t0,1738 <test_21+0x8>

00001754 <test_22>:
    1754:	01600e13          	li	t3,22
    1758:	00000213          	li	tp,0
    175c:	fff00093          	li	ra,-1
    1760:	00000013          	nop
    1764:	00000113          	li	sp,0
    1768:	00000013          	nop
    176c:	0620d463          	bge	ra,sp,17d4 <fail>
    1770:	00120213          	add	tp,tp,1 # 1 <_start+0x1>
    1774:	00200293          	li	t0,2
    1778:	fe5212e3          	bne	tp,t0,175c <test_22+0x8>

0000177c <test_23>:
    177c:	01700e13          	li	t3,23
    1780:	00000213          	li	tp,0
    1784:	fff00093          	li	ra,-1
    1788:	00000013          	nop
    178c:	00000013          	nop
    1790:	00000113          	li	sp,0
    1794:	0420d063          	bge	ra,sp,17d4 <fail>
    1798:	00120213          	add	tp,tp,1 # 1 <_start+0x1>
    179c:	00200293          	li	t0,2
    17a0:	fe5212e3          	bne	tp,t0,1784 <test_23+0x8>

000017a4 <test_24>:
    17a4:	00100093          	li	ra,1
    17a8:	0000da63          	bgez	ra,17bc <test_24+0x18>
    17ac:	00108093          	add	ra,ra,1
    17b0:	00108093          	add	ra,ra,1
    17b4:	00108093          	add	ra,ra,1
    17b8:	00108093          	add	ra,ra,1
    17bc:	00108093          	add	ra,ra,1
    17c0:	00108093          	add	ra,ra,1
    17c4:	00300e93          	li	t4,3
    17c8:	01800e13          	li	t3,24
    17cc:	01d09463          	bne	ra,t4,17d4 <fail>
    17d0:	03c01a63          	bne	zero,t3,1804 <pass>

000017d4 <fail>:
    17d4:	10000537          	lui	a0,0x10000
    17d8:	04500593          	li	a1,69
    17dc:	05200613          	li	a2,82
    17e0:	04f00693          	li	a3,79
    17e4:	00a00713          	li	a4,10
    17e8:	00b52023          	sw	a1,0(a0) # 10000000 <tdat10+0xfff7fc8>
    17ec:	00c52023          	sw	a2,0(a0)
    17f0:	00c52023          	sw	a2,0(a0)
    17f4:	00d52023          	sw	a3,0(a0)
    17f8:	00c52023          	sw	a2,0(a0)
    17fc:	00e52023          	sw	a4,0(a0)
    1800:	00100073          	ebreak

00001804 <pass>:
    1804:	10000537          	lui	a0,0x10000
    1808:	04f00593          	li	a1,79
    180c:	04b00613          	li	a2,75
    1810:	00a00693          	li	a3,10
    1814:	00b52023          	sw	a1,0(a0) # 10000000 <tdat10+0xfff7fc8>
    1818:	00c52023          	sw	a2,0(a0)
    181c:	00d52023          	sw	a3,0(a0)
    1820:	809fe06f          	j	28 <bge_ret>

00001824 <bgeu>:
    1824:	00002537          	lui	a0,0x2
    1828:	84450513          	add	a0,a0,-1980 # 1844 <.test_name>
    182c:	10000637          	lui	a2,0x10000

00001830 <.prname_next>:
    1830:	00050583          	lb	a1,0(a0)
    1834:	00058c63          	beqz	a1,184c <.prname_done>
    1838:	00b62023          	sw	a1,0(a2) # 10000000 <tdat10+0xfff7fc8>
    183c:	00150513          	add	a0,a0,1
    1840:	ff1ff06f          	j	1830 <.prname_next>

00001844 <.test_name>:
    1844:	6762                	.2byte	0x6762
    1846:	7565                	.2byte	0x7565
    1848:	0000                	.2byte	0x0
	...

0000184c <.prname_done>:
    184c:	02e00593          	li	a1,46
    1850:	00b62023          	sw	a1,0(a2)
    1854:	00b62023          	sw	a1,0(a2)

00001858 <test_2>:
    1858:	00200e13          	li	t3,2
    185c:	00000093          	li	ra,0
    1860:	00000113          	li	sp,0
    1864:	0020f663          	bgeu	ra,sp,1870 <test_2+0x18>
    1868:	35c01263          	bne	zero,t3,1bac <fail>
    186c:	01c01663          	bne	zero,t3,1878 <test_3>
    1870:	fe20fee3          	bgeu	ra,sp,186c <test_2+0x14>
    1874:	33c01c63          	bne	zero,t3,1bac <fail>

00001878 <test_3>:
    1878:	00300e13          	li	t3,3
    187c:	00100093          	li	ra,1
    1880:	00100113          	li	sp,1
    1884:	0020f663          	bgeu	ra,sp,1890 <test_3+0x18>
    1888:	33c01263          	bne	zero,t3,1bac <fail>
    188c:	01c01663          	bne	zero,t3,1898 <test_4>
    1890:	fe20fee3          	bgeu	ra,sp,188c <test_3+0x14>
    1894:	31c01c63          	bne	zero,t3,1bac <fail>

00001898 <test_4>:
    1898:	00400e13          	li	t3,4
    189c:	fff00093          	li	ra,-1
    18a0:	fff00113          	li	sp,-1
    18a4:	0020f663          	bgeu	ra,sp,18b0 <test_4+0x18>
    18a8:	31c01263          	bne	zero,t3,1bac <fail>
    18ac:	01c01663          	bne	zero,t3,18b8 <test_5>
    18b0:	fe20fee3          	bgeu	ra,sp,18ac <test_4+0x14>
    18b4:	2fc01c63          	bne	zero,t3,1bac <fail>

000018b8 <test_5>:
    18b8:	00500e13          	li	t3,5
    18bc:	00100093          	li	ra,1
    18c0:	00000113          	li	sp,0
    18c4:	0020f663          	bgeu	ra,sp,18d0 <test_5+0x18>
    18c8:	2fc01263          	bne	zero,t3,1bac <fail>
    18cc:	01c01663          	bne	zero,t3,18d8 <test_6>
    18d0:	fe20fee3          	bgeu	ra,sp,18cc <test_5+0x14>
    18d4:	2dc01c63          	bne	zero,t3,1bac <fail>

000018d8 <test_6>:
    18d8:	00600e13          	li	t3,6
    18dc:	fff00093          	li	ra,-1
    18e0:	ffe00113          	li	sp,-2
    18e4:	0020f663          	bgeu	ra,sp,18f0 <test_6+0x18>
    18e8:	2dc01263          	bne	zero,t3,1bac <fail>
    18ec:	01c01663          	bne	zero,t3,18f8 <test_7>
    18f0:	fe20fee3          	bgeu	ra,sp,18ec <test_6+0x14>
    18f4:	2bc01c63          	bne	zero,t3,1bac <fail>

000018f8 <test_7>:
    18f8:	00700e13          	li	t3,7
    18fc:	fff00093          	li	ra,-1
    1900:	00000113          	li	sp,0
    1904:	0020f663          	bgeu	ra,sp,1910 <test_7+0x18>
    1908:	2bc01263          	bne	zero,t3,1bac <fail>
    190c:	01c01663          	bne	zero,t3,1918 <test_8>
    1910:	fe20fee3          	bgeu	ra,sp,190c <test_7+0x14>
    1914:	29c01c63          	bne	zero,t3,1bac <fail>

00001918 <test_8>:
    1918:	00800e13          	li	t3,8
    191c:	00000093          	li	ra,0
    1920:	00100113          	li	sp,1
    1924:	0020f463          	bgeu	ra,sp,192c <test_8+0x14>
    1928:	01c01463          	bne	zero,t3,1930 <test_8+0x18>
    192c:	29c01063          	bne	zero,t3,1bac <fail>
    1930:	fe20fee3          	bgeu	ra,sp,192c <test_8+0x14>

00001934 <test_9>:
    1934:	00900e13          	li	t3,9
    1938:	ffe00093          	li	ra,-2
    193c:	fff00113          	li	sp,-1
    1940:	0020f463          	bgeu	ra,sp,1948 <test_9+0x14>
    1944:	01c01463          	bne	zero,t3,194c <test_9+0x18>
    1948:	27c01263          	bne	zero,t3,1bac <fail>
    194c:	fe20fee3          	bgeu	ra,sp,1948 <test_9+0x14>

00001950 <test_10>:
    1950:	00a00e13          	li	t3,10
    1954:	00000093          	li	ra,0
    1958:	fff00113          	li	sp,-1
    195c:	0020f463          	bgeu	ra,sp,1964 <test_10+0x14>
    1960:	01c01463          	bne	zero,t3,1968 <test_10+0x18>
    1964:	25c01463          	bne	zero,t3,1bac <fail>
    1968:	fe20fee3          	bgeu	ra,sp,1964 <test_10+0x14>

0000196c <test_11>:
    196c:	00b00e13          	li	t3,11
    1970:	800000b7          	lui	ra,0x80000
    1974:	fff08093          	add	ra,ra,-1 # 7fffffff <tdat10+0x7fff7fc7>
    1978:	80000137          	lui	sp,0x80000
    197c:	0020f463          	bgeu	ra,sp,1984 <test_11+0x18>
    1980:	01c01463          	bne	zero,t3,1988 <test_11+0x1c>
    1984:	23c01463          	bne	zero,t3,1bac <fail>
    1988:	fe20fee3          	bgeu	ra,sp,1984 <test_11+0x18>

0000198c <test_12>:
    198c:	00c00e13          	li	t3,12
    1990:	00000213          	li	tp,0
    1994:	f00000b7          	lui	ra,0xf0000
    1998:	fff08093          	add	ra,ra,-1 # efffffff <tdat10+0xefff7fc7>
    199c:	f0000137          	lui	sp,0xf0000
    19a0:	2020f663          	bgeu	ra,sp,1bac <fail>
    19a4:	00120213          	add	tp,tp,1 # 1 <_start+0x1>
    19a8:	00200293          	li	t0,2
    19ac:	fe5214e3          	bne	tp,t0,1994 <test_12+0x8>

000019b0 <test_13>:
    19b0:	00d00e13          	li	t3,13
    19b4:	00000213          	li	tp,0
    19b8:	f00000b7          	lui	ra,0xf0000
    19bc:	fff08093          	add	ra,ra,-1 # efffffff <tdat10+0xefff7fc7>
    19c0:	f0000137          	lui	sp,0xf0000
    19c4:	00000013          	nop
    19c8:	1e20f263          	bgeu	ra,sp,1bac <fail>
    19cc:	00120213          	add	tp,tp,1 # 1 <_start+0x1>
    19d0:	00200293          	li	t0,2
    19d4:	fe5212e3          	bne	tp,t0,19b8 <test_13+0x8>

000019d8 <test_14>:
    19d8:	00e00e13          	li	t3,14
    19dc:	00000213          	li	tp,0
    19e0:	f00000b7          	lui	ra,0xf0000
    19e4:	fff08093          	add	ra,ra,-1 # efffffff <tdat10+0xefff7fc7>
    19e8:	f0000137          	lui	sp,0xf0000
    19ec:	00000013          	nop
    19f0:	00000013          	nop
    19f4:	1a20fc63          	bgeu	ra,sp,1bac <fail>
    19f8:	00120213          	add	tp,tp,1 # 1 <_start+0x1>
    19fc:	00200293          	li	t0,2
    1a00:	fe5210e3          	bne	tp,t0,19e0 <test_14+0x8>

00001a04 <test_15>:
    1a04:	00f00e13          	li	t3,15
    1a08:	00000213          	li	tp,0
    1a0c:	f00000b7          	lui	ra,0xf0000
    1a10:	fff08093          	add	ra,ra,-1 # efffffff <tdat10+0xefff7fc7>
    1a14:	00000013          	nop
    1a18:	f0000137          	lui	sp,0xf0000
    1a1c:	1820f863          	bgeu	ra,sp,1bac <fail>
    1a20:	00120213          	add	tp,tp,1 # 1 <_start+0x1>
    1a24:	00200293          	li	t0,2
    1a28:	fe5212e3          	bne	tp,t0,1a0c <test_15+0x8>

00001a2c <test_16>:
    1a2c:	01000e13          	li	t3,16
    1a30:	00000213          	li	tp,0
    1a34:	f00000b7          	lui	ra,0xf0000
    1a38:	fff08093          	add	ra,ra,-1 # efffffff <tdat10+0xefff7fc7>
    1a3c:	00000013          	nop
    1a40:	f0000137          	lui	sp,0xf0000
    1a44:	00000013          	nop
    1a48:	1620f263          	bgeu	ra,sp,1bac <fail>
    1a4c:	00120213          	add	tp,tp,1 # 1 <_start+0x1>
    1a50:	00200293          	li	t0,2
    1a54:	fe5210e3          	bne	tp,t0,1a34 <test_16+0x8>

00001a58 <test_17>:
    1a58:	01100e13          	li	t3,17
    1a5c:	00000213          	li	tp,0
    1a60:	f00000b7          	lui	ra,0xf0000
    1a64:	fff08093          	add	ra,ra,-1 # efffffff <tdat10+0xefff7fc7>
    1a68:	00000013          	nop
    1a6c:	00000013          	nop
    1a70:	f0000137          	lui	sp,0xf0000
    1a74:	1220fc63          	bgeu	ra,sp,1bac <fail>
    1a78:	00120213          	add	tp,tp,1 # 1 <_start+0x1>
    1a7c:	00200293          	li	t0,2
    1a80:	fe5210e3          	bne	tp,t0,1a60 <test_17+0x8>

00001a84 <test_18>:
    1a84:	01200e13          	li	t3,18
    1a88:	00000213          	li	tp,0
    1a8c:	f00000b7          	lui	ra,0xf0000
    1a90:	fff08093          	add	ra,ra,-1 # efffffff <tdat10+0xefff7fc7>
    1a94:	f0000137          	lui	sp,0xf0000
    1a98:	1020fa63          	bgeu	ra,sp,1bac <fail>
    1a9c:	00120213          	add	tp,tp,1 # 1 <_start+0x1>
    1aa0:	00200293          	li	t0,2
    1aa4:	fe5214e3          	bne	tp,t0,1a8c <test_18+0x8>

00001aa8 <test_19>:
    1aa8:	01300e13          	li	t3,19
    1aac:	00000213          	li	tp,0
    1ab0:	f00000b7          	lui	ra,0xf0000
    1ab4:	fff08093          	add	ra,ra,-1 # efffffff <tdat10+0xefff7fc7>
    1ab8:	f0000137          	lui	sp,0xf0000
    1abc:	00000013          	nop
    1ac0:	0e20f663          	bgeu	ra,sp,1bac <fail>
    1ac4:	00120213          	add	tp,tp,1 # 1 <_start+0x1>
    1ac8:	00200293          	li	t0,2
    1acc:	fe5212e3          	bne	tp,t0,1ab0 <test_19+0x8>

00001ad0 <test_20>:
    1ad0:	01400e13          	li	t3,20
    1ad4:	00000213          	li	tp,0
    1ad8:	f00000b7          	lui	ra,0xf0000
    1adc:	fff08093          	add	ra,ra,-1 # efffffff <tdat10+0xefff7fc7>
    1ae0:	f0000137          	lui	sp,0xf0000
    1ae4:	00000013          	nop
    1ae8:	00000013          	nop
    1aec:	0c20f063          	bgeu	ra,sp,1bac <fail>
    1af0:	00120213          	add	tp,tp,1 # 1 <_start+0x1>
    1af4:	00200293          	li	t0,2
    1af8:	fe5210e3          	bne	tp,t0,1ad8 <test_20+0x8>

00001afc <test_21>:
    1afc:	01500e13          	li	t3,21
    1b00:	00000213          	li	tp,0
    1b04:	f00000b7          	lui	ra,0xf0000
    1b08:	fff08093          	add	ra,ra,-1 # efffffff <tdat10+0xefff7fc7>
    1b0c:	00000013          	nop
    1b10:	f0000137          	lui	sp,0xf0000
    1b14:	0820fc63          	bgeu	ra,sp,1bac <fail>
    1b18:	00120213          	add	tp,tp,1 # 1 <_start+0x1>
    1b1c:	00200293          	li	t0,2
    1b20:	fe5212e3          	bne	tp,t0,1b04 <test_21+0x8>

00001b24 <test_22>:
    1b24:	01600e13          	li	t3,22
    1b28:	00000213          	li	tp,0
    1b2c:	f00000b7          	lui	ra,0xf0000
    1b30:	fff08093          	add	ra,ra,-1 # efffffff <tdat10+0xefff7fc7>
    1b34:	00000013          	nop
    1b38:	f0000137          	lui	sp,0xf0000
    1b3c:	00000013          	nop
    1b40:	0620f663          	bgeu	ra,sp,1bac <fail>
    1b44:	00120213          	add	tp,tp,1 # 1 <_start+0x1>
    1b48:	00200293          	li	t0,2
    1b4c:	fe5210e3          	bne	tp,t0,1b2c <test_22+0x8>

00001b50 <test_23>:
    1b50:	01700e13          	li	t3,23
    1b54:	00000213          	li	tp,0
    1b58:	f00000b7          	lui	ra,0xf0000
    1b5c:	fff08093          	add	ra,ra,-1 # efffffff <tdat10+0xefff7fc7>
    1b60:	00000013          	nop
    1b64:	00000013          	nop
    1b68:	f0000137          	lui	sp,0xf0000
    1b6c:	0420f063          	bgeu	ra,sp,1bac <fail>
    1b70:	00120213          	add	tp,tp,1 # 1 <_start+0x1>
    1b74:	00200293          	li	t0,2
    1b78:	fe5210e3          	bne	tp,t0,1b58 <test_23+0x8>

00001b7c <test_24>:
    1b7c:	00100093          	li	ra,1
    1b80:	0000fa63          	bgeu	ra,zero,1b94 <test_24+0x18>
    1b84:	00108093          	add	ra,ra,1
    1b88:	00108093          	add	ra,ra,1
    1b8c:	00108093          	add	ra,ra,1
    1b90:	00108093          	add	ra,ra,1
    1b94:	00108093          	add	ra,ra,1
    1b98:	00108093          	add	ra,ra,1
    1b9c:	00300e93          	li	t4,3
    1ba0:	01800e13          	li	t3,24
    1ba4:	01d09463          	bne	ra,t4,1bac <fail>
    1ba8:	03c01a63          	bne	zero,t3,1bdc <pass>

00001bac <fail>:
    1bac:	10000537          	lui	a0,0x10000
    1bb0:	04500593          	li	a1,69
    1bb4:	05200613          	li	a2,82
    1bb8:	04f00693          	li	a3,79
    1bbc:	00a00713          	li	a4,10
    1bc0:	00b52023          	sw	a1,0(a0) # 10000000 <tdat10+0xfff7fc8>
    1bc4:	00c52023          	sw	a2,0(a0)
    1bc8:	00c52023          	sw	a2,0(a0)
    1bcc:	00d52023          	sw	a3,0(a0)
    1bd0:	00c52023          	sw	a2,0(a0)
    1bd4:	00e52023          	sw	a4,0(a0)
    1bd8:	00100073          	ebreak

00001bdc <pass>:
    1bdc:	10000537          	lui	a0,0x10000
    1be0:	04f00593          	li	a1,79
    1be4:	04b00613          	li	a2,75
    1be8:	00a00693          	li	a3,10
    1bec:	00b52023          	sw	a1,0(a0) # 10000000 <tdat10+0xfff7fc8>
    1bf0:	00c52023          	sw	a2,0(a0)
    1bf4:	00d52023          	sw	a3,0(a0)
    1bf8:	c38fe06f          	j	30 <bgeu_ret>

00001bfc <blt>:
    1bfc:	00002537          	lui	a0,0x2
    1c00:	c1c50513          	add	a0,a0,-996 # 1c1c <.test_name>
    1c04:	10000637          	lui	a2,0x10000

00001c08 <.prname_next>:
    1c08:	00050583          	lb	a1,0(a0)
    1c0c:	00058a63          	beqz	a1,1c20 <.prname_done>
    1c10:	00b62023          	sw	a1,0(a2) # 10000000 <tdat10+0xfff7fc8>
    1c14:	00150513          	add	a0,a0,1
    1c18:	ff1ff06f          	j	1c08 <.prname_next>

00001c1c <.test_name>:
    1c1c:	6c62                	.2byte	0x6c62
    1c1e:	0074                	.2byte	0x74

00001c20 <.prname_done>:
    1c20:	02e00593          	li	a1,46
    1c24:	00b62023          	sw	a1,0(a2)
    1c28:	00b62023          	sw	a1,0(a2)

00001c2c <test_2>:
    1c2c:	00200e13          	li	t3,2
    1c30:	00000093          	li	ra,0
    1c34:	00100113          	li	sp,1
    1c38:	0020c663          	blt	ra,sp,1c44 <test_2+0x18>
    1c3c:	2bc01863          	bne	zero,t3,1eec <fail>
    1c40:	01c01663          	bne	zero,t3,1c4c <test_3>
    1c44:	fe20cee3          	blt	ra,sp,1c40 <test_2+0x14>
    1c48:	2bc01263          	bne	zero,t3,1eec <fail>

00001c4c <test_3>:
    1c4c:	00300e13          	li	t3,3
    1c50:	fff00093          	li	ra,-1
    1c54:	00100113          	li	sp,1
    1c58:	0020c663          	blt	ra,sp,1c64 <test_3+0x18>
    1c5c:	29c01863          	bne	zero,t3,1eec <fail>
    1c60:	01c01663          	bne	zero,t3,1c6c <test_4>
    1c64:	fe20cee3          	blt	ra,sp,1c60 <test_3+0x14>
    1c68:	29c01263          	bne	zero,t3,1eec <fail>

00001c6c <test_4>:
    1c6c:	00400e13          	li	t3,4
    1c70:	ffe00093          	li	ra,-2
    1c74:	fff00113          	li	sp,-1
    1c78:	0020c663          	blt	ra,sp,1c84 <test_4+0x18>
    1c7c:	27c01863          	bne	zero,t3,1eec <fail>
    1c80:	01c01663          	bne	zero,t3,1c8c <test_5>
    1c84:	fe20cee3          	blt	ra,sp,1c80 <test_4+0x14>
    1c88:	27c01263          	bne	zero,t3,1eec <fail>

00001c8c <test_5>:
    1c8c:	00500e13          	li	t3,5
    1c90:	00100093          	li	ra,1
    1c94:	00000113          	li	sp,0
    1c98:	0020c463          	blt	ra,sp,1ca0 <test_5+0x14>
    1c9c:	01c01463          	bne	zero,t3,1ca4 <test_5+0x18>
    1ca0:	25c01663          	bne	zero,t3,1eec <fail>
    1ca4:	fe20cee3          	blt	ra,sp,1ca0 <test_5+0x14>

00001ca8 <test_6>:
    1ca8:	00600e13          	li	t3,6
    1cac:	00100093          	li	ra,1
    1cb0:	fff00113          	li	sp,-1
    1cb4:	0020c463          	blt	ra,sp,1cbc <test_6+0x14>
    1cb8:	01c01463          	bne	zero,t3,1cc0 <test_6+0x18>
    1cbc:	23c01863          	bne	zero,t3,1eec <fail>
    1cc0:	fe20cee3          	blt	ra,sp,1cbc <test_6+0x14>

00001cc4 <test_7>:
    1cc4:	00700e13          	li	t3,7
    1cc8:	fff00093          	li	ra,-1
    1ccc:	ffe00113          	li	sp,-2
    1cd0:	0020c463          	blt	ra,sp,1cd8 <test_7+0x14>
    1cd4:	01c01463          	bne	zero,t3,1cdc <test_7+0x18>
    1cd8:	21c01a63          	bne	zero,t3,1eec <fail>
    1cdc:	fe20cee3          	blt	ra,sp,1cd8 <test_7+0x14>

00001ce0 <test_8>:
    1ce0:	00800e13          	li	t3,8
    1ce4:	00100093          	li	ra,1
    1ce8:	ffe00113          	li	sp,-2
    1cec:	0020c463          	blt	ra,sp,1cf4 <test_8+0x14>
    1cf0:	01c01463          	bne	zero,t3,1cf8 <test_8+0x18>
    1cf4:	1fc01c63          	bne	zero,t3,1eec <fail>
    1cf8:	fe20cee3          	blt	ra,sp,1cf4 <test_8+0x14>

00001cfc <test_9>:
    1cfc:	00900e13          	li	t3,9
    1d00:	00000213          	li	tp,0
    1d04:	00000093          	li	ra,0
    1d08:	fff00113          	li	sp,-1
    1d0c:	1e20c063          	blt	ra,sp,1eec <fail>
    1d10:	00120213          	add	tp,tp,1 # 1 <_start+0x1>
    1d14:	00200293          	li	t0,2
    1d18:	fe5216e3          	bne	tp,t0,1d04 <test_9+0x8>

00001d1c <test_10>:
    1d1c:	00a00e13          	li	t3,10
    1d20:	00000213          	li	tp,0
    1d24:	00000093          	li	ra,0
    1d28:	fff00113          	li	sp,-1
    1d2c:	00000013          	nop
    1d30:	1a20ce63          	blt	ra,sp,1eec <fail>
    1d34:	00120213          	add	tp,tp,1 # 1 <_start+0x1>
    1d38:	00200293          	li	t0,2
    1d3c:	fe5214e3          	bne	tp,t0,1d24 <test_10+0x8>

00001d40 <test_11>:
    1d40:	00b00e13          	li	t3,11
    1d44:	00000213          	li	tp,0
    1d48:	00000093          	li	ra,0
    1d4c:	fff00113          	li	sp,-1
    1d50:	00000013          	nop
    1d54:	00000013          	nop
    1d58:	1820ca63          	blt	ra,sp,1eec <fail>
    1d5c:	00120213          	add	tp,tp,1 # 1 <_start+0x1>
    1d60:	00200293          	li	t0,2
    1d64:	fe5212e3          	bne	tp,t0,1d48 <test_11+0x8>

00001d68 <test_12>:
    1d68:	00c00e13          	li	t3,12
    1d6c:	00000213          	li	tp,0
    1d70:	00000093          	li	ra,0
    1d74:	00000013          	nop
    1d78:	fff00113          	li	sp,-1
    1d7c:	1620c863          	blt	ra,sp,1eec <fail>
    1d80:	00120213          	add	tp,tp,1 # 1 <_start+0x1>
    1d84:	00200293          	li	t0,2
    1d88:	fe5214e3          	bne	tp,t0,1d70 <test_12+0x8>

00001d8c <test_13>:
    1d8c:	00d00e13          	li	t3,13
    1d90:	00000213          	li	tp,0
    1d94:	00000093          	li	ra,0
    1d98:	00000013          	nop
    1d9c:	fff00113          	li	sp,-1
    1da0:	00000013          	nop
    1da4:	1420c463          	blt	ra,sp,1eec <fail>
    1da8:	00120213          	add	tp,tp,1 # 1 <_start+0x1>
    1dac:	00200293          	li	t0,2
    1db0:	fe5212e3          	bne	tp,t0,1d94 <test_13+0x8>

00001db4 <test_14>:
    1db4:	00e00e13          	li	t3,14
    1db8:	00000213          	li	tp,0
    1dbc:	00000093          	li	ra,0
    1dc0:	00000013          	nop
    1dc4:	00000013          	nop
    1dc8:	fff00113          	li	sp,-1
    1dcc:	1220c063          	blt	ra,sp,1eec <fail>
    1dd0:	00120213          	add	tp,tp,1 # 1 <_start+0x1>
    1dd4:	00200293          	li	t0,2
    1dd8:	fe5212e3          	bne	tp,t0,1dbc <test_14+0x8>

00001ddc <test_15>:
    1ddc:	00f00e13          	li	t3,15
    1de0:	00000213          	li	tp,0
    1de4:	00000093          	li	ra,0
    1de8:	fff00113          	li	sp,-1
    1dec:	1020c063          	blt	ra,sp,1eec <fail>
    1df0:	00120213          	add	tp,tp,1 # 1 <_start+0x1>
    1df4:	00200293          	li	t0,2
    1df8:	fe5216e3          	bne	tp,t0,1de4 <test_15+0x8>

00001dfc <test_16>:
    1dfc:	01000e13          	li	t3,16
    1e00:	00000213          	li	tp,0
    1e04:	00000093          	li	ra,0
    1e08:	fff00113          	li	sp,-1
    1e0c:	00000013          	nop
    1e10:	0c20ce63          	blt	ra,sp,1eec <fail>
    1e14:	00120213          	add	tp,tp,1 # 1 <_start+0x1>
    1e18:	00200293          	li	t0,2
    1e1c:	fe5214e3          	bne	tp,t0,1e04 <test_16+0x8>

00001e20 <test_17>:
    1e20:	01100e13          	li	t3,17
    1e24:	00000213          	li	tp,0
    1e28:	00000093          	li	ra,0
    1e2c:	fff00113          	li	sp,-1
    1e30:	00000013          	nop
    1e34:	00000013          	nop
    1e38:	0a20ca63          	blt	ra,sp,1eec <fail>
    1e3c:	00120213          	add	tp,tp,1 # 1 <_start+0x1>
    1e40:	00200293          	li	t0,2
    1e44:	fe5212e3          	bne	tp,t0,1e28 <test_17+0x8>

00001e48 <test_18>:
    1e48:	01200e13          	li	t3,18
    1e4c:	00000213          	li	tp,0
    1e50:	00000093          	li	ra,0
    1e54:	00000013          	nop
    1e58:	fff00113          	li	sp,-1
    1e5c:	0820c863          	blt	ra,sp,1eec <fail>
    1e60:	00120213          	add	tp,tp,1 # 1 <_start+0x1>
    1e64:	00200293          	li	t0,2
    1e68:	fe5214e3          	bne	tp,t0,1e50 <test_18+0x8>

00001e6c <test_19>:
    1e6c:	01300e13          	li	t3,19
    1e70:	00000213          	li	tp,0
    1e74:	00000093          	li	ra,0
    1e78:	00000013          	nop
    1e7c:	fff00113          	li	sp,-1
    1e80:	00000013          	nop
    1e84:	0620c463          	blt	ra,sp,1eec <fail>
    1e88:	00120213          	add	tp,tp,1 # 1 <_start+0x1>
    1e8c:	00200293          	li	t0,2
    1e90:	fe5212e3          	bne	tp,t0,1e74 <test_19+0x8>

00001e94 <test_20>:
    1e94:	01400e13          	li	t3,20
    1e98:	00000213          	li	tp,0
    1e9c:	00000093          	li	ra,0
    1ea0:	00000013          	nop
    1ea4:	00000013          	nop
    1ea8:	fff00113          	li	sp,-1
    1eac:	0420c063          	blt	ra,sp,1eec <fail>
    1eb0:	00120213          	add	tp,tp,1 # 1 <_start+0x1>
    1eb4:	00200293          	li	t0,2
    1eb8:	fe5212e3          	bne	tp,t0,1e9c <test_20+0x8>

00001ebc <test_21>:
    1ebc:	00100093          	li	ra,1
    1ec0:	00104a63          	bgtz	ra,1ed4 <test_21+0x18>
    1ec4:	00108093          	add	ra,ra,1
    1ec8:	00108093          	add	ra,ra,1
    1ecc:	00108093          	add	ra,ra,1
    1ed0:	00108093          	add	ra,ra,1
    1ed4:	00108093          	add	ra,ra,1
    1ed8:	00108093          	add	ra,ra,1
    1edc:	00300e93          	li	t4,3
    1ee0:	01500e13          	li	t3,21
    1ee4:	01d09463          	bne	ra,t4,1eec <fail>
    1ee8:	03c01a63          	bne	zero,t3,1f1c <pass>

00001eec <fail>:
    1eec:	10000537          	lui	a0,0x10000
    1ef0:	04500593          	li	a1,69
    1ef4:	05200613          	li	a2,82
    1ef8:	04f00693          	li	a3,79
    1efc:	00a00713          	li	a4,10
    1f00:	00b52023          	sw	a1,0(a0) # 10000000 <tdat10+0xfff7fc8>
    1f04:	00c52023          	sw	a2,0(a0)
    1f08:	00c52023          	sw	a2,0(a0)
    1f0c:	00d52023          	sw	a3,0(a0)
    1f10:	00c52023          	sw	a2,0(a0)
    1f14:	00e52023          	sw	a4,0(a0)
    1f18:	00100073          	ebreak

00001f1c <pass>:
    1f1c:	10000537          	lui	a0,0x10000
    1f20:	04f00593          	li	a1,79
    1f24:	04b00613          	li	a2,75
    1f28:	00a00693          	li	a3,10
    1f2c:	00b52023          	sw	a1,0(a0) # 10000000 <tdat10+0xfff7fc8>
    1f30:	00c52023          	sw	a2,0(a0)
    1f34:	00d52023          	sw	a3,0(a0)
    1f38:	8ecfe06f          	j	24 <blt_ret>

00001f3c <bltu>:
    1f3c:	00002537          	lui	a0,0x2
    1f40:	f5c50513          	add	a0,a0,-164 # 1f5c <.test_name>
    1f44:	10000637          	lui	a2,0x10000

00001f48 <.prname_next>:
    1f48:	00050583          	lb	a1,0(a0)
    1f4c:	00058c63          	beqz	a1,1f64 <.prname_done>
    1f50:	00b62023          	sw	a1,0(a2) # 10000000 <tdat10+0xfff7fc8>
    1f54:	00150513          	add	a0,a0,1
    1f58:	ff1ff06f          	j	1f48 <.prname_next>

00001f5c <.test_name>:
    1f5c:	6c62                	.2byte	0x6c62
    1f5e:	7574                	.2byte	0x7574
    1f60:	0000                	.2byte	0x0
	...

00001f64 <.prname_done>:
    1f64:	02e00593          	li	a1,46
    1f68:	00b62023          	sw	a1,0(a2)
    1f6c:	00b62023          	sw	a1,0(a2)

00001f70 <test_2>:
    1f70:	00200e13          	li	t3,2
    1f74:	00000093          	li	ra,0
    1f78:	00100113          	li	sp,1
    1f7c:	0020e663          	bltu	ra,sp,1f88 <test_2+0x18>
    1f80:	2fc01263          	bne	zero,t3,2264 <fail>
    1f84:	01c01663          	bne	zero,t3,1f90 <test_3>
    1f88:	fe20eee3          	bltu	ra,sp,1f84 <test_2+0x14>
    1f8c:	2dc01c63          	bne	zero,t3,2264 <fail>

00001f90 <test_3>:
    1f90:	00300e13          	li	t3,3
    1f94:	ffe00093          	li	ra,-2
    1f98:	fff00113          	li	sp,-1
    1f9c:	0020e663          	bltu	ra,sp,1fa8 <test_3+0x18>
    1fa0:	2dc01263          	bne	zero,t3,2264 <fail>
    1fa4:	01c01663          	bne	zero,t3,1fb0 <test_4>
    1fa8:	fe20eee3          	bltu	ra,sp,1fa4 <test_3+0x14>
    1fac:	2bc01c63          	bne	zero,t3,2264 <fail>

00001fb0 <test_4>:
    1fb0:	00400e13          	li	t3,4
    1fb4:	00000093          	li	ra,0
    1fb8:	fff00113          	li	sp,-1
    1fbc:	0020e663          	bltu	ra,sp,1fc8 <test_4+0x18>
    1fc0:	2bc01263          	bne	zero,t3,2264 <fail>
    1fc4:	01c01663          	bne	zero,t3,1fd0 <test_5>
    1fc8:	fe20eee3          	bltu	ra,sp,1fc4 <test_4+0x14>
    1fcc:	29c01c63          	bne	zero,t3,2264 <fail>

00001fd0 <test_5>:
    1fd0:	00500e13          	li	t3,5
    1fd4:	00100093          	li	ra,1
    1fd8:	00000113          	li	sp,0
    1fdc:	0020e463          	bltu	ra,sp,1fe4 <test_5+0x14>
    1fe0:	01c01463          	bne	zero,t3,1fe8 <test_5+0x18>
    1fe4:	29c01063          	bne	zero,t3,2264 <fail>
    1fe8:	fe20eee3          	bltu	ra,sp,1fe4 <test_5+0x14>

00001fec <test_6>:
    1fec:	00600e13          	li	t3,6
    1ff0:	fff00093          	li	ra,-1
    1ff4:	ffe00113          	li	sp,-2
    1ff8:	0020e463          	bltu	ra,sp,2000 <test_6+0x14>
    1ffc:	01c01463          	bne	zero,t3,2004 <test_6+0x18>
    2000:	27c01263          	bne	zero,t3,2264 <fail>
    2004:	fe20eee3          	bltu	ra,sp,2000 <test_6+0x14>

00002008 <test_7>:
    2008:	00700e13          	li	t3,7
    200c:	fff00093          	li	ra,-1
    2010:	00000113          	li	sp,0
    2014:	0020e463          	bltu	ra,sp,201c <test_7+0x14>
    2018:	01c01463          	bne	zero,t3,2020 <test_7+0x18>
    201c:	25c01463          	bne	zero,t3,2264 <fail>
    2020:	fe20eee3          	bltu	ra,sp,201c <test_7+0x14>

00002024 <test_8>:
    2024:	00800e13          	li	t3,8
    2028:	800000b7          	lui	ra,0x80000
    202c:	80000137          	lui	sp,0x80000
    2030:	fff10113          	add	sp,sp,-1 # 7fffffff <tdat10+0x7fff7fc7>
    2034:	0020e463          	bltu	ra,sp,203c <test_8+0x18>
    2038:	01c01463          	bne	zero,t3,2040 <test_8+0x1c>
    203c:	23c01463          	bne	zero,t3,2264 <fail>
    2040:	fe20eee3          	bltu	ra,sp,203c <test_8+0x18>

00002044 <test_9>:
    2044:	00900e13          	li	t3,9
    2048:	00000213          	li	tp,0
    204c:	f00000b7          	lui	ra,0xf0000
    2050:	f0000137          	lui	sp,0xf0000
    2054:	fff10113          	add	sp,sp,-1 # efffffff <tdat10+0xefff7fc7>
    2058:	2020e663          	bltu	ra,sp,2264 <fail>
    205c:	00120213          	add	tp,tp,1 # 1 <_start+0x1>
    2060:	00200293          	li	t0,2
    2064:	fe5214e3          	bne	tp,t0,204c <test_9+0x8>

00002068 <test_10>:
    2068:	00a00e13          	li	t3,10
    206c:	00000213          	li	tp,0
    2070:	f00000b7          	lui	ra,0xf0000
    2074:	f0000137          	lui	sp,0xf0000
    2078:	fff10113          	add	sp,sp,-1 # efffffff <tdat10+0xefff7fc7>
    207c:	00000013          	nop
    2080:	1e20e263          	bltu	ra,sp,2264 <fail>
    2084:	00120213          	add	tp,tp,1 # 1 <_start+0x1>
    2088:	00200293          	li	t0,2
    208c:	fe5212e3          	bne	tp,t0,2070 <test_10+0x8>

00002090 <test_11>:
    2090:	00b00e13          	li	t3,11
    2094:	00000213          	li	tp,0
    2098:	f00000b7          	lui	ra,0xf0000
    209c:	f0000137          	lui	sp,0xf0000
    20a0:	fff10113          	add	sp,sp,-1 # efffffff <tdat10+0xefff7fc7>
    20a4:	00000013          	nop
    20a8:	00000013          	nop
    20ac:	1a20ec63          	bltu	ra,sp,2264 <fail>
    20b0:	00120213          	add	tp,tp,1 # 1 <_start+0x1>
    20b4:	00200293          	li	t0,2
    20b8:	fe5210e3          	bne	tp,t0,2098 <test_11+0x8>

000020bc <test_12>:
    20bc:	00c00e13          	li	t3,12
    20c0:	00000213          	li	tp,0
    20c4:	f00000b7          	lui	ra,0xf0000
    20c8:	00000013          	nop
    20cc:	f0000137          	lui	sp,0xf0000
    20d0:	fff10113          	add	sp,sp,-1 # efffffff <tdat10+0xefff7fc7>
    20d4:	1820e863          	bltu	ra,sp,2264 <fail>
    20d8:	00120213          	add	tp,tp,1 # 1 <_start+0x1>
    20dc:	00200293          	li	t0,2
    20e0:	fe5212e3          	bne	tp,t0,20c4 <test_12+0x8>

000020e4 <test_13>:
    20e4:	00d00e13          	li	t3,13
    20e8:	00000213          	li	tp,0
    20ec:	f00000b7          	lui	ra,0xf0000
    20f0:	00000013          	nop
    20f4:	f0000137          	lui	sp,0xf0000
    20f8:	fff10113          	add	sp,sp,-1 # efffffff <tdat10+0xefff7fc7>
    20fc:	00000013          	nop
    2100:	1620e263          	bltu	ra,sp,2264 <fail>
    2104:	00120213          	add	tp,tp,1 # 1 <_start+0x1>
    2108:	00200293          	li	t0,2
    210c:	fe5210e3          	bne	tp,t0,20ec <test_13+0x8>

00002110 <test_14>:
    2110:	00e00e13          	li	t3,14
    2114:	00000213          	li	tp,0
    2118:	f00000b7          	lui	ra,0xf0000
    211c:	00000013          	nop
    2120:	00000013          	nop
    2124:	f0000137          	lui	sp,0xf0000
    2128:	fff10113          	add	sp,sp,-1 # efffffff <tdat10+0xefff7fc7>
    212c:	1220ec63          	bltu	ra,sp,2264 <fail>
    2130:	00120213          	add	tp,tp,1 # 1 <_start+0x1>
    2134:	00200293          	li	t0,2
    2138:	fe5210e3          	bne	tp,t0,2118 <test_14+0x8>

0000213c <test_15>:
    213c:	00f00e13          	li	t3,15
    2140:	00000213          	li	tp,0
    2144:	f00000b7          	lui	ra,0xf0000
    2148:	f0000137          	lui	sp,0xf0000
    214c:	fff10113          	add	sp,sp,-1 # efffffff <tdat10+0xefff7fc7>
    2150:	1020ea63          	bltu	ra,sp,2264 <fail>
    2154:	00120213          	add	tp,tp,1 # 1 <_start+0x1>
    2158:	00200293          	li	t0,2
    215c:	fe5214e3          	bne	tp,t0,2144 <test_15+0x8>

00002160 <test_16>:
    2160:	01000e13          	li	t3,16
    2164:	00000213          	li	tp,0
    2168:	f00000b7          	lui	ra,0xf0000
    216c:	f0000137          	lui	sp,0xf0000
    2170:	fff10113          	add	sp,sp,-1 # efffffff <tdat10+0xefff7fc7>
    2174:	00000013          	nop
    2178:	0e20e663          	bltu	ra,sp,2264 <fail>
    217c:	00120213          	add	tp,tp,1 # 1 <_start+0x1>
    2180:	00200293          	li	t0,2
    2184:	fe5212e3          	bne	tp,t0,2168 <test_16+0x8>

00002188 <test_17>:
    2188:	01100e13          	li	t3,17
    218c:	00000213          	li	tp,0
    2190:	f00000b7          	lui	ra,0xf0000
    2194:	f0000137          	lui	sp,0xf0000
    2198:	fff10113          	add	sp,sp,-1 # efffffff <tdat10+0xefff7fc7>
    219c:	00000013          	nop
    21a0:	00000013          	nop
    21a4:	0c20e063          	bltu	ra,sp,2264 <fail>
    21a8:	00120213          	add	tp,tp,1 # 1 <_start+0x1>
    21ac:	00200293          	li	t0,2
    21b0:	fe5210e3          	bne	tp,t0,2190 <test_17+0x8>

000021b4 <test_18>:
    21b4:	01200e13          	li	t3,18
    21b8:	00000213          	li	tp,0
    21bc:	f00000b7          	lui	ra,0xf0000
    21c0:	00000013          	nop
    21c4:	f0000137          	lui	sp,0xf0000
    21c8:	fff10113          	add	sp,sp,-1 # efffffff <tdat10+0xefff7fc7>
    21cc:	0820ec63          	bltu	ra,sp,2264 <fail>
    21d0:	00120213          	add	tp,tp,1 # 1 <_start+0x1>
    21d4:	00200293          	li	t0,2
    21d8:	fe5212e3          	bne	tp,t0,21bc <test_18+0x8>

000021dc <test_19>:
    21dc:	01300e13          	li	t3,19
    21e0:	00000213          	li	tp,0
    21e4:	f00000b7          	lui	ra,0xf0000
    21e8:	00000013          	nop
    21ec:	f0000137          	lui	sp,0xf0000
    21f0:	fff10113          	add	sp,sp,-1 # efffffff <tdat10+0xefff7fc7>
    21f4:	00000013          	nop
    21f8:	0620e663          	bltu	ra,sp,2264 <fail>
    21fc:	00120213          	add	tp,tp,1 # 1 <_start+0x1>
    2200:	00200293          	li	t0,2
    2204:	fe5210e3          	bne	tp,t0,21e4 <test_19+0x8>

00002208 <test_20>:
    2208:	01400e13          	li	t3,20
    220c:	00000213          	li	tp,0
    2210:	f00000b7          	lui	ra,0xf0000
    2214:	00000013          	nop
    2218:	00000013          	nop
    221c:	f0000137          	lui	sp,0xf0000
    2220:	fff10113          	add	sp,sp,-1 # efffffff <tdat10+0xefff7fc7>
    2224:	0420e063          	bltu	ra,sp,2264 <fail>
    2228:	00120213          	add	tp,tp,1 # 1 <_start+0x1>
    222c:	00200293          	li	t0,2
    2230:	fe5210e3          	bne	tp,t0,2210 <test_20+0x8>

00002234 <test_21>:
    2234:	00100093          	li	ra,1
    2238:	00106a63          	bltu	zero,ra,224c <test_21+0x18>
    223c:	00108093          	add	ra,ra,1 # f0000001 <tdat10+0xefff7fc9>
    2240:	00108093          	add	ra,ra,1
    2244:	00108093          	add	ra,ra,1
    2248:	00108093          	add	ra,ra,1
    224c:	00108093          	add	ra,ra,1
    2250:	00108093          	add	ra,ra,1
    2254:	00300e93          	li	t4,3
    2258:	01500e13          	li	t3,21
    225c:	01d09463          	bne	ra,t4,2264 <fail>
    2260:	03c01a63          	bne	zero,t3,2294 <pass>

00002264 <fail>:
    2264:	10000537          	lui	a0,0x10000
    2268:	04500593          	li	a1,69
    226c:	05200613          	li	a2,82
    2270:	04f00693          	li	a3,79
    2274:	00a00713          	li	a4,10
    2278:	00b52023          	sw	a1,0(a0) # 10000000 <tdat10+0xfff7fc8>
    227c:	00c52023          	sw	a2,0(a0)
    2280:	00c52023          	sw	a2,0(a0)
    2284:	00d52023          	sw	a3,0(a0)
    2288:	00c52023          	sw	a2,0(a0)
    228c:	00e52023          	sw	a4,0(a0)
    2290:	00100073          	ebreak

00002294 <pass>:
    2294:	10000537          	lui	a0,0x10000
    2298:	04f00593          	li	a1,79
    229c:	04b00613          	li	a2,75
    22a0:	00a00693          	li	a3,10
    22a4:	00b52023          	sw	a1,0(a0) # 10000000 <tdat10+0xfff7fc8>
    22a8:	00c52023          	sw	a2,0(a0)
    22ac:	00d52023          	sw	a3,0(a0)
    22b0:	d7dfd06f          	j	2c <bltu_ret>

000022b4 <bne>:
    22b4:	00002537          	lui	a0,0x2
    22b8:	2d450513          	add	a0,a0,724 # 22d4 <.test_name>
    22bc:	10000637          	lui	a2,0x10000

000022c0 <.prname_next>:
    22c0:	00050583          	lb	a1,0(a0)
    22c4:	00058a63          	beqz	a1,22d8 <.prname_done>
    22c8:	00b62023          	sw	a1,0(a2) # 10000000 <tdat10+0xfff7fc8>
    22cc:	00150513          	add	a0,a0,1
    22d0:	ff1ff06f          	j	22c0 <.prname_next>

000022d4 <.test_name>:
    22d4:	6e62                	.2byte	0x6e62
    22d6:	0065                	.2byte	0x65

000022d8 <.prname_done>:
    22d8:	02e00593          	li	a1,46
    22dc:	00b62023          	sw	a1,0(a2)
    22e0:	00b62023          	sw	a1,0(a2)

000022e4 <test_2>:
    22e4:	00200e13          	li	t3,2
    22e8:	00000093          	li	ra,0
    22ec:	00100113          	li	sp,1
    22f0:	00209663          	bne	ra,sp,22fc <test_2+0x18>
    22f4:	2bc01a63          	bne	zero,t3,25a8 <fail>
    22f8:	01c01663          	bne	zero,t3,2304 <test_3>
    22fc:	fe209ee3          	bne	ra,sp,22f8 <test_2+0x14>
    2300:	2bc01463          	bne	zero,t3,25a8 <fail>

00002304 <test_3>:
    2304:	00300e13          	li	t3,3
    2308:	00100093          	li	ra,1
    230c:	00000113          	li	sp,0
    2310:	00209663          	bne	ra,sp,231c <test_3+0x18>
    2314:	29c01a63          	bne	zero,t3,25a8 <fail>
    2318:	01c01663          	bne	zero,t3,2324 <test_4>
    231c:	fe209ee3          	bne	ra,sp,2318 <test_3+0x14>
    2320:	29c01463          	bne	zero,t3,25a8 <fail>

00002324 <test_4>:
    2324:	00400e13          	li	t3,4
    2328:	fff00093          	li	ra,-1
    232c:	00100113          	li	sp,1
    2330:	00209663          	bne	ra,sp,233c <test_4+0x18>
    2334:	27c01a63          	bne	zero,t3,25a8 <fail>
    2338:	01c01663          	bne	zero,t3,2344 <test_5>
    233c:	fe209ee3          	bne	ra,sp,2338 <test_4+0x14>
    2340:	27c01463          	bne	zero,t3,25a8 <fail>

00002344 <test_5>:
    2344:	00500e13          	li	t3,5
    2348:	00100093          	li	ra,1
    234c:	fff00113          	li	sp,-1
    2350:	00209663          	bne	ra,sp,235c <test_5+0x18>
    2354:	25c01a63          	bne	zero,t3,25a8 <fail>
    2358:	01c01663          	bne	zero,t3,2364 <test_6>
    235c:	fe209ee3          	bne	ra,sp,2358 <test_5+0x14>
    2360:	25c01463          	bne	zero,t3,25a8 <fail>

00002364 <test_6>:
    2364:	00600e13          	li	t3,6
    2368:	00000093          	li	ra,0
    236c:	00000113          	li	sp,0
    2370:	00209463          	bne	ra,sp,2378 <test_6+0x14>
    2374:	01c01463          	bne	zero,t3,237c <test_6+0x18>
    2378:	23c01863          	bne	zero,t3,25a8 <fail>
    237c:	fe209ee3          	bne	ra,sp,2378 <test_6+0x14>

00002380 <test_7>:
    2380:	00700e13          	li	t3,7
    2384:	00100093          	li	ra,1
    2388:	00100113          	li	sp,1
    238c:	00209463          	bne	ra,sp,2394 <test_7+0x14>
    2390:	01c01463          	bne	zero,t3,2398 <test_7+0x18>
    2394:	21c01a63          	bne	zero,t3,25a8 <fail>
    2398:	fe209ee3          	bne	ra,sp,2394 <test_7+0x14>

0000239c <test_8>:
    239c:	00800e13          	li	t3,8
    23a0:	fff00093          	li	ra,-1
    23a4:	fff00113          	li	sp,-1
    23a8:	00209463          	bne	ra,sp,23b0 <test_8+0x14>
    23ac:	01c01463          	bne	zero,t3,23b4 <test_8+0x18>
    23b0:	1fc01c63          	bne	zero,t3,25a8 <fail>
    23b4:	fe209ee3          	bne	ra,sp,23b0 <test_8+0x14>

000023b8 <test_9>:
    23b8:	00900e13          	li	t3,9
    23bc:	00000213          	li	tp,0
    23c0:	00000093          	li	ra,0
    23c4:	00000113          	li	sp,0
    23c8:	1e209063          	bne	ra,sp,25a8 <fail>
    23cc:	00120213          	add	tp,tp,1 # 1 <_start+0x1>
    23d0:	00200293          	li	t0,2
    23d4:	fe5216e3          	bne	tp,t0,23c0 <test_9+0x8>

000023d8 <test_10>:
    23d8:	00a00e13          	li	t3,10
    23dc:	00000213          	li	tp,0
    23e0:	00000093          	li	ra,0
    23e4:	00000113          	li	sp,0
    23e8:	00000013          	nop
    23ec:	1a209e63          	bne	ra,sp,25a8 <fail>
    23f0:	00120213          	add	tp,tp,1 # 1 <_start+0x1>
    23f4:	00200293          	li	t0,2
    23f8:	fe5214e3          	bne	tp,t0,23e0 <test_10+0x8>

000023fc <test_11>:
    23fc:	00b00e13          	li	t3,11
    2400:	00000213          	li	tp,0
    2404:	00000093          	li	ra,0
    2408:	00000113          	li	sp,0
    240c:	00000013          	nop
    2410:	00000013          	nop
    2414:	18209a63          	bne	ra,sp,25a8 <fail>
    2418:	00120213          	add	tp,tp,1 # 1 <_start+0x1>
    241c:	00200293          	li	t0,2
    2420:	fe5212e3          	bne	tp,t0,2404 <test_11+0x8>

00002424 <test_12>:
    2424:	00c00e13          	li	t3,12
    2428:	00000213          	li	tp,0
    242c:	00000093          	li	ra,0
    2430:	00000013          	nop
    2434:	00000113          	li	sp,0
    2438:	16209863          	bne	ra,sp,25a8 <fail>
    243c:	00120213          	add	tp,tp,1 # 1 <_start+0x1>
    2440:	00200293          	li	t0,2
    2444:	fe5214e3          	bne	tp,t0,242c <test_12+0x8>

00002448 <test_13>:
    2448:	00d00e13          	li	t3,13
    244c:	00000213          	li	tp,0
    2450:	00000093          	li	ra,0
    2454:	00000013          	nop
    2458:	00000113          	li	sp,0
    245c:	00000013          	nop
    2460:	14209463          	bne	ra,sp,25a8 <fail>
    2464:	00120213          	add	tp,tp,1 # 1 <_start+0x1>
    2468:	00200293          	li	t0,2
    246c:	fe5212e3          	bne	tp,t0,2450 <test_13+0x8>

00002470 <test_14>:
    2470:	00e00e13          	li	t3,14
    2474:	00000213          	li	tp,0
    2478:	00000093          	li	ra,0
    247c:	00000013          	nop
    2480:	00000013          	nop
    2484:	00000113          	li	sp,0
    2488:	12209063          	bne	ra,sp,25a8 <fail>
    248c:	00120213          	add	tp,tp,1 # 1 <_start+0x1>
    2490:	00200293          	li	t0,2
    2494:	fe5212e3          	bne	tp,t0,2478 <test_14+0x8>

00002498 <test_15>:
    2498:	00f00e13          	li	t3,15
    249c:	00000213          	li	tp,0
    24a0:	00000093          	li	ra,0
    24a4:	00000113          	li	sp,0
    24a8:	10209063          	bne	ra,sp,25a8 <fail>
    24ac:	00120213          	add	tp,tp,1 # 1 <_start+0x1>
    24b0:	00200293          	li	t0,2
    24b4:	fe5216e3          	bne	tp,t0,24a0 <test_15+0x8>

000024b8 <test_16>:
    24b8:	01000e13          	li	t3,16
    24bc:	00000213          	li	tp,0
    24c0:	00000093          	li	ra,0
    24c4:	00000113          	li	sp,0
    24c8:	00000013          	nop
    24cc:	0c209e63          	bne	ra,sp,25a8 <fail>
    24d0:	00120213          	add	tp,tp,1 # 1 <_start+0x1>
    24d4:	00200293          	li	t0,2
    24d8:	fe5214e3          	bne	tp,t0,24c0 <test_16+0x8>

000024dc <test_17>:
    24dc:	01100e13          	li	t3,17
    24e0:	00000213          	li	tp,0
    24e4:	00000093          	li	ra,0
    24e8:	00000113          	li	sp,0
    24ec:	00000013          	nop
    24f0:	00000013          	nop
    24f4:	0a209a63          	bne	ra,sp,25a8 <fail>
    24f8:	00120213          	add	tp,tp,1 # 1 <_start+0x1>
    24fc:	00200293          	li	t0,2
    2500:	fe5212e3          	bne	tp,t0,24e4 <test_17+0x8>

00002504 <test_18>:
    2504:	01200e13          	li	t3,18
    2508:	00000213          	li	tp,0
    250c:	00000093          	li	ra,0
    2510:	00000013          	nop
    2514:	00000113          	li	sp,0
    2518:	08209863          	bne	ra,sp,25a8 <fail>
    251c:	00120213          	add	tp,tp,1 # 1 <_start+0x1>
    2520:	00200293          	li	t0,2
    2524:	fe5214e3          	bne	tp,t0,250c <test_18+0x8>

00002528 <test_19>:
    2528:	01300e13          	li	t3,19
    252c:	00000213          	li	tp,0
    2530:	00000093          	li	ra,0
    2534:	00000013          	nop
    2538:	00000113          	li	sp,0
    253c:	00000013          	nop
    2540:	06209463          	bne	ra,sp,25a8 <fail>
    2544:	00120213          	add	tp,tp,1 # 1 <_start+0x1>
    2548:	00200293          	li	t0,2
    254c:	fe5212e3          	bne	tp,t0,2530 <test_19+0x8>

00002550 <test_20>:
    2550:	01400e13          	li	t3,20
    2554:	00000213          	li	tp,0
    2558:	00000093          	li	ra,0
    255c:	00000013          	nop
    2560:	00000013          	nop
    2564:	00000113          	li	sp,0
    2568:	04209063          	bne	ra,sp,25a8 <fail>
    256c:	00120213          	add	tp,tp,1 # 1 <_start+0x1>
    2570:	00200293          	li	t0,2
    2574:	fe5212e3          	bne	tp,t0,2558 <test_20+0x8>

00002578 <test_21>:
    2578:	00100093          	li	ra,1
    257c:	00009a63          	bnez	ra,2590 <test_21+0x18>
    2580:	00108093          	add	ra,ra,1
    2584:	00108093          	add	ra,ra,1
    2588:	00108093          	add	ra,ra,1
    258c:	00108093          	add	ra,ra,1
    2590:	00108093          	add	ra,ra,1
    2594:	00108093          	add	ra,ra,1
    2598:	00300e93          	li	t4,3
    259c:	01500e13          	li	t3,21
    25a0:	01d09463          	bne	ra,t4,25a8 <fail>
    25a4:	03c01a63          	bne	zero,t3,25d8 <pass>

000025a8 <fail>:
    25a8:	10000537          	lui	a0,0x10000
    25ac:	04500593          	li	a1,69
    25b0:	05200613          	li	a2,82
    25b4:	04f00693          	li	a3,79
    25b8:	00a00713          	li	a4,10
    25bc:	00b52023          	sw	a1,0(a0) # 10000000 <tdat10+0xfff7fc8>
    25c0:	00c52023          	sw	a2,0(a0)
    25c4:	00c52023          	sw	a2,0(a0)
    25c8:	00d52023          	sw	a3,0(a0)
    25cc:	00c52023          	sw	a2,0(a0)
    25d0:	00e52023          	sw	a4,0(a0)
    25d4:	00100073          	ebreak

000025d8 <pass>:
    25d8:	10000537          	lui	a0,0x10000
    25dc:	04f00593          	li	a1,79
    25e0:	04b00613          	li	a2,75
    25e4:	00a00693          	li	a3,10
    25e8:	00b52023          	sw	a1,0(a0) # 10000000 <tdat10+0xfff7fc8>
    25ec:	00c52023          	sw	a2,0(a0)
    25f0:	00d52023          	sw	a3,0(a0)
    25f4:	a2dfd06f          	j	20 <bne_ret>

000025f8 <jalr>:
    25f8:	00002537          	lui	a0,0x2
    25fc:	61850513          	add	a0,a0,1560 # 2618 <.test_name>
    2600:	10000637          	lui	a2,0x10000

00002604 <.prname_next>:
    2604:	00050583          	lb	a1,0(a0)
    2608:	00058c63          	beqz	a1,2620 <.prname_done>
    260c:	00b62023          	sw	a1,0(a2) # 10000000 <tdat10+0xfff7fc8>
    2610:	00150513          	add	a0,a0,1
    2614:	ff1ff06f          	j	2604 <.prname_next>

00002618 <.test_name>:
    2618:	616a                	.2byte	0x616a
    261a:	726c                	.2byte	0x726c
    261c:	0000                	.2byte	0x0
	...

00002620 <.prname_done>:
    2620:	02e00593          	li	a1,46
    2624:	00b62023          	sw	a1,0(a2)
    2628:	00b62023          	sw	a1,0(a2)

0000262c <test_2>:
    262c:	00200e13          	li	t3,2
    2630:	00000f93          	li	t6,0
    2634:	00000117          	auipc	sp,0x0
    2638:	01810113          	add	sp,sp,24 # 264c <target_2>

0000263c <linkaddr_2>:
    263c:	000109e7          	jalr	s3,sp
    2640:	00000013          	nop
    2644:	00000013          	nop
    2648:	0e40006f          	j	272c <fail>

0000264c <target_2>:
    264c:	00000097          	auipc	ra,0x0
    2650:	ff008093          	add	ra,ra,-16 # 263c <linkaddr_2>
    2654:	00408093          	add	ra,ra,4
    2658:	0d309a63          	bne	ra,s3,272c <fail>

0000265c <test_3>:
    265c:	00300e13          	li	t3,3
    2660:	00000f93          	li	t6,0
    2664:	00000197          	auipc	gp,0x0
    2668:	01418193          	add	gp,gp,20 # 2678 <target_3>

0000266c <linkaddr_3>:
    266c:	00018067          	jr	gp
    2670:	00000013          	nop
    2674:	0b80006f          	j	272c <fail>

00002678 <target_3>:
    2678:	0a0f9a63          	bnez	t6,272c <fail>

0000267c <test_4>:
    267c:	00400e13          	li	t3,4
    2680:	00000213          	li	tp,0
    2684:	00000317          	auipc	t1,0x0
    2688:	01030313          	add	t1,t1,16 # 2694 <test_4+0x18>
    268c:	000309e7          	jalr	s3,t1
    2690:	09c01e63          	bne	zero,t3,272c <fail>
    2694:	00120213          	add	tp,tp,1 # 1 <_start+0x1>
    2698:	00200293          	li	t0,2
    269c:	fe5214e3          	bne	tp,t0,2684 <test_4+0x8>

000026a0 <test_5>:
    26a0:	00500e13          	li	t3,5
    26a4:	00000213          	li	tp,0
    26a8:	00000317          	auipc	t1,0x0
    26ac:	01430313          	add	t1,t1,20 # 26bc <test_5+0x1c>
    26b0:	00000013          	nop
    26b4:	000309e7          	jalr	s3,t1
    26b8:	07c01a63          	bne	zero,t3,272c <fail>
    26bc:	00120213          	add	tp,tp,1 # 1 <_start+0x1>
    26c0:	00200293          	li	t0,2
    26c4:	fe5212e3          	bne	tp,t0,26a8 <test_5+0x8>

000026c8 <test_6>:
    26c8:	00600e13          	li	t3,6
    26cc:	00000213          	li	tp,0
    26d0:	00000317          	auipc	t1,0x0
    26d4:	01830313          	add	t1,t1,24 # 26e8 <test_6+0x20>
    26d8:	00000013          	nop
    26dc:	00000013          	nop
    26e0:	000309e7          	jalr	s3,t1
    26e4:	05c01463          	bne	zero,t3,272c <fail>
    26e8:	00120213          	add	tp,tp,1 # 1 <_start+0x1>
    26ec:	00200293          	li	t0,2
    26f0:	fe5210e3          	bne	tp,t0,26d0 <test_6+0x8>

000026f4 <test_7>:
    26f4:	00100093          	li	ra,1
    26f8:	00000117          	auipc	sp,0x0
    26fc:	01c10113          	add	sp,sp,28 # 2714 <test_7+0x20>
    2700:	ffc109e7          	jalr	s3,-4(sp)
    2704:	00108093          	add	ra,ra,1
    2708:	00108093          	add	ra,ra,1
    270c:	00108093          	add	ra,ra,1
    2710:	00108093          	add	ra,ra,1
    2714:	00108093          	add	ra,ra,1
    2718:	00108093          	add	ra,ra,1
    271c:	00400e93          	li	t4,4
    2720:	00700e13          	li	t3,7
    2724:	01d09463          	bne	ra,t4,272c <fail>
    2728:	03c01a63          	bne	zero,t3,275c <pass>

0000272c <fail>:
    272c:	10000537          	lui	a0,0x10000
    2730:	04500593          	li	a1,69
    2734:	05200613          	li	a2,82
    2738:	04f00693          	li	a3,79
    273c:	00a00713          	li	a4,10
    2740:	00b52023          	sw	a1,0(a0) # 10000000 <tdat10+0xfff7fc8>
    2744:	00c52023          	sw	a2,0(a0)
    2748:	00c52023          	sw	a2,0(a0)
    274c:	00d52023          	sw	a3,0(a0)
    2750:	00c52023          	sw	a2,0(a0)
    2754:	00e52023          	sw	a4,0(a0)
    2758:	00100073          	ebreak

0000275c <pass>:
    275c:	10000537          	lui	a0,0x10000
    2760:	04f00593          	li	a1,79
    2764:	04b00613          	li	a2,75
    2768:	00a00693          	li	a3,10
    276c:	00b52023          	sw	a1,0(a0) # 10000000 <tdat10+0xfff7fc8>
    2770:	00c52023          	sw	a2,0(a0)
    2774:	00d52023          	sw	a3,0(a0)
    2778:	8a1fd06f          	j	18 <jalr_ret>

0000277c <jal>:
    277c:	00002537          	lui	a0,0x2
    2780:	79c50513          	add	a0,a0,1948 # 279c <.test_name>
    2784:	10000637          	lui	a2,0x10000

00002788 <.prname_next>:
    2788:	00050583          	lb	a1,0(a0)
    278c:	00058a63          	beqz	a1,27a0 <.prname_done>
    2790:	00b62023          	sw	a1,0(a2) # 10000000 <tdat10+0xfff7fc8>
    2794:	00150513          	add	a0,a0,1
    2798:	ff1ff06f          	j	2788 <.prname_next>

0000279c <.test_name>:
    279c:	616a                	.2byte	0x616a
    279e:	006c                	.2byte	0x6c

000027a0 <.prname_done>:
    27a0:	02e00593          	li	a1,46
    27a4:	00b62023          	sw	a1,0(a2)
    27a8:	00b62023          	sw	a1,0(a2)

000027ac <test_2>:
    27ac:	00200e13          	li	t3,2
    27b0:	00000093          	li	ra,0

000027b4 <linkaddr_2>:
    27b4:	010000ef          	jal	27c4 <target_2>
    27b8:	00000013          	nop
    27bc:	00000013          	nop
    27c0:	0440006f          	j	2804 <fail>

000027c4 <target_2>:
    27c4:	00000117          	auipc	sp,0x0
    27c8:	ff010113          	add	sp,sp,-16 # 27b4 <linkaddr_2>
    27cc:	00410113          	add	sp,sp,4
    27d0:	02111a63          	bne	sp,ra,2804 <fail>

000027d4 <test_3>:
    27d4:	00100113          	li	sp,1
    27d8:	014000ef          	jal	27ec <test_3+0x18>
    27dc:	00110113          	add	sp,sp,1
    27e0:	00110113          	add	sp,sp,1
    27e4:	00110113          	add	sp,sp,1
    27e8:	00110113          	add	sp,sp,1
    27ec:	00110113          	add	sp,sp,1
    27f0:	00110113          	add	sp,sp,1
    27f4:	00300e93          	li	t4,3
    27f8:	00300e13          	li	t3,3
    27fc:	01d11463          	bne	sp,t4,2804 <fail>
    2800:	03c01a63          	bne	zero,t3,2834 <pass>

00002804 <fail>:
    2804:	10000537          	lui	a0,0x10000
    2808:	04500593          	li	a1,69
    280c:	05200613          	li	a2,82
    2810:	04f00693          	li	a3,79
    2814:	00a00713          	li	a4,10
    2818:	00b52023          	sw	a1,0(a0) # 10000000 <tdat10+0xfff7fc8>
    281c:	00c52023          	sw	a2,0(a0)
    2820:	00c52023          	sw	a2,0(a0)
    2824:	00d52023          	sw	a3,0(a0)
    2828:	00c52023          	sw	a2,0(a0)
    282c:	00e52023          	sw	a4,0(a0)
    2830:	00100073          	ebreak

00002834 <pass>:
    2834:	10000537          	lui	a0,0x10000
    2838:	04f00593          	li	a1,79
    283c:	04b00613          	li	a2,75
    2840:	00a00693          	li	a3,10
    2844:	00b52023          	sw	a1,0(a0) # 10000000 <tdat10+0xfff7fc8>
    2848:	00c52023          	sw	a2,0(a0)
    284c:	00d52023          	sw	a3,0(a0)
    2850:	fc4fd06f          	j	14 <jal_ret>

00002854 <j>:
    2854:	00003537          	lui	a0,0x3
    2858:	87450513          	add	a0,a0,-1932 # 2874 <.test_name>
    285c:	10000637          	lui	a2,0x10000

00002860 <.prname_next>:
    2860:	00050583          	lb	a1,0(a0)
    2864:	00058a63          	beqz	a1,2878 <.prname_done>
    2868:	00b62023          	sw	a1,0(a2) # 10000000 <tdat10+0xfff7fc8>
    286c:	00150513          	add	a0,a0,1
    2870:	ff1ff06f          	j	2860 <.prname_next>

00002874 <.test_name>:
    2874:	006a                	.2byte	0x6a
	...

00002878 <.prname_done>:
    2878:	02e00593          	li	a1,46
    287c:	00b62023          	sw	a1,0(a2)
    2880:	00b62023          	sw	a1,0(a2)
    2884:	00200e13          	li	t3,2
    2888:	0080006f          	j	2890 <test_2>
    288c:	0340006f          	j	28c0 <fail>

00002890 <test_2>:
    2890:	00100093          	li	ra,1
    2894:	0140006f          	j	28a8 <test_2+0x18>
    2898:	00108093          	add	ra,ra,1
    289c:	00108093          	add	ra,ra,1
    28a0:	00108093          	add	ra,ra,1
    28a4:	00108093          	add	ra,ra,1
    28a8:	00108093          	add	ra,ra,1
    28ac:	00108093          	add	ra,ra,1
    28b0:	00300e93          	li	t4,3
    28b4:	00300e13          	li	t3,3
    28b8:	01d09463          	bne	ra,t4,28c0 <fail>
    28bc:	03c01a63          	bne	zero,t3,28f0 <pass>

000028c0 <fail>:
    28c0:	10000537          	lui	a0,0x10000
    28c4:	04500593          	li	a1,69
    28c8:	05200613          	li	a2,82
    28cc:	04f00693          	li	a3,79
    28d0:	00a00713          	li	a4,10
    28d4:	00b52023          	sw	a1,0(a0) # 10000000 <tdat10+0xfff7fc8>
    28d8:	00c52023          	sw	a2,0(a0)
    28dc:	00c52023          	sw	a2,0(a0)
    28e0:	00d52023          	sw	a3,0(a0)
    28e4:	00c52023          	sw	a2,0(a0)
    28e8:	00e52023          	sw	a4,0(a0)
    28ec:	00100073          	ebreak

000028f0 <pass>:
    28f0:	10000537          	lui	a0,0x10000
    28f4:	04f00593          	li	a1,79
    28f8:	04b00613          	li	a2,75
    28fc:	00a00693          	li	a3,10
    2900:	00b52023          	sw	a1,0(a0) # 10000000 <tdat10+0xfff7fc8>
    2904:	00c52023          	sw	a2,0(a0)
    2908:	00d52023          	sw	a3,0(a0)
    290c:	f04fd06f          	j	10 <j_ret>

00002910 <lb>:
    2910:	00003537          	lui	a0,0x3
    2914:	93050513          	add	a0,a0,-1744 # 2930 <.test_name>
    2918:	10000637          	lui	a2,0x10000

0000291c <.prname_next>:
    291c:	00050583          	lb	a1,0(a0)
    2920:	00058a63          	beqz	a1,2934 <.prname_done>
    2924:	00b62023          	sw	a1,0(a2) # 10000000 <tdat10+0xfff7fc8>
    2928:	00150513          	add	a0,a0,1
    292c:	ff1ff06f          	j	291c <.prname_next>

00002930 <.test_name>:
    2930:	626c                	.2byte	0x626c
	...

00002934 <.prname_done>:
    2934:	02e00593          	li	a1,46
    2938:	00b62023          	sw	a1,0(a2)
    293c:	00b62023          	sw	a1,0(a2)

00002940 <test_2>:
    2940:	00005097          	auipc	ra,0x5
    2944:	68c08093          	add	ra,ra,1676 # 7fcc <tdat>
    2948:	00008183          	lb	gp,0(ra)
    294c:	fff00e93          	li	t4,-1
    2950:	00200e13          	li	t3,2
    2954:	23d19c63          	bne	gp,t4,2b8c <fail>

00002958 <test_3>:
    2958:	00005097          	auipc	ra,0x5
    295c:	67408093          	add	ra,ra,1652 # 7fcc <tdat>
    2960:	00108183          	lb	gp,1(ra)
    2964:	00000e93          	li	t4,0
    2968:	00300e13          	li	t3,3
    296c:	23d19063          	bne	gp,t4,2b8c <fail>

00002970 <test_4>:
    2970:	00005097          	auipc	ra,0x5
    2974:	65c08093          	add	ra,ra,1628 # 7fcc <tdat>
    2978:	00208183          	lb	gp,2(ra)
    297c:	ff000e93          	li	t4,-16
    2980:	00400e13          	li	t3,4
    2984:	21d19463          	bne	gp,t4,2b8c <fail>

00002988 <test_5>:
    2988:	00005097          	auipc	ra,0x5
    298c:	64408093          	add	ra,ra,1604 # 7fcc <tdat>
    2990:	00308183          	lb	gp,3(ra)
    2994:	00f00e93          	li	t4,15
    2998:	00500e13          	li	t3,5
    299c:	1fd19863          	bne	gp,t4,2b8c <fail>

000029a0 <test_6>:
    29a0:	00005097          	auipc	ra,0x5
    29a4:	62f08093          	add	ra,ra,1583 # 7fcf <tdat4>
    29a8:	ffd08183          	lb	gp,-3(ra)
    29ac:	fff00e93          	li	t4,-1
    29b0:	00600e13          	li	t3,6
    29b4:	1dd19c63          	bne	gp,t4,2b8c <fail>

000029b8 <test_7>:
    29b8:	00005097          	auipc	ra,0x5
    29bc:	61708093          	add	ra,ra,1559 # 7fcf <tdat4>
    29c0:	ffe08183          	lb	gp,-2(ra)
    29c4:	00000e93          	li	t4,0
    29c8:	00700e13          	li	t3,7
    29cc:	1dd19063          	bne	gp,t4,2b8c <fail>

000029d0 <test_8>:
    29d0:	00005097          	auipc	ra,0x5
    29d4:	5ff08093          	add	ra,ra,1535 # 7fcf <tdat4>
    29d8:	fff08183          	lb	gp,-1(ra)
    29dc:	ff000e93          	li	t4,-16
    29e0:	00800e13          	li	t3,8
    29e4:	1bd19463          	bne	gp,t4,2b8c <fail>

000029e8 <test_9>:
    29e8:	00005097          	auipc	ra,0x5
    29ec:	5e708093          	add	ra,ra,1511 # 7fcf <tdat4>
    29f0:	00008183          	lb	gp,0(ra)
    29f4:	00f00e93          	li	t4,15
    29f8:	00900e13          	li	t3,9
    29fc:	19d19863          	bne	gp,t4,2b8c <fail>

00002a00 <test_10>:
    2a00:	00005097          	auipc	ra,0x5
    2a04:	5cc08093          	add	ra,ra,1484 # 7fcc <tdat>
    2a08:	fe008093          	add	ra,ra,-32
    2a0c:	02008183          	lb	gp,32(ra)
    2a10:	fff00e93          	li	t4,-1
    2a14:	00a00e13          	li	t3,10
    2a18:	17d19a63          	bne	gp,t4,2b8c <fail>

00002a1c <test_11>:
    2a1c:	00005097          	auipc	ra,0x5
    2a20:	5b008093          	add	ra,ra,1456 # 7fcc <tdat>
    2a24:	ffa08093          	add	ra,ra,-6
    2a28:	00708183          	lb	gp,7(ra)
    2a2c:	00000e93          	li	t4,0
    2a30:	00b00e13          	li	t3,11
    2a34:	15d19c63          	bne	gp,t4,2b8c <fail>

00002a38 <test_12>:
    2a38:	00c00e13          	li	t3,12
    2a3c:	00000213          	li	tp,0
    2a40:	00005097          	auipc	ra,0x5
    2a44:	58d08093          	add	ra,ra,1421 # 7fcd <tdat2>
    2a48:	00108183          	lb	gp,1(ra)
    2a4c:	00018313          	mv	t1,gp
    2a50:	ff000e93          	li	t4,-16
    2a54:	13d31c63          	bne	t1,t4,2b8c <fail>
    2a58:	00120213          	add	tp,tp,1 # 1 <_start+0x1>
    2a5c:	00200293          	li	t0,2
    2a60:	fe5210e3          	bne	tp,t0,2a40 <test_12+0x8>

00002a64 <test_13>:
    2a64:	00d00e13          	li	t3,13
    2a68:	00000213          	li	tp,0
    2a6c:	00005097          	auipc	ra,0x5
    2a70:	56208093          	add	ra,ra,1378 # 7fce <tdat3>
    2a74:	00108183          	lb	gp,1(ra)
    2a78:	00000013          	nop
    2a7c:	00018313          	mv	t1,gp
    2a80:	00f00e93          	li	t4,15
    2a84:	11d31463          	bne	t1,t4,2b8c <fail>
    2a88:	00120213          	add	tp,tp,1 # 1 <_start+0x1>
    2a8c:	00200293          	li	t0,2
    2a90:	fc521ee3          	bne	tp,t0,2a6c <test_13+0x8>

00002a94 <test_14>:
    2a94:	00e00e13          	li	t3,14
    2a98:	00000213          	li	tp,0
    2a9c:	00005097          	auipc	ra,0x5
    2aa0:	53008093          	add	ra,ra,1328 # 7fcc <tdat>
    2aa4:	00108183          	lb	gp,1(ra)
    2aa8:	00000013          	nop
    2aac:	00000013          	nop
    2ab0:	00018313          	mv	t1,gp
    2ab4:	00000e93          	li	t4,0
    2ab8:	0dd31a63          	bne	t1,t4,2b8c <fail>
    2abc:	00120213          	add	tp,tp,1 # 1 <_start+0x1>
    2ac0:	00200293          	li	t0,2
    2ac4:	fc521ce3          	bne	tp,t0,2a9c <test_14+0x8>

00002ac8 <test_15>:
    2ac8:	00f00e13          	li	t3,15
    2acc:	00000213          	li	tp,0
    2ad0:	00005097          	auipc	ra,0x5
    2ad4:	4fd08093          	add	ra,ra,1277 # 7fcd <tdat2>
    2ad8:	00108183          	lb	gp,1(ra)
    2adc:	ff000e93          	li	t4,-16
    2ae0:	0bd19663          	bne	gp,t4,2b8c <fail>
    2ae4:	00120213          	add	tp,tp,1 # 1 <_start+0x1>
    2ae8:	00200293          	li	t0,2
    2aec:	fe5212e3          	bne	tp,t0,2ad0 <test_15+0x8>

00002af0 <test_16>:
    2af0:	01000e13          	li	t3,16
    2af4:	00000213          	li	tp,0
    2af8:	00005097          	auipc	ra,0x5
    2afc:	4d608093          	add	ra,ra,1238 # 7fce <tdat3>
    2b00:	00000013          	nop
    2b04:	00108183          	lb	gp,1(ra)
    2b08:	00f00e93          	li	t4,15
    2b0c:	09d19063          	bne	gp,t4,2b8c <fail>
    2b10:	00120213          	add	tp,tp,1 # 1 <_start+0x1>
    2b14:	00200293          	li	t0,2
    2b18:	fe5210e3          	bne	tp,t0,2af8 <test_16+0x8>

00002b1c <test_17>:
    2b1c:	01100e13          	li	t3,17
    2b20:	00000213          	li	tp,0
    2b24:	00005097          	auipc	ra,0x5
    2b28:	4a808093          	add	ra,ra,1192 # 7fcc <tdat>
    2b2c:	00000013          	nop
    2b30:	00000013          	nop
    2b34:	00108183          	lb	gp,1(ra)
    2b38:	00000e93          	li	t4,0
    2b3c:	05d19863          	bne	gp,t4,2b8c <fail>
    2b40:	00120213          	add	tp,tp,1 # 1 <_start+0x1>
    2b44:	00200293          	li	t0,2
    2b48:	fc521ee3          	bne	tp,t0,2b24 <test_17+0x8>

00002b4c <test_18>:
    2b4c:	00005197          	auipc	gp,0x5
    2b50:	48018193          	add	gp,gp,1152 # 7fcc <tdat>
    2b54:	00018103          	lb	sp,0(gp)
    2b58:	00200113          	li	sp,2
    2b5c:	00200e93          	li	t4,2
    2b60:	01200e13          	li	t3,18
    2b64:	03d11463          	bne	sp,t4,2b8c <fail>

00002b68 <test_19>:
    2b68:	00005197          	auipc	gp,0x5
    2b6c:	46418193          	add	gp,gp,1124 # 7fcc <tdat>
    2b70:	00018103          	lb	sp,0(gp)
    2b74:	00000013          	nop
    2b78:	00200113          	li	sp,2
    2b7c:	00200e93          	li	t4,2
    2b80:	01300e13          	li	t3,19
    2b84:	01d11463          	bne	sp,t4,2b8c <fail>
    2b88:	03c01a63          	bne	zero,t3,2bbc <pass>

00002b8c <fail>:
    2b8c:	10000537          	lui	a0,0x10000
    2b90:	04500593          	li	a1,69
    2b94:	05200613          	li	a2,82
    2b98:	04f00693          	li	a3,79
    2b9c:	00a00713          	li	a4,10
    2ba0:	00b52023          	sw	a1,0(a0) # 10000000 <tdat10+0xfff7fc8>
    2ba4:	00c52023          	sw	a2,0(a0)
    2ba8:	00c52023          	sw	a2,0(a0)
    2bac:	00d52023          	sw	a3,0(a0)
    2bb0:	00c52023          	sw	a2,0(a0)
    2bb4:	00e52023          	sw	a4,0(a0)
    2bb8:	00100073          	ebreak

00002bbc <pass>:
    2bbc:	10000537          	lui	a0,0x10000
    2bc0:	04f00593          	li	a1,79
    2bc4:	04b00613          	li	a2,75
    2bc8:	00a00693          	li	a3,10
    2bcc:	00b52023          	sw	a1,0(a0) # 10000000 <tdat10+0xfff7fc8>
    2bd0:	00c52023          	sw	a2,0(a0)
    2bd4:	00d52023          	sw	a3,0(a0)
    2bd8:	c5cfd06f          	j	34 <lb_ret>

00002bdc <lbu>:
    2bdc:	00003537          	lui	a0,0x3
    2be0:	bfc50513          	add	a0,a0,-1028 # 2bfc <.test_name>
    2be4:	10000637          	lui	a2,0x10000

00002be8 <.prname_next>:
    2be8:	00050583          	lb	a1,0(a0)
    2bec:	00058a63          	beqz	a1,2c00 <.prname_done>
    2bf0:	00b62023          	sw	a1,0(a2) # 10000000 <tdat10+0xfff7fc8>
    2bf4:	00150513          	add	a0,a0,1
    2bf8:	ff1ff06f          	j	2be8 <.prname_next>

00002bfc <.test_name>:
    2bfc:	626c                	.2byte	0x626c
    2bfe:	0075                	.2byte	0x75

00002c00 <.prname_done>:
    2c00:	02e00593          	li	a1,46
    2c04:	00b62023          	sw	a1,0(a2)
    2c08:	00b62023          	sw	a1,0(a2)

00002c0c <test_2>:
    2c0c:	00005097          	auipc	ra,0x5
    2c10:	3c408093          	add	ra,ra,964 # 7fd0 <tdat>
    2c14:	0000c183          	lbu	gp,0(ra)
    2c18:	0ff00e93          	li	t4,255
    2c1c:	00200e13          	li	t3,2
    2c20:	23d19c63          	bne	gp,t4,2e58 <fail>

00002c24 <test_3>:
    2c24:	00005097          	auipc	ra,0x5
    2c28:	3ac08093          	add	ra,ra,940 # 7fd0 <tdat>
    2c2c:	0010c183          	lbu	gp,1(ra)
    2c30:	00000e93          	li	t4,0
    2c34:	00300e13          	li	t3,3
    2c38:	23d19063          	bne	gp,t4,2e58 <fail>

00002c3c <test_4>:
    2c3c:	00005097          	auipc	ra,0x5
    2c40:	39408093          	add	ra,ra,916 # 7fd0 <tdat>
    2c44:	0020c183          	lbu	gp,2(ra)
    2c48:	0f000e93          	li	t4,240
    2c4c:	00400e13          	li	t3,4
    2c50:	21d19463          	bne	gp,t4,2e58 <fail>

00002c54 <test_5>:
    2c54:	00005097          	auipc	ra,0x5
    2c58:	37c08093          	add	ra,ra,892 # 7fd0 <tdat>
    2c5c:	0030c183          	lbu	gp,3(ra)
    2c60:	00f00e93          	li	t4,15
    2c64:	00500e13          	li	t3,5
    2c68:	1fd19863          	bne	gp,t4,2e58 <fail>

00002c6c <test_6>:
    2c6c:	00005097          	auipc	ra,0x5
    2c70:	36708093          	add	ra,ra,871 # 7fd3 <tdat4>
    2c74:	ffd0c183          	lbu	gp,-3(ra)
    2c78:	0ff00e93          	li	t4,255
    2c7c:	00600e13          	li	t3,6
    2c80:	1dd19c63          	bne	gp,t4,2e58 <fail>

00002c84 <test_7>:
    2c84:	00005097          	auipc	ra,0x5
    2c88:	34f08093          	add	ra,ra,847 # 7fd3 <tdat4>
    2c8c:	ffe0c183          	lbu	gp,-2(ra)
    2c90:	00000e93          	li	t4,0
    2c94:	00700e13          	li	t3,7
    2c98:	1dd19063          	bne	gp,t4,2e58 <fail>

00002c9c <test_8>:
    2c9c:	00005097          	auipc	ra,0x5
    2ca0:	33708093          	add	ra,ra,823 # 7fd3 <tdat4>
    2ca4:	fff0c183          	lbu	gp,-1(ra)
    2ca8:	0f000e93          	li	t4,240
    2cac:	00800e13          	li	t3,8
    2cb0:	1bd19463          	bne	gp,t4,2e58 <fail>

00002cb4 <test_9>:
    2cb4:	00005097          	auipc	ra,0x5
    2cb8:	31f08093          	add	ra,ra,799 # 7fd3 <tdat4>
    2cbc:	0000c183          	lbu	gp,0(ra)
    2cc0:	00f00e93          	li	t4,15
    2cc4:	00900e13          	li	t3,9
    2cc8:	19d19863          	bne	gp,t4,2e58 <fail>

00002ccc <test_10>:
    2ccc:	00005097          	auipc	ra,0x5
    2cd0:	30408093          	add	ra,ra,772 # 7fd0 <tdat>
    2cd4:	fe008093          	add	ra,ra,-32
    2cd8:	0200c183          	lbu	gp,32(ra)
    2cdc:	0ff00e93          	li	t4,255
    2ce0:	00a00e13          	li	t3,10
    2ce4:	17d19a63          	bne	gp,t4,2e58 <fail>

00002ce8 <test_11>:
    2ce8:	00005097          	auipc	ra,0x5
    2cec:	2e808093          	add	ra,ra,744 # 7fd0 <tdat>
    2cf0:	ffa08093          	add	ra,ra,-6
    2cf4:	0070c183          	lbu	gp,7(ra)
    2cf8:	00000e93          	li	t4,0
    2cfc:	00b00e13          	li	t3,11
    2d00:	15d19c63          	bne	gp,t4,2e58 <fail>

00002d04 <test_12>:
    2d04:	00c00e13          	li	t3,12
    2d08:	00000213          	li	tp,0
    2d0c:	00005097          	auipc	ra,0x5
    2d10:	2c508093          	add	ra,ra,709 # 7fd1 <tdat2>
    2d14:	0010c183          	lbu	gp,1(ra)
    2d18:	00018313          	mv	t1,gp
    2d1c:	0f000e93          	li	t4,240
    2d20:	13d31c63          	bne	t1,t4,2e58 <fail>
    2d24:	00120213          	add	tp,tp,1 # 1 <_start+0x1>
    2d28:	00200293          	li	t0,2
    2d2c:	fe5210e3          	bne	tp,t0,2d0c <test_12+0x8>

00002d30 <test_13>:
    2d30:	00d00e13          	li	t3,13
    2d34:	00000213          	li	tp,0
    2d38:	00005097          	auipc	ra,0x5
    2d3c:	29a08093          	add	ra,ra,666 # 7fd2 <tdat3>
    2d40:	0010c183          	lbu	gp,1(ra)
    2d44:	00000013          	nop
    2d48:	00018313          	mv	t1,gp
    2d4c:	00f00e93          	li	t4,15
    2d50:	11d31463          	bne	t1,t4,2e58 <fail>
    2d54:	00120213          	add	tp,tp,1 # 1 <_start+0x1>
    2d58:	00200293          	li	t0,2
    2d5c:	fc521ee3          	bne	tp,t0,2d38 <test_13+0x8>

00002d60 <test_14>:
    2d60:	00e00e13          	li	t3,14
    2d64:	00000213          	li	tp,0
    2d68:	00005097          	auipc	ra,0x5
    2d6c:	26808093          	add	ra,ra,616 # 7fd0 <tdat>
    2d70:	0010c183          	lbu	gp,1(ra)
    2d74:	00000013          	nop
    2d78:	00000013          	nop
    2d7c:	00018313          	mv	t1,gp
    2d80:	00000e93          	li	t4,0
    2d84:	0dd31a63          	bne	t1,t4,2e58 <fail>
    2d88:	00120213          	add	tp,tp,1 # 1 <_start+0x1>
    2d8c:	00200293          	li	t0,2
    2d90:	fc521ce3          	bne	tp,t0,2d68 <test_14+0x8>

00002d94 <test_15>:
    2d94:	00f00e13          	li	t3,15
    2d98:	00000213          	li	tp,0
    2d9c:	00005097          	auipc	ra,0x5
    2da0:	23508093          	add	ra,ra,565 # 7fd1 <tdat2>
    2da4:	0010c183          	lbu	gp,1(ra)
    2da8:	0f000e93          	li	t4,240
    2dac:	0bd19663          	bne	gp,t4,2e58 <fail>
    2db0:	00120213          	add	tp,tp,1 # 1 <_start+0x1>
    2db4:	00200293          	li	t0,2
    2db8:	fe5212e3          	bne	tp,t0,2d9c <test_15+0x8>

00002dbc <test_16>:
    2dbc:	01000e13          	li	t3,16
    2dc0:	00000213          	li	tp,0
    2dc4:	00005097          	auipc	ra,0x5
    2dc8:	20e08093          	add	ra,ra,526 # 7fd2 <tdat3>
    2dcc:	00000013          	nop
    2dd0:	0010c183          	lbu	gp,1(ra)
    2dd4:	00f00e93          	li	t4,15
    2dd8:	09d19063          	bne	gp,t4,2e58 <fail>
    2ddc:	00120213          	add	tp,tp,1 # 1 <_start+0x1>
    2de0:	00200293          	li	t0,2
    2de4:	fe5210e3          	bne	tp,t0,2dc4 <test_16+0x8>

00002de8 <test_17>:
    2de8:	01100e13          	li	t3,17
    2dec:	00000213          	li	tp,0
    2df0:	00005097          	auipc	ra,0x5
    2df4:	1e008093          	add	ra,ra,480 # 7fd0 <tdat>
    2df8:	00000013          	nop
    2dfc:	00000013          	nop
    2e00:	0010c183          	lbu	gp,1(ra)
    2e04:	00000e93          	li	t4,0
    2e08:	05d19863          	bne	gp,t4,2e58 <fail>
    2e0c:	00120213          	add	tp,tp,1 # 1 <_start+0x1>
    2e10:	00200293          	li	t0,2
    2e14:	fc521ee3          	bne	tp,t0,2df0 <test_17+0x8>

00002e18 <test_18>:
    2e18:	00005197          	auipc	gp,0x5
    2e1c:	1b818193          	add	gp,gp,440 # 7fd0 <tdat>
    2e20:	0001c103          	lbu	sp,0(gp)
    2e24:	00200113          	li	sp,2
    2e28:	00200e93          	li	t4,2
    2e2c:	01200e13          	li	t3,18
    2e30:	03d11463          	bne	sp,t4,2e58 <fail>

00002e34 <test_19>:
    2e34:	00005197          	auipc	gp,0x5
    2e38:	19c18193          	add	gp,gp,412 # 7fd0 <tdat>
    2e3c:	0001c103          	lbu	sp,0(gp)
    2e40:	00000013          	nop
    2e44:	00200113          	li	sp,2
    2e48:	00200e93          	li	t4,2
    2e4c:	01300e13          	li	t3,19
    2e50:	01d11463          	bne	sp,t4,2e58 <fail>
    2e54:	03c01a63          	bne	zero,t3,2e88 <pass>

00002e58 <fail>:
    2e58:	10000537          	lui	a0,0x10000
    2e5c:	04500593          	li	a1,69
    2e60:	05200613          	li	a2,82
    2e64:	04f00693          	li	a3,79
    2e68:	00a00713          	li	a4,10
    2e6c:	00b52023          	sw	a1,0(a0) # 10000000 <tdat10+0xfff7fc8>
    2e70:	00c52023          	sw	a2,0(a0)
    2e74:	00c52023          	sw	a2,0(a0)
    2e78:	00d52023          	sw	a3,0(a0)
    2e7c:	00c52023          	sw	a2,0(a0)
    2e80:	00e52023          	sw	a4,0(a0)
    2e84:	00100073          	ebreak

00002e88 <pass>:
    2e88:	10000537          	lui	a0,0x10000
    2e8c:	04f00593          	li	a1,79
    2e90:	04b00613          	li	a2,75
    2e94:	00a00693          	li	a3,10
    2e98:	00b52023          	sw	a1,0(a0) # 10000000 <tdat10+0xfff7fc8>
    2e9c:	00c52023          	sw	a2,0(a0)
    2ea0:	00d52023          	sw	a3,0(a0)
    2ea4:	99cfd06f          	j	40 <lbu_ret>

00002ea8 <lh>:
    2ea8:	00003537          	lui	a0,0x3
    2eac:	ec850513          	add	a0,a0,-312 # 2ec8 <.test_name>
    2eb0:	10000637          	lui	a2,0x10000

00002eb4 <.prname_next>:
    2eb4:	00050583          	lb	a1,0(a0)
    2eb8:	00058a63          	beqz	a1,2ecc <.prname_done>
    2ebc:	00b62023          	sw	a1,0(a2) # 10000000 <tdat10+0xfff7fc8>
    2ec0:	00150513          	add	a0,a0,1
    2ec4:	ff1ff06f          	j	2eb4 <.prname_next>

00002ec8 <.test_name>:
    2ec8:	686c                	.2byte	0x686c
	...

00002ecc <.prname_done>:
    2ecc:	02e00593          	li	a1,46
    2ed0:	00b62023          	sw	a1,0(a2)
    2ed4:	00b62023          	sw	a1,0(a2)

00002ed8 <test_2>:
    2ed8:	00005097          	auipc	ra,0x5
    2edc:	0fc08093          	add	ra,ra,252 # 7fd4 <tdat>
    2ee0:	00009183          	lh	gp,0(ra)
    2ee4:	0ff00e93          	li	t4,255
    2ee8:	00200e13          	li	t3,2
    2eec:	25d19c63          	bne	gp,t4,3144 <fail>

00002ef0 <test_3>:
    2ef0:	00005097          	auipc	ra,0x5
    2ef4:	0e408093          	add	ra,ra,228 # 7fd4 <tdat>
    2ef8:	00209183          	lh	gp,2(ra)
    2efc:	f0000e93          	li	t4,-256
    2f00:	00300e13          	li	t3,3
    2f04:	25d19063          	bne	gp,t4,3144 <fail>

00002f08 <test_4>:
    2f08:	00005097          	auipc	ra,0x5
    2f0c:	0cc08093          	add	ra,ra,204 # 7fd4 <tdat>
    2f10:	00409183          	lh	gp,4(ra)
    2f14:	00001eb7          	lui	t4,0x1
    2f18:	ff0e8e93          	add	t4,t4,-16 # ff0 <test_25+0x14>
    2f1c:	00400e13          	li	t3,4
    2f20:	23d19263          	bne	gp,t4,3144 <fail>

00002f24 <test_5>:
    2f24:	00005097          	auipc	ra,0x5
    2f28:	0b008093          	add	ra,ra,176 # 7fd4 <tdat>
    2f2c:	00609183          	lh	gp,6(ra)
    2f30:	fffffeb7          	lui	t4,0xfffff
    2f34:	00fe8e93          	add	t4,t4,15 # fffff00f <tdat10+0xffff6fd7>
    2f38:	00500e13          	li	t3,5
    2f3c:	21d19463          	bne	gp,t4,3144 <fail>

00002f40 <test_6>:
    2f40:	00005097          	auipc	ra,0x5
    2f44:	09a08093          	add	ra,ra,154 # 7fda <tdat4>
    2f48:	ffa09183          	lh	gp,-6(ra)
    2f4c:	0ff00e93          	li	t4,255
    2f50:	00600e13          	li	t3,6
    2f54:	1fd19863          	bne	gp,t4,3144 <fail>

00002f58 <test_7>:
    2f58:	00005097          	auipc	ra,0x5
    2f5c:	08208093          	add	ra,ra,130 # 7fda <tdat4>
    2f60:	ffc09183          	lh	gp,-4(ra)
    2f64:	f0000e93          	li	t4,-256
    2f68:	00700e13          	li	t3,7
    2f6c:	1dd19c63          	bne	gp,t4,3144 <fail>

00002f70 <test_8>:
    2f70:	00005097          	auipc	ra,0x5
    2f74:	06a08093          	add	ra,ra,106 # 7fda <tdat4>
    2f78:	ffe09183          	lh	gp,-2(ra)
    2f7c:	00001eb7          	lui	t4,0x1
    2f80:	ff0e8e93          	add	t4,t4,-16 # ff0 <test_25+0x14>
    2f84:	00800e13          	li	t3,8
    2f88:	1bd19e63          	bne	gp,t4,3144 <fail>

00002f8c <test_9>:
    2f8c:	00005097          	auipc	ra,0x5
    2f90:	04e08093          	add	ra,ra,78 # 7fda <tdat4>
    2f94:	00009183          	lh	gp,0(ra)
    2f98:	fffffeb7          	lui	t4,0xfffff
    2f9c:	00fe8e93          	add	t4,t4,15 # fffff00f <tdat10+0xffff6fd7>
    2fa0:	00900e13          	li	t3,9
    2fa4:	1bd19063          	bne	gp,t4,3144 <fail>

00002fa8 <test_10>:
    2fa8:	00005097          	auipc	ra,0x5
    2fac:	02c08093          	add	ra,ra,44 # 7fd4 <tdat>
    2fb0:	fe008093          	add	ra,ra,-32
    2fb4:	02009183          	lh	gp,32(ra)
    2fb8:	0ff00e93          	li	t4,255
    2fbc:	00a00e13          	li	t3,10
    2fc0:	19d19263          	bne	gp,t4,3144 <fail>

00002fc4 <test_11>:
    2fc4:	00005097          	auipc	ra,0x5
    2fc8:	01008093          	add	ra,ra,16 # 7fd4 <tdat>
    2fcc:	ffb08093          	add	ra,ra,-5
    2fd0:	00709183          	lh	gp,7(ra)
    2fd4:	f0000e93          	li	t4,-256
    2fd8:	00b00e13          	li	t3,11
    2fdc:	17d19463          	bne	gp,t4,3144 <fail>

00002fe0 <test_12>:
    2fe0:	00c00e13          	li	t3,12
    2fe4:	00000213          	li	tp,0
    2fe8:	00005097          	auipc	ra,0x5
    2fec:	fee08093          	add	ra,ra,-18 # 7fd6 <tdat2>
    2ff0:	00209183          	lh	gp,2(ra)
    2ff4:	00018313          	mv	t1,gp
    2ff8:	00001eb7          	lui	t4,0x1
    2ffc:	ff0e8e93          	add	t4,t4,-16 # ff0 <test_25+0x14>
    3000:	15d31263          	bne	t1,t4,3144 <fail>
    3004:	00120213          	add	tp,tp,1 # 1 <_start+0x1>
    3008:	00200293          	li	t0,2
    300c:	fc521ee3          	bne	tp,t0,2fe8 <test_12+0x8>

00003010 <test_13>:
    3010:	00d00e13          	li	t3,13
    3014:	00000213          	li	tp,0
    3018:	00005097          	auipc	ra,0x5
    301c:	fc008093          	add	ra,ra,-64 # 7fd8 <tdat3>
    3020:	00209183          	lh	gp,2(ra)
    3024:	00000013          	nop
    3028:	00018313          	mv	t1,gp
    302c:	fffffeb7          	lui	t4,0xfffff
    3030:	00fe8e93          	add	t4,t4,15 # fffff00f <tdat10+0xffff6fd7>
    3034:	11d31863          	bne	t1,t4,3144 <fail>
    3038:	00120213          	add	tp,tp,1 # 1 <_start+0x1>
    303c:	00200293          	li	t0,2
    3040:	fc521ce3          	bne	tp,t0,3018 <test_13+0x8>

00003044 <test_14>:
    3044:	00e00e13          	li	t3,14
    3048:	00000213          	li	tp,0
    304c:	00005097          	auipc	ra,0x5
    3050:	f8808093          	add	ra,ra,-120 # 7fd4 <tdat>
    3054:	00209183          	lh	gp,2(ra)
    3058:	00000013          	nop
    305c:	00000013          	nop
    3060:	00018313          	mv	t1,gp
    3064:	f0000e93          	li	t4,-256
    3068:	0dd31e63          	bne	t1,t4,3144 <fail>
    306c:	00120213          	add	tp,tp,1 # 1 <_start+0x1>
    3070:	00200293          	li	t0,2
    3074:	fc521ce3          	bne	tp,t0,304c <test_14+0x8>

00003078 <test_15>:
    3078:	00f00e13          	li	t3,15
    307c:	00000213          	li	tp,0
    3080:	00005097          	auipc	ra,0x5
    3084:	f5608093          	add	ra,ra,-170 # 7fd6 <tdat2>
    3088:	00209183          	lh	gp,2(ra)
    308c:	00001eb7          	lui	t4,0x1
    3090:	ff0e8e93          	add	t4,t4,-16 # ff0 <test_25+0x14>
    3094:	0bd19863          	bne	gp,t4,3144 <fail>
    3098:	00120213          	add	tp,tp,1 # 1 <_start+0x1>
    309c:	00200293          	li	t0,2
    30a0:	fe5210e3          	bne	tp,t0,3080 <test_15+0x8>

000030a4 <test_16>:
    30a4:	01000e13          	li	t3,16
    30a8:	00000213          	li	tp,0
    30ac:	00005097          	auipc	ra,0x5
    30b0:	f2c08093          	add	ra,ra,-212 # 7fd8 <tdat3>
    30b4:	00000013          	nop
    30b8:	00209183          	lh	gp,2(ra)
    30bc:	fffffeb7          	lui	t4,0xfffff
    30c0:	00fe8e93          	add	t4,t4,15 # fffff00f <tdat10+0xffff6fd7>
    30c4:	09d19063          	bne	gp,t4,3144 <fail>
    30c8:	00120213          	add	tp,tp,1 # 1 <_start+0x1>
    30cc:	00200293          	li	t0,2
    30d0:	fc521ee3          	bne	tp,t0,30ac <test_16+0x8>

000030d4 <test_17>:
    30d4:	01100e13          	li	t3,17
    30d8:	00000213          	li	tp,0
    30dc:	00005097          	auipc	ra,0x5
    30e0:	ef808093          	add	ra,ra,-264 # 7fd4 <tdat>
    30e4:	00000013          	nop
    30e8:	00000013          	nop
    30ec:	00209183          	lh	gp,2(ra)
    30f0:	f0000e93          	li	t4,-256
    30f4:	05d19863          	bne	gp,t4,3144 <fail>
    30f8:	00120213          	add	tp,tp,1 # 1 <_start+0x1>
    30fc:	00200293          	li	t0,2
    3100:	fc521ee3          	bne	tp,t0,30dc <test_17+0x8>

00003104 <test_18>:
    3104:	00005197          	auipc	gp,0x5
    3108:	ed018193          	add	gp,gp,-304 # 7fd4 <tdat>
    310c:	00019103          	lh	sp,0(gp)
    3110:	00200113          	li	sp,2
    3114:	00200e93          	li	t4,2
    3118:	01200e13          	li	t3,18
    311c:	03d11463          	bne	sp,t4,3144 <fail>

00003120 <test_19>:
    3120:	00005197          	auipc	gp,0x5
    3124:	eb418193          	add	gp,gp,-332 # 7fd4 <tdat>
    3128:	00019103          	lh	sp,0(gp)
    312c:	00000013          	nop
    3130:	00200113          	li	sp,2
    3134:	00200e93          	li	t4,2
    3138:	01300e13          	li	t3,19
    313c:	01d11463          	bne	sp,t4,3144 <fail>
    3140:	03c01a63          	bne	zero,t3,3174 <pass>

00003144 <fail>:
    3144:	10000537          	lui	a0,0x10000
    3148:	04500593          	li	a1,69
    314c:	05200613          	li	a2,82
    3150:	04f00693          	li	a3,79
    3154:	00a00713          	li	a4,10
    3158:	00b52023          	sw	a1,0(a0) # 10000000 <tdat10+0xfff7fc8>
    315c:	00c52023          	sw	a2,0(a0)
    3160:	00c52023          	sw	a2,0(a0)
    3164:	00d52023          	sw	a3,0(a0)
    3168:	00c52023          	sw	a2,0(a0)
    316c:	00e52023          	sw	a4,0(a0)
    3170:	00100073          	ebreak

00003174 <pass>:
    3174:	10000537          	lui	a0,0x10000
    3178:	04f00593          	li	a1,79
    317c:	04b00613          	li	a2,75
    3180:	00a00693          	li	a3,10
    3184:	00b52023          	sw	a1,0(a0) # 10000000 <tdat10+0xfff7fc8>
    3188:	00c52023          	sw	a2,0(a0)
    318c:	00d52023          	sw	a3,0(a0)
    3190:	ea9fc06f          	j	38 <lh_ret>

00003194 <lhu>:
    3194:	00003537          	lui	a0,0x3
    3198:	1b450513          	add	a0,a0,436 # 31b4 <.test_name>
    319c:	10000637          	lui	a2,0x10000

000031a0 <.prname_next>:
    31a0:	00050583          	lb	a1,0(a0)
    31a4:	00058a63          	beqz	a1,31b8 <.prname_done>
    31a8:	00b62023          	sw	a1,0(a2) # 10000000 <tdat10+0xfff7fc8>
    31ac:	00150513          	add	a0,a0,1
    31b0:	ff1ff06f          	j	31a0 <.prname_next>

000031b4 <.test_name>:
    31b4:	686c                	.2byte	0x686c
    31b6:	0075                	.2byte	0x75

000031b8 <.prname_done>:
    31b8:	02e00593          	li	a1,46
    31bc:	00b62023          	sw	a1,0(a2)
    31c0:	00b62023          	sw	a1,0(a2)

000031c4 <test_2>:
    31c4:	00005097          	auipc	ra,0x5
    31c8:	e1808093          	add	ra,ra,-488 # 7fdc <tdat>
    31cc:	0000d183          	lhu	gp,0(ra)
    31d0:	0ff00e93          	li	t4,255
    31d4:	00200e13          	li	t3,2
    31d8:	27d19663          	bne	gp,t4,3444 <fail>

000031dc <test_3>:
    31dc:	00005097          	auipc	ra,0x5
    31e0:	e0008093          	add	ra,ra,-512 # 7fdc <tdat>
    31e4:	0020d183          	lhu	gp,2(ra)
    31e8:	00010eb7          	lui	t4,0x10
    31ec:	f00e8e93          	add	t4,t4,-256 # ff00 <tdat10+0x7ec8>
    31f0:	00300e13          	li	t3,3
    31f4:	25d19863          	bne	gp,t4,3444 <fail>

000031f8 <test_4>:
    31f8:	00005097          	auipc	ra,0x5
    31fc:	de408093          	add	ra,ra,-540 # 7fdc <tdat>
    3200:	0040d183          	lhu	gp,4(ra)
    3204:	00001eb7          	lui	t4,0x1
    3208:	ff0e8e93          	add	t4,t4,-16 # ff0 <test_25+0x14>
    320c:	00400e13          	li	t3,4
    3210:	23d19a63          	bne	gp,t4,3444 <fail>

00003214 <test_5>:
    3214:	00005097          	auipc	ra,0x5
    3218:	dc808093          	add	ra,ra,-568 # 7fdc <tdat>
    321c:	0060d183          	lhu	gp,6(ra)
    3220:	0000feb7          	lui	t4,0xf
    3224:	00fe8e93          	add	t4,t4,15 # f00f <tdat10+0x6fd7>
    3228:	00500e13          	li	t3,5
    322c:	21d19c63          	bne	gp,t4,3444 <fail>

00003230 <test_6>:
    3230:	00005097          	auipc	ra,0x5
    3234:	db208093          	add	ra,ra,-590 # 7fe2 <tdat4>
    3238:	ffa0d183          	lhu	gp,-6(ra)
    323c:	0ff00e93          	li	t4,255
    3240:	00600e13          	li	t3,6
    3244:	21d19063          	bne	gp,t4,3444 <fail>

00003248 <test_7>:
    3248:	00005097          	auipc	ra,0x5
    324c:	d9a08093          	add	ra,ra,-614 # 7fe2 <tdat4>
    3250:	ffc0d183          	lhu	gp,-4(ra)
    3254:	00010eb7          	lui	t4,0x10
    3258:	f00e8e93          	add	t4,t4,-256 # ff00 <tdat10+0x7ec8>
    325c:	00700e13          	li	t3,7
    3260:	1fd19263          	bne	gp,t4,3444 <fail>

00003264 <test_8>:
    3264:	00005097          	auipc	ra,0x5
    3268:	d7e08093          	add	ra,ra,-642 # 7fe2 <tdat4>
    326c:	ffe0d183          	lhu	gp,-2(ra)
    3270:	00001eb7          	lui	t4,0x1
    3274:	ff0e8e93          	add	t4,t4,-16 # ff0 <test_25+0x14>
    3278:	00800e13          	li	t3,8
    327c:	1dd19463          	bne	gp,t4,3444 <fail>

00003280 <test_9>:
    3280:	00005097          	auipc	ra,0x5
    3284:	d6208093          	add	ra,ra,-670 # 7fe2 <tdat4>
    3288:	0000d183          	lhu	gp,0(ra)
    328c:	0000feb7          	lui	t4,0xf
    3290:	00fe8e93          	add	t4,t4,15 # f00f <tdat10+0x6fd7>
    3294:	00900e13          	li	t3,9
    3298:	1bd19663          	bne	gp,t4,3444 <fail>

0000329c <test_10>:
    329c:	00005097          	auipc	ra,0x5
    32a0:	d4008093          	add	ra,ra,-704 # 7fdc <tdat>
    32a4:	fe008093          	add	ra,ra,-32
    32a8:	0200d183          	lhu	gp,32(ra)
    32ac:	0ff00e93          	li	t4,255
    32b0:	00a00e13          	li	t3,10
    32b4:	19d19863          	bne	gp,t4,3444 <fail>

000032b8 <test_11>:
    32b8:	00005097          	auipc	ra,0x5
    32bc:	d2408093          	add	ra,ra,-732 # 7fdc <tdat>
    32c0:	ffb08093          	add	ra,ra,-5
    32c4:	0070d183          	lhu	gp,7(ra)
    32c8:	00010eb7          	lui	t4,0x10
    32cc:	f00e8e93          	add	t4,t4,-256 # ff00 <tdat10+0x7ec8>
    32d0:	00b00e13          	li	t3,11
    32d4:	17d19863          	bne	gp,t4,3444 <fail>

000032d8 <test_12>:
    32d8:	00c00e13          	li	t3,12
    32dc:	00000213          	li	tp,0
    32e0:	00005097          	auipc	ra,0x5
    32e4:	cfe08093          	add	ra,ra,-770 # 7fde <tdat2>
    32e8:	0020d183          	lhu	gp,2(ra)
    32ec:	00018313          	mv	t1,gp
    32f0:	00001eb7          	lui	t4,0x1
    32f4:	ff0e8e93          	add	t4,t4,-16 # ff0 <test_25+0x14>
    32f8:	15d31663          	bne	t1,t4,3444 <fail>
    32fc:	00120213          	add	tp,tp,1 # 1 <_start+0x1>
    3300:	00200293          	li	t0,2
    3304:	fc521ee3          	bne	tp,t0,32e0 <test_12+0x8>

00003308 <test_13>:
    3308:	00d00e13          	li	t3,13
    330c:	00000213          	li	tp,0
    3310:	00005097          	auipc	ra,0x5
    3314:	cd008093          	add	ra,ra,-816 # 7fe0 <tdat3>
    3318:	0020d183          	lhu	gp,2(ra)
    331c:	00000013          	nop
    3320:	00018313          	mv	t1,gp
    3324:	0000feb7          	lui	t4,0xf
    3328:	00fe8e93          	add	t4,t4,15 # f00f <tdat10+0x6fd7>
    332c:	11d31c63          	bne	t1,t4,3444 <fail>
    3330:	00120213          	add	tp,tp,1 # 1 <_start+0x1>
    3334:	00200293          	li	t0,2
    3338:	fc521ce3          	bne	tp,t0,3310 <test_13+0x8>

0000333c <test_14>:
    333c:	00e00e13          	li	t3,14
    3340:	00000213          	li	tp,0
    3344:	00005097          	auipc	ra,0x5
    3348:	c9808093          	add	ra,ra,-872 # 7fdc <tdat>
    334c:	0020d183          	lhu	gp,2(ra)
    3350:	00000013          	nop
    3354:	00000013          	nop
    3358:	00018313          	mv	t1,gp
    335c:	00010eb7          	lui	t4,0x10
    3360:	f00e8e93          	add	t4,t4,-256 # ff00 <tdat10+0x7ec8>
    3364:	0fd31063          	bne	t1,t4,3444 <fail>
    3368:	00120213          	add	tp,tp,1 # 1 <_start+0x1>
    336c:	00200293          	li	t0,2
    3370:	fc521ae3          	bne	tp,t0,3344 <test_14+0x8>

00003374 <test_15>:
    3374:	00f00e13          	li	t3,15
    3378:	00000213          	li	tp,0
    337c:	00005097          	auipc	ra,0x5
    3380:	c6208093          	add	ra,ra,-926 # 7fde <tdat2>
    3384:	0020d183          	lhu	gp,2(ra)
    3388:	00001eb7          	lui	t4,0x1
    338c:	ff0e8e93          	add	t4,t4,-16 # ff0 <test_25+0x14>
    3390:	0bd19a63          	bne	gp,t4,3444 <fail>
    3394:	00120213          	add	tp,tp,1 # 1 <_start+0x1>
    3398:	00200293          	li	t0,2
    339c:	fe5210e3          	bne	tp,t0,337c <test_15+0x8>

000033a0 <test_16>:
    33a0:	01000e13          	li	t3,16
    33a4:	00000213          	li	tp,0
    33a8:	00005097          	auipc	ra,0x5
    33ac:	c3808093          	add	ra,ra,-968 # 7fe0 <tdat3>
    33b0:	00000013          	nop
    33b4:	0020d183          	lhu	gp,2(ra)
    33b8:	0000feb7          	lui	t4,0xf
    33bc:	00fe8e93          	add	t4,t4,15 # f00f <tdat10+0x6fd7>
    33c0:	09d19263          	bne	gp,t4,3444 <fail>
    33c4:	00120213          	add	tp,tp,1 # 1 <_start+0x1>
    33c8:	00200293          	li	t0,2
    33cc:	fc521ee3          	bne	tp,t0,33a8 <test_16+0x8>

000033d0 <test_17>:
    33d0:	01100e13          	li	t3,17
    33d4:	00000213          	li	tp,0
    33d8:	00005097          	auipc	ra,0x5
    33dc:	c0408093          	add	ra,ra,-1020 # 7fdc <tdat>
    33e0:	00000013          	nop
    33e4:	00000013          	nop
    33e8:	0020d183          	lhu	gp,2(ra)
    33ec:	00010eb7          	lui	t4,0x10
    33f0:	f00e8e93          	add	t4,t4,-256 # ff00 <tdat10+0x7ec8>
    33f4:	05d19863          	bne	gp,t4,3444 <fail>
    33f8:	00120213          	add	tp,tp,1 # 1 <_start+0x1>
    33fc:	00200293          	li	t0,2
    3400:	fc521ce3          	bne	tp,t0,33d8 <test_17+0x8>

00003404 <test_18>:
    3404:	00005197          	auipc	gp,0x5
    3408:	bd818193          	add	gp,gp,-1064 # 7fdc <tdat>
    340c:	0001d103          	lhu	sp,0(gp)
    3410:	00200113          	li	sp,2
    3414:	00200e93          	li	t4,2
    3418:	01200e13          	li	t3,18
    341c:	03d11463          	bne	sp,t4,3444 <fail>

00003420 <test_19>:
    3420:	00005197          	auipc	gp,0x5
    3424:	bbc18193          	add	gp,gp,-1092 # 7fdc <tdat>
    3428:	0001d103          	lhu	sp,0(gp)
    342c:	00000013          	nop
    3430:	00200113          	li	sp,2
    3434:	00200e93          	li	t4,2
    3438:	01300e13          	li	t3,19
    343c:	01d11463          	bne	sp,t4,3444 <fail>
    3440:	03c01a63          	bne	zero,t3,3474 <pass>

00003444 <fail>:
    3444:	10000537          	lui	a0,0x10000
    3448:	04500593          	li	a1,69
    344c:	05200613          	li	a2,82
    3450:	04f00693          	li	a3,79
    3454:	00a00713          	li	a4,10
    3458:	00b52023          	sw	a1,0(a0) # 10000000 <tdat10+0xfff7fc8>
    345c:	00c52023          	sw	a2,0(a0)
    3460:	00c52023          	sw	a2,0(a0)
    3464:	00d52023          	sw	a3,0(a0)
    3468:	00c52023          	sw	a2,0(a0)
    346c:	00e52023          	sw	a4,0(a0)
    3470:	00100073          	ebreak

00003474 <pass>:
    3474:	10000537          	lui	a0,0x10000
    3478:	04f00593          	li	a1,79
    347c:	04b00613          	li	a2,75
    3480:	00a00693          	li	a3,10
    3484:	00b52023          	sw	a1,0(a0) # 10000000 <tdat10+0xfff7fc8>
    3488:	00c52023          	sw	a2,0(a0)
    348c:	00d52023          	sw	a3,0(a0)
    3490:	bb5fc06f          	j	44 <lhu_ret>

00003494 <lui>:
    3494:	00003537          	lui	a0,0x3
    3498:	4b450513          	add	a0,a0,1204 # 34b4 <.test_name>
    349c:	10000637          	lui	a2,0x10000

000034a0 <.prname_next>:
    34a0:	00050583          	lb	a1,0(a0)
    34a4:	00058a63          	beqz	a1,34b8 <.prname_done>
    34a8:	00b62023          	sw	a1,0(a2) # 10000000 <tdat10+0xfff7fc8>
    34ac:	00150513          	add	a0,a0,1
    34b0:	ff1ff06f          	j	34a0 <.prname_next>

000034b4 <.test_name>:
    34b4:	756c                	.2byte	0x756c
    34b6:	0069                	.2byte	0x69

000034b8 <.prname_done>:
    34b8:	02e00593          	li	a1,46
    34bc:	00b62023          	sw	a1,0(a2)
    34c0:	00b62023          	sw	a1,0(a2)

000034c4 <test_2>:
    34c4:	000000b7          	lui	ra,0x0
    34c8:	00000e93          	li	t4,0
    34cc:	00200e13          	li	t3,2
    34d0:	05d09a63          	bne	ra,t4,3524 <fail>

000034d4 <test_3>:
    34d4:	fffff0b7          	lui	ra,0xfffff
    34d8:	4010d093          	sra	ra,ra,0x1
    34dc:	80000e93          	li	t4,-2048
    34e0:	00300e13          	li	t3,3
    34e4:	05d09063          	bne	ra,t4,3524 <fail>

000034e8 <test_4>:
    34e8:	7ffff0b7          	lui	ra,0x7ffff
    34ec:	4140d093          	sra	ra,ra,0x14
    34f0:	7ff00e93          	li	t4,2047
    34f4:	00400e13          	li	t3,4
    34f8:	03d09663          	bne	ra,t4,3524 <fail>

000034fc <test_5>:
    34fc:	800000b7          	lui	ra,0x80000
    3500:	4140d093          	sra	ra,ra,0x14
    3504:	80000e93          	li	t4,-2048
    3508:	00500e13          	li	t3,5
    350c:	01d09c63          	bne	ra,t4,3524 <fail>

00003510 <test_6>:
    3510:	80000037          	lui	zero,0x80000
    3514:	00000e93          	li	t4,0
    3518:	00600e13          	li	t3,6
    351c:	01d01463          	bne	zero,t4,3524 <fail>
    3520:	03c01a63          	bne	zero,t3,3554 <pass>

00003524 <fail>:
    3524:	10000537          	lui	a0,0x10000
    3528:	04500593          	li	a1,69
    352c:	05200613          	li	a2,82
    3530:	04f00693          	li	a3,79
    3534:	00a00713          	li	a4,10
    3538:	00b52023          	sw	a1,0(a0) # 10000000 <tdat10+0xfff7fc8>
    353c:	00c52023          	sw	a2,0(a0)
    3540:	00c52023          	sw	a2,0(a0)
    3544:	00d52023          	sw	a3,0(a0)
    3548:	00c52023          	sw	a2,0(a0)
    354c:	00e52023          	sw	a4,0(a0)
    3550:	00100073          	ebreak

00003554 <pass>:
    3554:	10000537          	lui	a0,0x10000
    3558:	04f00593          	li	a1,79
    355c:	04b00613          	li	a2,75
    3560:	00a00693          	li	a3,10
    3564:	00b52023          	sw	a1,0(a0) # 10000000 <tdat10+0xfff7fc8>
    3568:	00c52023          	sw	a2,0(a0)
    356c:	00d52023          	sw	a3,0(a0)
    3570:	a99fc06f          	j	8 <lui_ret>

00003574 <lw>:
    3574:	00003537          	lui	a0,0x3
    3578:	59450513          	add	a0,a0,1428 # 3594 <.test_name>
    357c:	10000637          	lui	a2,0x10000

00003580 <.prname_next>:
    3580:	00050583          	lb	a1,0(a0)
    3584:	00058a63          	beqz	a1,3598 <.prname_done>
    3588:	00b62023          	sw	a1,0(a2) # 10000000 <tdat10+0xfff7fc8>
    358c:	00150513          	add	a0,a0,1
    3590:	ff1ff06f          	j	3580 <.prname_next>

00003594 <.test_name>:
    3594:	776c                	.2byte	0x776c
	...

00003598 <.prname_done>:
    3598:	02e00593          	li	a1,46
    359c:	00b62023          	sw	a1,0(a2)
    35a0:	00b62023          	sw	a1,0(a2)

000035a4 <test_2>:
    35a4:	00005097          	auipc	ra,0x5
    35a8:	a4008093          	add	ra,ra,-1472 # 7fe4 <tdat>
    35ac:	0000a183          	lw	gp,0(ra)
    35b0:	00ff0eb7          	lui	t4,0xff0
    35b4:	0ffe8e93          	add	t4,t4,255 # ff00ff <tdat10+0xfe80c7>
    35b8:	00200e13          	li	t3,2
    35bc:	27d19a63          	bne	gp,t4,3830 <fail>

000035c0 <test_3>:
    35c0:	00005097          	auipc	ra,0x5
    35c4:	a2408093          	add	ra,ra,-1500 # 7fe4 <tdat>
    35c8:	0040a183          	lw	gp,4(ra)
    35cc:	ff010eb7          	lui	t4,0xff010
    35d0:	f00e8e93          	add	t4,t4,-256 # ff00ff00 <tdat10+0xff007ec8>
    35d4:	00300e13          	li	t3,3
    35d8:	25d19c63          	bne	gp,t4,3830 <fail>

000035dc <test_4>:
    35dc:	00005097          	auipc	ra,0x5
    35e0:	a0808093          	add	ra,ra,-1528 # 7fe4 <tdat>
    35e4:	0080a183          	lw	gp,8(ra)
    35e8:	0ff01eb7          	lui	t4,0xff01
    35ec:	ff0e8e93          	add	t4,t4,-16 # ff00ff0 <tdat10+0xfef8fb8>
    35f0:	00400e13          	li	t3,4
    35f4:	23d19e63          	bne	gp,t4,3830 <fail>

000035f8 <test_5>:
    35f8:	00005097          	auipc	ra,0x5
    35fc:	9ec08093          	add	ra,ra,-1556 # 7fe4 <tdat>
    3600:	00c0a183          	lw	gp,12(ra)
    3604:	f00ffeb7          	lui	t4,0xf00ff
    3608:	00fe8e93          	add	t4,t4,15 # f00ff00f <tdat10+0xf00f6fd7>
    360c:	00500e13          	li	t3,5
    3610:	23d19063          	bne	gp,t4,3830 <fail>

00003614 <test_6>:
    3614:	00005097          	auipc	ra,0x5
    3618:	9dc08093          	add	ra,ra,-1572 # 7ff0 <tdat4>
    361c:	ff40a183          	lw	gp,-12(ra)
    3620:	00ff0eb7          	lui	t4,0xff0
    3624:	0ffe8e93          	add	t4,t4,255 # ff00ff <tdat10+0xfe80c7>
    3628:	00600e13          	li	t3,6
    362c:	21d19263          	bne	gp,t4,3830 <fail>

00003630 <test_7>:
    3630:	00005097          	auipc	ra,0x5
    3634:	9c008093          	add	ra,ra,-1600 # 7ff0 <tdat4>
    3638:	ff80a183          	lw	gp,-8(ra)
    363c:	ff010eb7          	lui	t4,0xff010
    3640:	f00e8e93          	add	t4,t4,-256 # ff00ff00 <tdat10+0xff007ec8>
    3644:	00700e13          	li	t3,7
    3648:	1fd19463          	bne	gp,t4,3830 <fail>

0000364c <test_8>:
    364c:	00005097          	auipc	ra,0x5
    3650:	9a408093          	add	ra,ra,-1628 # 7ff0 <tdat4>
    3654:	ffc0a183          	lw	gp,-4(ra)
    3658:	0ff01eb7          	lui	t4,0xff01
    365c:	ff0e8e93          	add	t4,t4,-16 # ff00ff0 <tdat10+0xfef8fb8>
    3660:	00800e13          	li	t3,8
    3664:	1dd19663          	bne	gp,t4,3830 <fail>

00003668 <test_9>:
    3668:	00005097          	auipc	ra,0x5
    366c:	98808093          	add	ra,ra,-1656 # 7ff0 <tdat4>
    3670:	0000a183          	lw	gp,0(ra)
    3674:	f00ffeb7          	lui	t4,0xf00ff
    3678:	00fe8e93          	add	t4,t4,15 # f00ff00f <tdat10+0xf00f6fd7>
    367c:	00900e13          	li	t3,9
    3680:	1bd19863          	bne	gp,t4,3830 <fail>

00003684 <test_10>:
    3684:	00005097          	auipc	ra,0x5
    3688:	96008093          	add	ra,ra,-1696 # 7fe4 <tdat>
    368c:	fe008093          	add	ra,ra,-32
    3690:	0200a183          	lw	gp,32(ra)
    3694:	00ff0eb7          	lui	t4,0xff0
    3698:	0ffe8e93          	add	t4,t4,255 # ff00ff <tdat10+0xfe80c7>
    369c:	00a00e13          	li	t3,10
    36a0:	19d19863          	bne	gp,t4,3830 <fail>

000036a4 <test_11>:
    36a4:	00005097          	auipc	ra,0x5
    36a8:	94008093          	add	ra,ra,-1728 # 7fe4 <tdat>
    36ac:	ffd08093          	add	ra,ra,-3
    36b0:	0070a183          	lw	gp,7(ra)
    36b4:	ff010eb7          	lui	t4,0xff010
    36b8:	f00e8e93          	add	t4,t4,-256 # ff00ff00 <tdat10+0xff007ec8>
    36bc:	00b00e13          	li	t3,11
    36c0:	17d19863          	bne	gp,t4,3830 <fail>

000036c4 <test_12>:
    36c4:	00c00e13          	li	t3,12
    36c8:	00000213          	li	tp,0
    36cc:	00005097          	auipc	ra,0x5
    36d0:	91c08093          	add	ra,ra,-1764 # 7fe8 <tdat2>
    36d4:	0040a183          	lw	gp,4(ra)
    36d8:	00018313          	mv	t1,gp
    36dc:	0ff01eb7          	lui	t4,0xff01
    36e0:	ff0e8e93          	add	t4,t4,-16 # ff00ff0 <tdat10+0xfef8fb8>
    36e4:	15d31663          	bne	t1,t4,3830 <fail>
    36e8:	00120213          	add	tp,tp,1 # 1 <_start+0x1>
    36ec:	00200293          	li	t0,2
    36f0:	fc521ee3          	bne	tp,t0,36cc <test_12+0x8>

000036f4 <test_13>:
    36f4:	00d00e13          	li	t3,13
    36f8:	00000213          	li	tp,0
    36fc:	00005097          	auipc	ra,0x5
    3700:	8f008093          	add	ra,ra,-1808 # 7fec <tdat3>
    3704:	0040a183          	lw	gp,4(ra)
    3708:	00000013          	nop
    370c:	00018313          	mv	t1,gp
    3710:	f00ffeb7          	lui	t4,0xf00ff
    3714:	00fe8e93          	add	t4,t4,15 # f00ff00f <tdat10+0xf00f6fd7>
    3718:	11d31c63          	bne	t1,t4,3830 <fail>
    371c:	00120213          	add	tp,tp,1 # 1 <_start+0x1>
    3720:	00200293          	li	t0,2
    3724:	fc521ce3          	bne	tp,t0,36fc <test_13+0x8>

00003728 <test_14>:
    3728:	00e00e13          	li	t3,14
    372c:	00000213          	li	tp,0
    3730:	00005097          	auipc	ra,0x5
    3734:	8b408093          	add	ra,ra,-1868 # 7fe4 <tdat>
    3738:	0040a183          	lw	gp,4(ra)
    373c:	00000013          	nop
    3740:	00000013          	nop
    3744:	00018313          	mv	t1,gp
    3748:	ff010eb7          	lui	t4,0xff010
    374c:	f00e8e93          	add	t4,t4,-256 # ff00ff00 <tdat10+0xff007ec8>
    3750:	0fd31063          	bne	t1,t4,3830 <fail>
    3754:	00120213          	add	tp,tp,1 # 1 <_start+0x1>
    3758:	00200293          	li	t0,2
    375c:	fc521ae3          	bne	tp,t0,3730 <test_14+0x8>

00003760 <test_15>:
    3760:	00f00e13          	li	t3,15
    3764:	00000213          	li	tp,0
    3768:	00005097          	auipc	ra,0x5
    376c:	88008093          	add	ra,ra,-1920 # 7fe8 <tdat2>
    3770:	0040a183          	lw	gp,4(ra)
    3774:	0ff01eb7          	lui	t4,0xff01
    3778:	ff0e8e93          	add	t4,t4,-16 # ff00ff0 <tdat10+0xfef8fb8>
    377c:	0bd19a63          	bne	gp,t4,3830 <fail>
    3780:	00120213          	add	tp,tp,1 # 1 <_start+0x1>
    3784:	00200293          	li	t0,2
    3788:	fe5210e3          	bne	tp,t0,3768 <test_15+0x8>

0000378c <test_16>:
    378c:	01000e13          	li	t3,16
    3790:	00000213          	li	tp,0
    3794:	00005097          	auipc	ra,0x5
    3798:	85808093          	add	ra,ra,-1960 # 7fec <tdat3>
    379c:	00000013          	nop
    37a0:	0040a183          	lw	gp,4(ra)
    37a4:	f00ffeb7          	lui	t4,0xf00ff
    37a8:	00fe8e93          	add	t4,t4,15 # f00ff00f <tdat10+0xf00f6fd7>
    37ac:	09d19263          	bne	gp,t4,3830 <fail>
    37b0:	00120213          	add	tp,tp,1 # 1 <_start+0x1>
    37b4:	00200293          	li	t0,2
    37b8:	fc521ee3          	bne	tp,t0,3794 <test_16+0x8>

000037bc <test_17>:
    37bc:	01100e13          	li	t3,17
    37c0:	00000213          	li	tp,0
    37c4:	00005097          	auipc	ra,0x5
    37c8:	82008093          	add	ra,ra,-2016 # 7fe4 <tdat>
    37cc:	00000013          	nop
    37d0:	00000013          	nop
    37d4:	0040a183          	lw	gp,4(ra)
    37d8:	ff010eb7          	lui	t4,0xff010
    37dc:	f00e8e93          	add	t4,t4,-256 # ff00ff00 <tdat10+0xff007ec8>
    37e0:	05d19863          	bne	gp,t4,3830 <fail>
    37e4:	00120213          	add	tp,tp,1 # 1 <_start+0x1>
    37e8:	00200293          	li	t0,2
    37ec:	fc521ce3          	bne	tp,t0,37c4 <test_17+0x8>

000037f0 <test_18>:
    37f0:	00004197          	auipc	gp,0x4
    37f4:	7f418193          	add	gp,gp,2036 # 7fe4 <tdat>
    37f8:	0001a103          	lw	sp,0(gp)
    37fc:	00200113          	li	sp,2
    3800:	00200e93          	li	t4,2
    3804:	01200e13          	li	t3,18
    3808:	03d11463          	bne	sp,t4,3830 <fail>

0000380c <test_19>:
    380c:	00004197          	auipc	gp,0x4
    3810:	7d818193          	add	gp,gp,2008 # 7fe4 <tdat>
    3814:	0001a103          	lw	sp,0(gp)
    3818:	00000013          	nop
    381c:	00200113          	li	sp,2
    3820:	00200e93          	li	t4,2
    3824:	01300e13          	li	t3,19
    3828:	01d11463          	bne	sp,t4,3830 <fail>
    382c:	03c01a63          	bne	zero,t3,3860 <pass>

00003830 <fail>:
    3830:	10000537          	lui	a0,0x10000
    3834:	04500593          	li	a1,69
    3838:	05200613          	li	a2,82
    383c:	04f00693          	li	a3,79
    3840:	00a00713          	li	a4,10
    3844:	00b52023          	sw	a1,0(a0) # 10000000 <tdat10+0xfff7fc8>
    3848:	00c52023          	sw	a2,0(a0)
    384c:	00c52023          	sw	a2,0(a0)
    3850:	00d52023          	sw	a3,0(a0)
    3854:	00c52023          	sw	a2,0(a0)
    3858:	00e52023          	sw	a4,0(a0)
    385c:	00100073          	ebreak

00003860 <pass>:
    3860:	10000537          	lui	a0,0x10000
    3864:	04f00593          	li	a1,79
    3868:	04b00613          	li	a2,75
    386c:	00a00693          	li	a3,10
    3870:	00b52023          	sw	a1,0(a0) # 10000000 <tdat10+0xfff7fc8>
    3874:	00c52023          	sw	a2,0(a0)
    3878:	00d52023          	sw	a3,0(a0)
    387c:	fc0fc06f          	j	3c <lw_ret>

00003880 <ori>:
    3880:	00004537          	lui	a0,0x4
    3884:	8a050513          	add	a0,a0,-1888 # 38a0 <.test_name>
    3888:	10000637          	lui	a2,0x10000

0000388c <.prname_next>:
    388c:	00050583          	lb	a1,0(a0)
    3890:	00058a63          	beqz	a1,38a4 <.prname_done>
    3894:	00b62023          	sw	a1,0(a2) # 10000000 <tdat10+0xfff7fc8>
    3898:	00150513          	add	a0,a0,1
    389c:	ff1ff06f          	j	388c <.prname_next>

000038a0 <.test_name>:
    38a0:	0069726f          	jal	tp,9a8a6 <tdat10+0x9286e>

000038a4 <.prname_done>:
    38a4:	02e00593          	li	a1,46
    38a8:	00b62023          	sw	a1,0(a2)
    38ac:	00b62023          	sw	a1,0(a2)

000038b0 <test_2>:
    38b0:	ff0100b7          	lui	ra,0xff010
    38b4:	f0008093          	add	ra,ra,-256 # ff00ff00 <tdat10+0xff007ec8>
    38b8:	f0f0e193          	or	gp,ra,-241
    38bc:	f0f00e93          	li	t4,-241
    38c0:	00200e13          	li	t3,2
    38c4:	1dd19463          	bne	gp,t4,3a8c <fail>

000038c8 <test_3>:
    38c8:	0ff010b7          	lui	ra,0xff01
    38cc:	ff008093          	add	ra,ra,-16 # ff00ff0 <tdat10+0xfef8fb8>
    38d0:	0f00e193          	or	gp,ra,240
    38d4:	0ff01eb7          	lui	t4,0xff01
    38d8:	ff0e8e93          	add	t4,t4,-16 # ff00ff0 <tdat10+0xfef8fb8>
    38dc:	00300e13          	li	t3,3
    38e0:	1bd19663          	bne	gp,t4,3a8c <fail>

000038e4 <test_4>:
    38e4:	00ff00b7          	lui	ra,0xff0
    38e8:	0ff08093          	add	ra,ra,255 # ff00ff <tdat10+0xfe80c7>
    38ec:	70f0e193          	or	gp,ra,1807
    38f0:	00ff0eb7          	lui	t4,0xff0
    38f4:	7ffe8e93          	add	t4,t4,2047 # ff07ff <tdat10+0xfe87c7>
    38f8:	00400e13          	li	t3,4
    38fc:	19d19863          	bne	gp,t4,3a8c <fail>

00003900 <test_5>:
    3900:	f00ff0b7          	lui	ra,0xf00ff
    3904:	00f08093          	add	ra,ra,15 # f00ff00f <tdat10+0xf00f6fd7>
    3908:	0f00e193          	or	gp,ra,240
    390c:	f00ffeb7          	lui	t4,0xf00ff
    3910:	0ffe8e93          	add	t4,t4,255 # f00ff0ff <tdat10+0xf00f70c7>
    3914:	00500e13          	li	t3,5
    3918:	17d19a63          	bne	gp,t4,3a8c <fail>

0000391c <test_6>:
    391c:	ff0100b7          	lui	ra,0xff010
    3920:	f0008093          	add	ra,ra,-256 # ff00ff00 <tdat10+0xff007ec8>
    3924:	0f00e093          	or	ra,ra,240
    3928:	ff010eb7          	lui	t4,0xff010
    392c:	ff0e8e93          	add	t4,t4,-16 # ff00fff0 <tdat10+0xff007fb8>
    3930:	00600e13          	li	t3,6
    3934:	15d09c63          	bne	ra,t4,3a8c <fail>

00003938 <test_7>:
    3938:	00000213          	li	tp,0
    393c:	0ff010b7          	lui	ra,0xff01
    3940:	ff008093          	add	ra,ra,-16 # ff00ff0 <tdat10+0xfef8fb8>
    3944:	0f00e193          	or	gp,ra,240
    3948:	00018313          	mv	t1,gp
    394c:	00120213          	add	tp,tp,1 # 1 <_start+0x1>
    3950:	00200293          	li	t0,2
    3954:	fe5214e3          	bne	tp,t0,393c <test_7+0x4>
    3958:	0ff01eb7          	lui	t4,0xff01
    395c:	ff0e8e93          	add	t4,t4,-16 # ff00ff0 <tdat10+0xfef8fb8>
    3960:	00700e13          	li	t3,7
    3964:	13d31463          	bne	t1,t4,3a8c <fail>

00003968 <test_8>:
    3968:	00000213          	li	tp,0
    396c:	00ff00b7          	lui	ra,0xff0
    3970:	0ff08093          	add	ra,ra,255 # ff00ff <tdat10+0xfe80c7>
    3974:	70f0e193          	or	gp,ra,1807
    3978:	00000013          	nop
    397c:	00018313          	mv	t1,gp
    3980:	00120213          	add	tp,tp,1 # 1 <_start+0x1>
    3984:	00200293          	li	t0,2
    3988:	fe5212e3          	bne	tp,t0,396c <test_8+0x4>
    398c:	00ff0eb7          	lui	t4,0xff0
    3990:	7ffe8e93          	add	t4,t4,2047 # ff07ff <tdat10+0xfe87c7>
    3994:	00800e13          	li	t3,8
    3998:	0fd31a63          	bne	t1,t4,3a8c <fail>

0000399c <test_9>:
    399c:	00000213          	li	tp,0
    39a0:	f00ff0b7          	lui	ra,0xf00ff
    39a4:	00f08093          	add	ra,ra,15 # f00ff00f <tdat10+0xf00f6fd7>
    39a8:	0f00e193          	or	gp,ra,240
    39ac:	00000013          	nop
    39b0:	00000013          	nop
    39b4:	00018313          	mv	t1,gp
    39b8:	00120213          	add	tp,tp,1 # 1 <_start+0x1>
    39bc:	00200293          	li	t0,2
    39c0:	fe5210e3          	bne	tp,t0,39a0 <test_9+0x4>
    39c4:	f00ffeb7          	lui	t4,0xf00ff
    39c8:	0ffe8e93          	add	t4,t4,255 # f00ff0ff <tdat10+0xf00f70c7>
    39cc:	00900e13          	li	t3,9
    39d0:	0bd31e63          	bne	t1,t4,3a8c <fail>

000039d4 <test_10>:
    39d4:	00000213          	li	tp,0
    39d8:	0ff010b7          	lui	ra,0xff01
    39dc:	ff008093          	add	ra,ra,-16 # ff00ff0 <tdat10+0xfef8fb8>
    39e0:	0f00e193          	or	gp,ra,240
    39e4:	00120213          	add	tp,tp,1 # 1 <_start+0x1>
    39e8:	00200293          	li	t0,2
    39ec:	fe5216e3          	bne	tp,t0,39d8 <test_10+0x4>
    39f0:	0ff01eb7          	lui	t4,0xff01
    39f4:	ff0e8e93          	add	t4,t4,-16 # ff00ff0 <tdat10+0xfef8fb8>
    39f8:	00a00e13          	li	t3,10
    39fc:	09d19863          	bne	gp,t4,3a8c <fail>

00003a00 <test_11>:
    3a00:	00000213          	li	tp,0
    3a04:	00ff00b7          	lui	ra,0xff0
    3a08:	0ff08093          	add	ra,ra,255 # ff00ff <tdat10+0xfe80c7>
    3a0c:	00000013          	nop
    3a10:	f0f0e193          	or	gp,ra,-241
    3a14:	00120213          	add	tp,tp,1 # 1 <_start+0x1>
    3a18:	00200293          	li	t0,2
    3a1c:	fe5214e3          	bne	tp,t0,3a04 <test_11+0x4>
    3a20:	fff00e93          	li	t4,-1
    3a24:	00b00e13          	li	t3,11
    3a28:	07d19263          	bne	gp,t4,3a8c <fail>

00003a2c <test_12>:
    3a2c:	00000213          	li	tp,0
    3a30:	f00ff0b7          	lui	ra,0xf00ff
    3a34:	00f08093          	add	ra,ra,15 # f00ff00f <tdat10+0xf00f6fd7>
    3a38:	00000013          	nop
    3a3c:	00000013          	nop
    3a40:	0f00e193          	or	gp,ra,240
    3a44:	00120213          	add	tp,tp,1 # 1 <_start+0x1>
    3a48:	00200293          	li	t0,2
    3a4c:	fe5212e3          	bne	tp,t0,3a30 <test_12+0x4>
    3a50:	f00ffeb7          	lui	t4,0xf00ff
    3a54:	0ffe8e93          	add	t4,t4,255 # f00ff0ff <tdat10+0xf00f70c7>
    3a58:	00c00e13          	li	t3,12
    3a5c:	03d19863          	bne	gp,t4,3a8c <fail>

00003a60 <test_13>:
    3a60:	0f006093          	or	ra,zero,240
    3a64:	0f000e93          	li	t4,240
    3a68:	00d00e13          	li	t3,13
    3a6c:	03d09063          	bne	ra,t4,3a8c <fail>

00003a70 <test_14>:
    3a70:	00ff00b7          	lui	ra,0xff0
    3a74:	0ff08093          	add	ra,ra,255 # ff00ff <tdat10+0xfe80c7>
    3a78:	70f0e013          	or	zero,ra,1807
    3a7c:	00000e93          	li	t4,0
    3a80:	00e00e13          	li	t3,14
    3a84:	01d01463          	bne	zero,t4,3a8c <fail>
    3a88:	03c01a63          	bne	zero,t3,3abc <pass>

00003a8c <fail>:
    3a8c:	10000537          	lui	a0,0x10000
    3a90:	04500593          	li	a1,69
    3a94:	05200613          	li	a2,82
    3a98:	04f00693          	li	a3,79
    3a9c:	00a00713          	li	a4,10
    3aa0:	00b52023          	sw	a1,0(a0) # 10000000 <tdat10+0xfff7fc8>
    3aa4:	00c52023          	sw	a2,0(a0)
    3aa8:	00c52023          	sw	a2,0(a0)
    3aac:	00d52023          	sw	a3,0(a0)
    3ab0:	00c52023          	sw	a2,0(a0)
    3ab4:	00e52023          	sw	a4,0(a0)
    3ab8:	00100073          	ebreak

00003abc <pass>:
    3abc:	10000537          	lui	a0,0x10000
    3ac0:	04f00593          	li	a1,79
    3ac4:	04b00613          	li	a2,75
    3ac8:	00a00693          	li	a3,10
    3acc:	00b52023          	sw	a1,0(a0) # 10000000 <tdat10+0xfff7fc8>
    3ad0:	00c52023          	sw	a2,0(a0)
    3ad4:	00d52023          	sw	a3,0(a0)
    3ad8:	d88fc06f          	j	60 <ori_ret>

00003adc <or>:
    3adc:	00004537          	lui	a0,0x4
    3ae0:	afc50513          	add	a0,a0,-1284 # 3afc <.test_name>
    3ae4:	10000637          	lui	a2,0x10000

00003ae8 <.prname_next>:
    3ae8:	00050583          	lb	a1,0(a0)
    3aec:	00058a63          	beqz	a1,3b00 <.prname_done>
    3af0:	00b62023          	sw	a1,0(a2) # 10000000 <tdat10+0xfff7fc8>
    3af4:	00150513          	add	a0,a0,1
    3af8:	ff1ff06f          	j	3ae8 <.prname_next>

00003afc <.test_name>:
    3afc:	0000726f          	jal	tp,aafc <tdat10+0x2ac4>

00003b00 <.prname_done>:
    3b00:	02e00593          	li	a1,46
    3b04:	00b62023          	sw	a1,0(a2)
    3b08:	00b62023          	sw	a1,0(a2)

00003b0c <test_2>:
    3b0c:	ff0100b7          	lui	ra,0xff010
    3b10:	f0008093          	add	ra,ra,-256 # ff00ff00 <tdat10+0xff007ec8>
    3b14:	0f0f1137          	lui	sp,0xf0f1
    3b18:	f0f10113          	add	sp,sp,-241 # f0f0f0f <tdat10+0xf0e8ed7>
    3b1c:	0020e1b3          	or	gp,ra,sp
    3b20:	ff100eb7          	lui	t4,0xff100
    3b24:	f0fe8e93          	add	t4,t4,-241 # ff0fff0f <tdat10+0xff0f7ed7>
    3b28:	00200e13          	li	t3,2
    3b2c:	4bd19263          	bne	gp,t4,3fd0 <fail>

00003b30 <test_3>:
    3b30:	0ff010b7          	lui	ra,0xff01
    3b34:	ff008093          	add	ra,ra,-16 # ff00ff0 <tdat10+0xfef8fb8>
    3b38:	f0f0f137          	lui	sp,0xf0f0f
    3b3c:	0f010113          	add	sp,sp,240 # f0f0f0f0 <tdat10+0xf0f070b8>
    3b40:	0020e1b3          	or	gp,ra,sp
    3b44:	fff10eb7          	lui	t4,0xfff10
    3b48:	ff0e8e93          	add	t4,t4,-16 # fff0fff0 <tdat10+0xfff07fb8>
    3b4c:	00300e13          	li	t3,3
    3b50:	49d19063          	bne	gp,t4,3fd0 <fail>

00003b54 <test_4>:
    3b54:	00ff00b7          	lui	ra,0xff0
    3b58:	0ff08093          	add	ra,ra,255 # ff00ff <tdat10+0xfe80c7>
    3b5c:	0f0f1137          	lui	sp,0xf0f1
    3b60:	f0f10113          	add	sp,sp,-241 # f0f0f0f <tdat10+0xf0e8ed7>
    3b64:	0020e1b3          	or	gp,ra,sp
    3b68:	0fff1eb7          	lui	t4,0xfff1
    3b6c:	fffe8e93          	add	t4,t4,-1 # fff0fff <tdat10+0xffe8fc7>
    3b70:	00400e13          	li	t3,4
    3b74:	45d19e63          	bne	gp,t4,3fd0 <fail>

00003b78 <test_5>:
    3b78:	f00ff0b7          	lui	ra,0xf00ff
    3b7c:	00f08093          	add	ra,ra,15 # f00ff00f <tdat10+0xf00f6fd7>
    3b80:	f0f0f137          	lui	sp,0xf0f0f
    3b84:	0f010113          	add	sp,sp,240 # f0f0f0f0 <tdat10+0xf0f070b8>
    3b88:	0020e1b3          	or	gp,ra,sp
    3b8c:	f0fffeb7          	lui	t4,0xf0fff
    3b90:	0ffe8e93          	add	t4,t4,255 # f0fff0ff <tdat10+0xf0ff70c7>
    3b94:	00500e13          	li	t3,5
    3b98:	43d19c63          	bne	gp,t4,3fd0 <fail>

00003b9c <test_6>:
    3b9c:	ff0100b7          	lui	ra,0xff010
    3ba0:	f0008093          	add	ra,ra,-256 # ff00ff00 <tdat10+0xff007ec8>
    3ba4:	0f0f1137          	lui	sp,0xf0f1
    3ba8:	f0f10113          	add	sp,sp,-241 # f0f0f0f <tdat10+0xf0e8ed7>
    3bac:	0020e0b3          	or	ra,ra,sp
    3bb0:	ff100eb7          	lui	t4,0xff100
    3bb4:	f0fe8e93          	add	t4,t4,-241 # ff0fff0f <tdat10+0xff0f7ed7>
    3bb8:	00600e13          	li	t3,6
    3bbc:	41d09a63          	bne	ra,t4,3fd0 <fail>

00003bc0 <test_7>:
    3bc0:	ff0100b7          	lui	ra,0xff010
    3bc4:	f0008093          	add	ra,ra,-256 # ff00ff00 <tdat10+0xff007ec8>
    3bc8:	0f0f1137          	lui	sp,0xf0f1
    3bcc:	f0f10113          	add	sp,sp,-241 # f0f0f0f <tdat10+0xf0e8ed7>
    3bd0:	0020e133          	or	sp,ra,sp
    3bd4:	ff100eb7          	lui	t4,0xff100
    3bd8:	f0fe8e93          	add	t4,t4,-241 # ff0fff0f <tdat10+0xff0f7ed7>
    3bdc:	00700e13          	li	t3,7
    3be0:	3fd11863          	bne	sp,t4,3fd0 <fail>

00003be4 <test_8>:
    3be4:	ff0100b7          	lui	ra,0xff010
    3be8:	f0008093          	add	ra,ra,-256 # ff00ff00 <tdat10+0xff007ec8>
    3bec:	0010e0b3          	or	ra,ra,ra
    3bf0:	ff010eb7          	lui	t4,0xff010
    3bf4:	f00e8e93          	add	t4,t4,-256 # ff00ff00 <tdat10+0xff007ec8>
    3bf8:	00800e13          	li	t3,8
    3bfc:	3dd09a63          	bne	ra,t4,3fd0 <fail>

00003c00 <test_9>:
    3c00:	00000213          	li	tp,0
    3c04:	ff0100b7          	lui	ra,0xff010
    3c08:	f0008093          	add	ra,ra,-256 # ff00ff00 <tdat10+0xff007ec8>
    3c0c:	0f0f1137          	lui	sp,0xf0f1
    3c10:	f0f10113          	add	sp,sp,-241 # f0f0f0f <tdat10+0xf0e8ed7>
    3c14:	0020e1b3          	or	gp,ra,sp
    3c18:	00018313          	mv	t1,gp
    3c1c:	00120213          	add	tp,tp,1 # 1 <_start+0x1>
    3c20:	00200293          	li	t0,2
    3c24:	fe5210e3          	bne	tp,t0,3c04 <test_9+0x4>
    3c28:	ff100eb7          	lui	t4,0xff100
    3c2c:	f0fe8e93          	add	t4,t4,-241 # ff0fff0f <tdat10+0xff0f7ed7>
    3c30:	00900e13          	li	t3,9
    3c34:	39d31e63          	bne	t1,t4,3fd0 <fail>

00003c38 <test_10>:
    3c38:	00000213          	li	tp,0
    3c3c:	0ff010b7          	lui	ra,0xff01
    3c40:	ff008093          	add	ra,ra,-16 # ff00ff0 <tdat10+0xfef8fb8>
    3c44:	f0f0f137          	lui	sp,0xf0f0f
    3c48:	0f010113          	add	sp,sp,240 # f0f0f0f0 <tdat10+0xf0f070b8>
    3c4c:	0020e1b3          	or	gp,ra,sp
    3c50:	00000013          	nop
    3c54:	00018313          	mv	t1,gp
    3c58:	00120213          	add	tp,tp,1 # 1 <_start+0x1>
    3c5c:	00200293          	li	t0,2
    3c60:	fc521ee3          	bne	tp,t0,3c3c <test_10+0x4>
    3c64:	fff10eb7          	lui	t4,0xfff10
    3c68:	ff0e8e93          	add	t4,t4,-16 # fff0fff0 <tdat10+0xfff07fb8>
    3c6c:	00a00e13          	li	t3,10
    3c70:	37d31063          	bne	t1,t4,3fd0 <fail>

00003c74 <test_11>:
    3c74:	00000213          	li	tp,0
    3c78:	00ff00b7          	lui	ra,0xff0
    3c7c:	0ff08093          	add	ra,ra,255 # ff00ff <tdat10+0xfe80c7>
    3c80:	0f0f1137          	lui	sp,0xf0f1
    3c84:	f0f10113          	add	sp,sp,-241 # f0f0f0f <tdat10+0xf0e8ed7>
    3c88:	0020e1b3          	or	gp,ra,sp
    3c8c:	00000013          	nop
    3c90:	00000013          	nop
    3c94:	00018313          	mv	t1,gp
    3c98:	00120213          	add	tp,tp,1 # 1 <_start+0x1>
    3c9c:	00200293          	li	t0,2
    3ca0:	fc521ce3          	bne	tp,t0,3c78 <test_11+0x4>
    3ca4:	0fff1eb7          	lui	t4,0xfff1
    3ca8:	fffe8e93          	add	t4,t4,-1 # fff0fff <tdat10+0xffe8fc7>
    3cac:	00b00e13          	li	t3,11
    3cb0:	33d31063          	bne	t1,t4,3fd0 <fail>

00003cb4 <test_12>:
    3cb4:	00000213          	li	tp,0
    3cb8:	ff0100b7          	lui	ra,0xff010
    3cbc:	f0008093          	add	ra,ra,-256 # ff00ff00 <tdat10+0xff007ec8>
    3cc0:	0f0f1137          	lui	sp,0xf0f1
    3cc4:	f0f10113          	add	sp,sp,-241 # f0f0f0f <tdat10+0xf0e8ed7>
    3cc8:	0020e1b3          	or	gp,ra,sp
    3ccc:	00120213          	add	tp,tp,1 # 1 <_start+0x1>
    3cd0:	00200293          	li	t0,2
    3cd4:	fe5212e3          	bne	tp,t0,3cb8 <test_12+0x4>
    3cd8:	ff100eb7          	lui	t4,0xff100
    3cdc:	f0fe8e93          	add	t4,t4,-241 # ff0fff0f <tdat10+0xff0f7ed7>
    3ce0:	00c00e13          	li	t3,12
    3ce4:	2fd19663          	bne	gp,t4,3fd0 <fail>

00003ce8 <test_13>:
    3ce8:	00000213          	li	tp,0
    3cec:	0ff010b7          	lui	ra,0xff01
    3cf0:	ff008093          	add	ra,ra,-16 # ff00ff0 <tdat10+0xfef8fb8>
    3cf4:	f0f0f137          	lui	sp,0xf0f0f
    3cf8:	0f010113          	add	sp,sp,240 # f0f0f0f0 <tdat10+0xf0f070b8>
    3cfc:	00000013          	nop
    3d00:	0020e1b3          	or	gp,ra,sp
    3d04:	00120213          	add	tp,tp,1 # 1 <_start+0x1>
    3d08:	00200293          	li	t0,2
    3d0c:	fe5210e3          	bne	tp,t0,3cec <test_13+0x4>
    3d10:	fff10eb7          	lui	t4,0xfff10
    3d14:	ff0e8e93          	add	t4,t4,-16 # fff0fff0 <tdat10+0xfff07fb8>
    3d18:	00d00e13          	li	t3,13
    3d1c:	2bd19a63          	bne	gp,t4,3fd0 <fail>

00003d20 <test_14>:
    3d20:	00000213          	li	tp,0
    3d24:	00ff00b7          	lui	ra,0xff0
    3d28:	0ff08093          	add	ra,ra,255 # ff00ff <tdat10+0xfe80c7>
    3d2c:	0f0f1137          	lui	sp,0xf0f1
    3d30:	f0f10113          	add	sp,sp,-241 # f0f0f0f <tdat10+0xf0e8ed7>
    3d34:	00000013          	nop
    3d38:	00000013          	nop
    3d3c:	0020e1b3          	or	gp,ra,sp
    3d40:	00120213          	add	tp,tp,1 # 1 <_start+0x1>
    3d44:	00200293          	li	t0,2
    3d48:	fc521ee3          	bne	tp,t0,3d24 <test_14+0x4>
    3d4c:	0fff1eb7          	lui	t4,0xfff1
    3d50:	fffe8e93          	add	t4,t4,-1 # fff0fff <tdat10+0xffe8fc7>
    3d54:	00e00e13          	li	t3,14
    3d58:	27d19c63          	bne	gp,t4,3fd0 <fail>

00003d5c <test_15>:
    3d5c:	00000213          	li	tp,0
    3d60:	ff0100b7          	lui	ra,0xff010
    3d64:	f0008093          	add	ra,ra,-256 # ff00ff00 <tdat10+0xff007ec8>
    3d68:	00000013          	nop
    3d6c:	0f0f1137          	lui	sp,0xf0f1
    3d70:	f0f10113          	add	sp,sp,-241 # f0f0f0f <tdat10+0xf0e8ed7>
    3d74:	0020e1b3          	or	gp,ra,sp
    3d78:	00120213          	add	tp,tp,1 # 1 <_start+0x1>
    3d7c:	00200293          	li	t0,2
    3d80:	fe5210e3          	bne	tp,t0,3d60 <test_15+0x4>
    3d84:	ff100eb7          	lui	t4,0xff100
    3d88:	f0fe8e93          	add	t4,t4,-241 # ff0fff0f <tdat10+0xff0f7ed7>
    3d8c:	00f00e13          	li	t3,15
    3d90:	25d19063          	bne	gp,t4,3fd0 <fail>

00003d94 <test_16>:
    3d94:	00000213          	li	tp,0
    3d98:	0ff010b7          	lui	ra,0xff01
    3d9c:	ff008093          	add	ra,ra,-16 # ff00ff0 <tdat10+0xfef8fb8>
    3da0:	00000013          	nop
    3da4:	f0f0f137          	lui	sp,0xf0f0f
    3da8:	0f010113          	add	sp,sp,240 # f0f0f0f0 <tdat10+0xf0f070b8>
    3dac:	00000013          	nop
    3db0:	0020e1b3          	or	gp,ra,sp
    3db4:	00120213          	add	tp,tp,1 # 1 <_start+0x1>
    3db8:	00200293          	li	t0,2
    3dbc:	fc521ee3          	bne	tp,t0,3d98 <test_16+0x4>
    3dc0:	fff10eb7          	lui	t4,0xfff10
    3dc4:	ff0e8e93          	add	t4,t4,-16 # fff0fff0 <tdat10+0xfff07fb8>
    3dc8:	01000e13          	li	t3,16
    3dcc:	21d19263          	bne	gp,t4,3fd0 <fail>

00003dd0 <test_17>:
    3dd0:	00000213          	li	tp,0
    3dd4:	00ff00b7          	lui	ra,0xff0
    3dd8:	0ff08093          	add	ra,ra,255 # ff00ff <tdat10+0xfe80c7>
    3ddc:	00000013          	nop
    3de0:	00000013          	nop
    3de4:	0f0f1137          	lui	sp,0xf0f1
    3de8:	f0f10113          	add	sp,sp,-241 # f0f0f0f <tdat10+0xf0e8ed7>
    3dec:	0020e1b3          	or	gp,ra,sp
    3df0:	00120213          	add	tp,tp,1 # 1 <_start+0x1>
    3df4:	00200293          	li	t0,2
    3df8:	fc521ee3          	bne	tp,t0,3dd4 <test_17+0x4>
    3dfc:	0fff1eb7          	lui	t4,0xfff1
    3e00:	fffe8e93          	add	t4,t4,-1 # fff0fff <tdat10+0xffe8fc7>
    3e04:	01100e13          	li	t3,17
    3e08:	1dd19463          	bne	gp,t4,3fd0 <fail>

00003e0c <test_18>:
    3e0c:	00000213          	li	tp,0
    3e10:	0f0f1137          	lui	sp,0xf0f1
    3e14:	f0f10113          	add	sp,sp,-241 # f0f0f0f <tdat10+0xf0e8ed7>
    3e18:	ff0100b7          	lui	ra,0xff010
    3e1c:	f0008093          	add	ra,ra,-256 # ff00ff00 <tdat10+0xff007ec8>
    3e20:	0020e1b3          	or	gp,ra,sp
    3e24:	00120213          	add	tp,tp,1 # 1 <_start+0x1>
    3e28:	00200293          	li	t0,2
    3e2c:	fe5212e3          	bne	tp,t0,3e10 <test_18+0x4>
    3e30:	ff100eb7          	lui	t4,0xff100
    3e34:	f0fe8e93          	add	t4,t4,-241 # ff0fff0f <tdat10+0xff0f7ed7>
    3e38:	01200e13          	li	t3,18
    3e3c:	19d19a63          	bne	gp,t4,3fd0 <fail>

00003e40 <test_19>:
    3e40:	00000213          	li	tp,0
    3e44:	f0f0f137          	lui	sp,0xf0f0f
    3e48:	0f010113          	add	sp,sp,240 # f0f0f0f0 <tdat10+0xf0f070b8>
    3e4c:	0ff010b7          	lui	ra,0xff01
    3e50:	ff008093          	add	ra,ra,-16 # ff00ff0 <tdat10+0xfef8fb8>
    3e54:	00000013          	nop
    3e58:	0020e1b3          	or	gp,ra,sp
    3e5c:	00120213          	add	tp,tp,1 # 1 <_start+0x1>
    3e60:	00200293          	li	t0,2
    3e64:	fe5210e3          	bne	tp,t0,3e44 <test_19+0x4>
    3e68:	fff10eb7          	lui	t4,0xfff10
    3e6c:	ff0e8e93          	add	t4,t4,-16 # fff0fff0 <tdat10+0xfff07fb8>
    3e70:	01300e13          	li	t3,19
    3e74:	15d19e63          	bne	gp,t4,3fd0 <fail>

00003e78 <test_20>:
    3e78:	00000213          	li	tp,0
    3e7c:	0f0f1137          	lui	sp,0xf0f1
    3e80:	f0f10113          	add	sp,sp,-241 # f0f0f0f <tdat10+0xf0e8ed7>
    3e84:	00ff00b7          	lui	ra,0xff0
    3e88:	0ff08093          	add	ra,ra,255 # ff00ff <tdat10+0xfe80c7>
    3e8c:	00000013          	nop
    3e90:	00000013          	nop
    3e94:	0020e1b3          	or	gp,ra,sp
    3e98:	00120213          	add	tp,tp,1 # 1 <_start+0x1>
    3e9c:	00200293          	li	t0,2
    3ea0:	fc521ee3          	bne	tp,t0,3e7c <test_20+0x4>
    3ea4:	0fff1eb7          	lui	t4,0xfff1
    3ea8:	fffe8e93          	add	t4,t4,-1 # fff0fff <tdat10+0xffe8fc7>
    3eac:	01400e13          	li	t3,20
    3eb0:	13d19063          	bne	gp,t4,3fd0 <fail>

00003eb4 <test_21>:
    3eb4:	00000213          	li	tp,0
    3eb8:	0f0f1137          	lui	sp,0xf0f1
    3ebc:	f0f10113          	add	sp,sp,-241 # f0f0f0f <tdat10+0xf0e8ed7>
    3ec0:	00000013          	nop
    3ec4:	ff0100b7          	lui	ra,0xff010
    3ec8:	f0008093          	add	ra,ra,-256 # ff00ff00 <tdat10+0xff007ec8>
    3ecc:	0020e1b3          	or	gp,ra,sp
    3ed0:	00120213          	add	tp,tp,1 # 1 <_start+0x1>
    3ed4:	00200293          	li	t0,2
    3ed8:	fe5210e3          	bne	tp,t0,3eb8 <test_21+0x4>
    3edc:	ff100eb7          	lui	t4,0xff100
    3ee0:	f0fe8e93          	add	t4,t4,-241 # ff0fff0f <tdat10+0xff0f7ed7>
    3ee4:	01500e13          	li	t3,21
    3ee8:	0fd19463          	bne	gp,t4,3fd0 <fail>

00003eec <test_22>:
    3eec:	00000213          	li	tp,0
    3ef0:	f0f0f137          	lui	sp,0xf0f0f
    3ef4:	0f010113          	add	sp,sp,240 # f0f0f0f0 <tdat10+0xf0f070b8>
    3ef8:	00000013          	nop
    3efc:	0ff010b7          	lui	ra,0xff01
    3f00:	ff008093          	add	ra,ra,-16 # ff00ff0 <tdat10+0xfef8fb8>
    3f04:	00000013          	nop
    3f08:	0020e1b3          	or	gp,ra,sp
    3f0c:	00120213          	add	tp,tp,1 # 1 <_start+0x1>
    3f10:	00200293          	li	t0,2
    3f14:	fc521ee3          	bne	tp,t0,3ef0 <test_22+0x4>
    3f18:	fff10eb7          	lui	t4,0xfff10
    3f1c:	ff0e8e93          	add	t4,t4,-16 # fff0fff0 <tdat10+0xfff07fb8>
    3f20:	01600e13          	li	t3,22
    3f24:	0bd19663          	bne	gp,t4,3fd0 <fail>

00003f28 <test_23>:
    3f28:	00000213          	li	tp,0
    3f2c:	0f0f1137          	lui	sp,0xf0f1
    3f30:	f0f10113          	add	sp,sp,-241 # f0f0f0f <tdat10+0xf0e8ed7>
    3f34:	00000013          	nop
    3f38:	00000013          	nop
    3f3c:	00ff00b7          	lui	ra,0xff0
    3f40:	0ff08093          	add	ra,ra,255 # ff00ff <tdat10+0xfe80c7>
    3f44:	0020e1b3          	or	gp,ra,sp
    3f48:	00120213          	add	tp,tp,1 # 1 <_start+0x1>
    3f4c:	00200293          	li	t0,2
    3f50:	fc521ee3          	bne	tp,t0,3f2c <test_23+0x4>
    3f54:	0fff1eb7          	lui	t4,0xfff1
    3f58:	fffe8e93          	add	t4,t4,-1 # fff0fff <tdat10+0xffe8fc7>
    3f5c:	01700e13          	li	t3,23
    3f60:	07d19863          	bne	gp,t4,3fd0 <fail>

00003f64 <test_24>:
    3f64:	ff0100b7          	lui	ra,0xff010
    3f68:	f0008093          	add	ra,ra,-256 # ff00ff00 <tdat10+0xff007ec8>
    3f6c:	00106133          	or	sp,zero,ra
    3f70:	ff010eb7          	lui	t4,0xff010
    3f74:	f00e8e93          	add	t4,t4,-256 # ff00ff00 <tdat10+0xff007ec8>
    3f78:	01800e13          	li	t3,24
    3f7c:	05d11a63          	bne	sp,t4,3fd0 <fail>

00003f80 <test_25>:
    3f80:	00ff00b7          	lui	ra,0xff0
    3f84:	0ff08093          	add	ra,ra,255 # ff00ff <tdat10+0xfe80c7>
    3f88:	0000e133          	or	sp,ra,zero
    3f8c:	00ff0eb7          	lui	t4,0xff0
    3f90:	0ffe8e93          	add	t4,t4,255 # ff00ff <tdat10+0xfe80c7>
    3f94:	01900e13          	li	t3,25
    3f98:	03d11c63          	bne	sp,t4,3fd0 <fail>

00003f9c <test_26>:
    3f9c:	000060b3          	or	ra,zero,zero
    3fa0:	00000e93          	li	t4,0
    3fa4:	01a00e13          	li	t3,26
    3fa8:	03d09463          	bne	ra,t4,3fd0 <fail>

00003fac <test_27>:
    3fac:	111110b7          	lui	ra,0x11111
    3fb0:	11108093          	add	ra,ra,273 # 11111111 <tdat10+0x111090d9>
    3fb4:	22222137          	lui	sp,0x22222
    3fb8:	22210113          	add	sp,sp,546 # 22222222 <tdat10+0x2221a1ea>
    3fbc:	0020e033          	or	zero,ra,sp
